{
  "address": "0xDD2631147BD866D588aA99E6B06Dc1633b6646D8",
  "abi": [
    {
      "inputs": [],
      "stateMutability": "nonpayable",
      "type": "constructor"
    },
    {
      "inputs": [
        {
          "internalType": "uint32",
          "name": "have",
          "type": "uint32"
        },
        {
          "internalType": "uint32",
          "name": "want",
          "type": "uint32"
        }
      ],
      "name": "GasLimitTooBig",
      "type": "error"
    },
    {
      "inputs": [],
      "name": "IncompatibleJobId",
      "type": "error"
    },
    {
      "inputs": [],
      "name": "IncorrectCommitment",
      "type": "error"
    },
    {
      "inputs": [
        {
          "internalType": "uint256",
          "name": "have",
          "type": "uint256"
        },
        {
          "internalType": "uint256",
          "name": "want",
          "type": "uint256"
        }
      ],
      "name": "InsufficientPayment",
      "type": "error"
    },
    {
      "inputs": [
        {
          "internalType": "uint64",
          "name": "accId",
          "type": "uint64"
        },
        {
          "internalType": "address",
          "name": "consumer",
          "type": "address"
        }
      ],
      "name": "InvalidConsumer",
      "type": "error"
    },
    {
      "inputs": [],
      "name": "InvalidJobId",
      "type": "error"
    },
    {
      "inputs": [],
      "name": "InvalidNumSubmission",
      "type": "error"
    },
    {
      "inputs": [],
      "name": "NoCorrespondingRequest",
      "type": "error"
    },
    {
      "inputs": [
        {
          "internalType": "address",
          "name": "oracle",
          "type": "address"
        }
      ],
      "name": "NoSuchOracle",
      "type": "error"
    },
    {
      "inputs": [],
      "name": "NotRequestOwner",
      "type": "error"
    },
    {
      "inputs": [
        {
          "internalType": "address",
          "name": "oracle",
          "type": "address"
        }
      ],
      "name": "OracleAlreadyRegistered",
      "type": "error"
    },
    {
      "inputs": [],
      "name": "OracleAlreadySubmitted",
      "type": "error"
    },
    {
      "inputs": [
        {
          "internalType": "address",
          "name": "owner",
          "type": "address"
        }
      ],
      "name": "OwnableInvalidOwner",
      "type": "error"
    },
    {
      "inputs": [
        {
          "internalType": "address",
          "name": "account",
          "type": "address"
        }
      ],
      "name": "OwnableUnauthorizedAccount",
      "type": "error"
    },
    {
      "inputs": [],
      "name": "Reentrant",
      "type": "error"
    },
    {
      "inputs": [],
      "name": "RefundFailure",
      "type": "error"
    },
    {
      "inputs": [],
      "name": "TooManyOracles",
      "type": "error"
    },
    {
      "inputs": [
        {
          "internalType": "address",
          "name": "oracle",
          "type": "address"
        }
      ],
      "name": "UnregisteredOracleFulfillment",
      "type": "error"
    },
    {
      "anonymous": false,
      "inputs": [
        {
          "indexed": false,
          "internalType": "uint32",
          "name": "maxGasLimit",
          "type": "uint32"
        },
        {
          "indexed": false,
          "internalType": "uint32",
          "name": "gasAfterPaymentCalculation",
          "type": "uint32"
        }
      ],
      "name": "ConfigSet",
      "type": "event"
    },
    {
      "anonymous": false,
      "inputs": [
        {
          "indexed": true,
          "internalType": "uint256",
          "name": "requestId",
          "type": "uint256"
        },
        {
          "indexed": false,
          "internalType": "bytes",
          "name": "response",
          "type": "bytes"
        },
        {
          "indexed": false,
          "internalType": "bool",
          "name": "success",
          "type": "bool"
        }
      ],
      "name": "DataRequestFulfilled",
      "type": "event"
    },
    {
      "anonymous": false,
      "inputs": [
        {
          "indexed": true,
          "internalType": "uint256",
          "name": "requestId",
          "type": "uint256"
        },
        {
          "indexed": false,
          "internalType": "bool",
          "name": "response",
          "type": "bool"
        },
        {
          "indexed": false,
          "internalType": "bool",
          "name": "success",
          "type": "bool"
        }
      ],
      "name": "DataRequestFulfilledBool",
      "type": "event"
    },
    {
      "anonymous": false,
      "inputs": [
        {
          "indexed": true,
          "internalType": "uint256",
          "name": "requestId",
          "type": "uint256"
        },
        {
          "indexed": false,
          "internalType": "bytes",
          "name": "response",
          "type": "bytes"
        },
        {
          "indexed": false,
          "internalType": "bool",
          "name": "success",
          "type": "bool"
        }
      ],
      "name": "DataRequestFulfilledBytes",
      "type": "event"
    },
    {
      "anonymous": false,
      "inputs": [
        {
          "indexed": true,
          "internalType": "uint256",
          "name": "requestId",
          "type": "uint256"
        },
        {
          "indexed": false,
          "internalType": "bytes32",
          "name": "response",
          "type": "bytes32"
        },
        {
          "indexed": false,
          "internalType": "bool",
          "name": "success",
          "type": "bool"
        }
      ],
      "name": "DataRequestFulfilledBytes32",
      "type": "event"
    },
    {
      "anonymous": false,
      "inputs": [
        {
          "indexed": true,
          "internalType": "uint256",
          "name": "requestId",
          "type": "uint256"
        },
        {
          "components": [
            {
              "internalType": "string",
              "name": "name",
              "type": "string"
            },
            {
              "internalType": "bool",
              "name": "response",
              "type": "bool"
            }
          ],
          "indexed": false,
          "internalType": "struct IADCSCoordinatorBase.StringAndBool",
          "name": "response",
          "type": "tuple"
        },
        {
          "indexed": false,
          "internalType": "bool",
          "name": "success",
          "type": "bool"
        }
      ],
      "name": "DataRequestFulfilledStringAndBool",
      "type": "event"
    },
    {
      "anonymous": false,
      "inputs": [
        {
          "indexed": true,
          "internalType": "uint256",
          "name": "requestId",
          "type": "uint256"
        },
        {
          "indexed": false,
          "internalType": "uint256",
          "name": "response",
          "type": "uint256"
        },
        {
          "indexed": false,
          "internalType": "bool",
          "name": "success",
          "type": "bool"
        }
      ],
      "name": "DataRequestFulfilledUint256",
      "type": "event"
    },
    {
      "anonymous": false,
      "inputs": [
        {
          "indexed": true,
          "internalType": "uint256",
          "name": "requestId",
          "type": "uint256"
        },
        {
          "indexed": false,
          "internalType": "uint32",
          "name": "callbackGasLimit",
          "type": "uint32"
        },
        {
          "indexed": true,
          "internalType": "address",
          "name": "sender",
          "type": "address"
        },
        {
          "indexed": false,
          "internalType": "bytes32",
          "name": "jobId",
          "type": "bytes32"
        },
        {
          "indexed": false,
          "internalType": "uint256",
          "name": "blockNumber",
          "type": "uint256"
        },
        {
          "indexed": false,
          "internalType": "bytes",
          "name": "data",
          "type": "bytes"
        }
      ],
      "name": "DataRequested",
      "type": "event"
    },
    {
      "anonymous": false,
      "inputs": [
        {
          "indexed": false,
          "internalType": "address",
          "name": "oracle",
          "type": "address"
        },
        {
          "indexed": false,
          "internalType": "uint256",
          "name": "requestId",
          "type": "uint256"
        }
      ],
      "name": "DataSubmitted",
      "type": "event"
    },
    {
      "anonymous": false,
      "inputs": [
        {
          "indexed": false,
          "internalType": "address",
          "name": "oracle",
          "type": "address"
        }
      ],
      "name": "OracleDeregistered",
      "type": "event"
    },
    {
      "anonymous": false,
      "inputs": [
        {
          "indexed": false,
          "internalType": "address",
          "name": "oracle",
          "type": "address"
        }
      ],
      "name": "OracleRegistered",
      "type": "event"
    },
    {
      "anonymous": false,
      "inputs": [
        {
          "indexed": true,
          "internalType": "address",
          "name": "previousOwner",
          "type": "address"
        },
        {
          "indexed": true,
          "internalType": "address",
          "name": "newOwner",
          "type": "address"
        }
      ],
      "name": "OwnershipTransferred",
      "type": "event"
    },
    {
      "anonymous": false,
      "inputs": [
        {
          "indexed": false,
          "internalType": "address",
          "name": "prepayment",
          "type": "address"
        }
      ],
      "name": "PrepaymentSet",
      "type": "event"
    },
    {
      "anonymous": false,
      "inputs": [
        {
          "indexed": true,
          "internalType": "uint256",
          "name": "requestId",
          "type": "uint256"
        }
      ],
      "name": "RequestCanceled",
      "type": "event"
    },
    {
      "inputs": [],
      "name": "MAX_ORACLES",
      "outputs": [
        {
          "internalType": "uint8",
          "name": "",
          "type": "uint8"
        }
      ],
      "stateMutability": "view",
      "type": "function"
    },
    {
      "inputs": [
        {
          "internalType": "uint256",
          "name": "requestId",
          "type": "uint256"
        }
      ],
      "name": "cancelRequest",
      "outputs": [],
      "stateMutability": "nonpayable",
      "type": "function"
    },
    {
      "inputs": [
        {
          "internalType": "address",
          "name": "oracle",
          "type": "address"
        }
      ],
      "name": "deregisterOracle",
      "outputs": [],
      "stateMutability": "nonpayable",
      "type": "function"
    },
    {
      "inputs": [
        {
          "internalType": "uint256",
          "name": "requestId",
          "type": "uint256"
        },
        {
          "internalType": "bool",
          "name": "response",
          "type": "bool"
        },
        {
          "components": [
            {
              "internalType": "uint64",
              "name": "blockNum",
              "type": "uint64"
            },
            {
              "internalType": "uint32",
              "name": "callbackGasLimit",
              "type": "uint32"
            },
            {
              "internalType": "address",
              "name": "sender",
              "type": "address"
            },
            {
              "internalType": "bytes32",
              "name": "jobId",
              "type": "bytes32"
            }
          ],
          "internalType": "struct IADCSCoordinatorBase.RequestCommitment",
          "name": "rc",
          "type": "tuple"
        }
      ],
      "name": "fulfillDataRequestBool",
      "outputs": [],
      "stateMutability": "nonpayable",
      "type": "function"
    },
    {
      "inputs": [
        {
          "internalType": "uint256",
          "name": "requestId",
          "type": "uint256"
        },
        {
          "internalType": "bytes",
          "name": "response",
          "type": "bytes"
        },
        {
          "components": [
            {
              "internalType": "uint64",
              "name": "blockNum",
              "type": "uint64"
            },
            {
              "internalType": "uint32",
              "name": "callbackGasLimit",
              "type": "uint32"
            },
            {
              "internalType": "address",
              "name": "sender",
              "type": "address"
            },
            {
              "internalType": "bytes32",
              "name": "jobId",
              "type": "bytes32"
            }
          ],
          "internalType": "struct IADCSCoordinatorBase.RequestCommitment",
          "name": "rc",
          "type": "tuple"
        }
      ],
      "name": "fulfillDataRequestBytes",
      "outputs": [],
      "stateMutability": "nonpayable",
      "type": "function"
    },
    {
      "inputs": [
        {
          "internalType": "uint256",
          "name": "requestId",
          "type": "uint256"
        },
        {
          "internalType": "bytes32",
          "name": "response",
          "type": "bytes32"
        },
        {
          "components": [
            {
              "internalType": "uint64",
              "name": "blockNum",
              "type": "uint64"
            },
            {
              "internalType": "uint32",
              "name": "callbackGasLimit",
              "type": "uint32"
            },
            {
              "internalType": "address",
              "name": "sender",
              "type": "address"
            },
            {
              "internalType": "bytes32",
              "name": "jobId",
              "type": "bytes32"
            }
          ],
          "internalType": "struct IADCSCoordinatorBase.RequestCommitment",
          "name": "rc",
          "type": "tuple"
        }
      ],
      "name": "fulfillDataRequestBytes32",
      "outputs": [],
      "stateMutability": "nonpayable",
      "type": "function"
    },
    {
      "inputs": [
        {
          "internalType": "uint256",
          "name": "requestId",
          "type": "uint256"
        },
        {
          "components": [
            {
              "internalType": "string",
              "name": "name",
              "type": "string"
            },
            {
              "internalType": "bool",
              "name": "response",
              "type": "bool"
            }
          ],
          "internalType": "struct IADCSCoordinatorBase.StringAndBool",
          "name": "response",
          "type": "tuple"
        },
        {
          "components": [
            {
              "internalType": "uint64",
              "name": "blockNum",
              "type": "uint64"
            },
            {
              "internalType": "uint32",
              "name": "callbackGasLimit",
              "type": "uint32"
            },
            {
              "internalType": "address",
              "name": "sender",
              "type": "address"
            },
            {
              "internalType": "bytes32",
              "name": "jobId",
              "type": "bytes32"
            }
          ],
          "internalType": "struct IADCSCoordinatorBase.RequestCommitment",
          "name": "rc",
          "type": "tuple"
        }
      ],
      "name": "fulfillDataRequestStringAndBool",
      "outputs": [],
      "stateMutability": "nonpayable",
      "type": "function"
    },
    {
      "inputs": [
        {
          "internalType": "uint256",
          "name": "requestId",
          "type": "uint256"
        },
        {
          "internalType": "uint256",
          "name": "response",
          "type": "uint256"
        },
        {
          "components": [
            {
              "internalType": "uint64",
              "name": "blockNum",
              "type": "uint64"
            },
            {
              "internalType": "uint32",
              "name": "callbackGasLimit",
              "type": "uint32"
            },
            {
              "internalType": "address",
              "name": "sender",
              "type": "address"
            },
            {
              "internalType": "bytes32",
              "name": "jobId",
              "type": "bytes32"
            }
          ],
          "internalType": "struct IADCSCoordinatorBase.RequestCommitment",
          "name": "rc",
          "type": "tuple"
        }
      ],
      "name": "fulfillDataRequestUint256",
      "outputs": [],
      "stateMutability": "nonpayable",
      "type": "function"
    },
    {
      "inputs": [
        {
          "internalType": "uint256",
          "name": "requestId",
          "type": "uint256"
        }
      ],
      "name": "getCommitment",
      "outputs": [
        {
          "internalType": "bytes32",
          "name": "",
          "type": "bytes32"
        }
      ],
      "stateMutability": "view",
      "type": "function"
    },
    {
      "inputs": [],
      "name": "getConfig",
      "outputs": [
        {
          "internalType": "uint32",
          "name": "maxGasLimit",
          "type": "uint32"
        },
        {
          "internalType": "uint32",
          "name": "gasAfterPaymentCalculation",
          "type": "uint32"
        }
      ],
      "stateMutability": "view",
      "type": "function"
    },
    {
      "inputs": [
        {
          "internalType": "address",
          "name": "oracle",
          "type": "address"
        }
      ],
      "name": "isOracleRegistered",
      "outputs": [
        {
          "internalType": "bool",
          "name": "",
          "type": "bool"
        }
      ],
      "stateMutability": "view",
      "type": "function"
    },
    {
      "inputs": [],
      "name": "owner",
      "outputs": [
        {
          "internalType": "address",
          "name": "",
          "type": "address"
        }
      ],
      "stateMutability": "view",
      "type": "function"
    },
    {
      "inputs": [
        {
          "internalType": "address",
          "name": "consumer",
          "type": "address"
        },
        {
          "internalType": "uint64",
          "name": "nonce",
          "type": "uint64"
        }
      ],
      "name": "pendingRequestExists",
      "outputs": [
        {
          "internalType": "bool",
          "name": "",
          "type": "bool"
        }
      ],
      "stateMutability": "view",
      "type": "function"
    },
    {
      "inputs": [
        {
          "internalType": "address",
          "name": "oracle",
          "type": "address"
        }
      ],
      "name": "registerOracle",
      "outputs": [],
      "stateMutability": "nonpayable",
      "type": "function"
    },
    {
      "inputs": [],
      "name": "renounceOwnership",
      "outputs": [],
      "stateMutability": "nonpayable",
      "type": "function"
    },
    {
      "inputs": [
        {
          "internalType": "uint32",
          "name": "callbackGasLimit",
          "type": "uint32"
        },
        {
          "components": [
            {
              "internalType": "bytes32",
              "name": "id",
              "type": "bytes32"
            },
            {
              "internalType": "address",
              "name": "callbackAddr",
              "type": "address"
            },
            {
              "internalType": "bytes4",
              "name": "callbackFunc",
              "type": "bytes4"
            },
            {
              "internalType": "uint256",
              "name": "nonce",
              "type": "uint256"
            },
            {
              "components": [
                {
                  "internalType": "bytes",
                  "name": "buf",
                  "type": "bytes"
                },
                {
                  "internalType": "uint256",
                  "name": "capacity",
                  "type": "uint256"
                }
              ],
              "internalType": "struct Buffer.buffer",
              "name": "buf",
              "type": "tuple"
            }
          ],
          "internalType": "struct ADCS.Request",
          "name": "req",
          "type": "tuple"
        }
      ],
      "name": "requestData",
      "outputs": [
        {
          "internalType": "uint256",
          "name": "",
          "type": "uint256"
        }
      ],
      "stateMutability": "nonpayable",
      "type": "function"
    },
    {
      "inputs": [
        {
          "internalType": "uint256",
          "name": "",
          "type": "uint256"
        }
      ],
      "name": "sOracles",
      "outputs": [
        {
          "internalType": "address",
          "name": "",
          "type": "address"
        }
      ],
      "stateMutability": "view",
      "type": "function"
    },
    {
      "inputs": [
        {
          "internalType": "uint32",
          "name": "maxGasLimit",
          "type": "uint32"
        },
        {
          "internalType": "uint32",
          "name": "gasAfterPaymentCalculation",
          "type": "uint32"
        }
      ],
      "name": "setConfig",
      "outputs": [],
      "stateMutability": "nonpayable",
      "type": "function"
    },
    {
      "inputs": [
        {
          "internalType": "address",
          "name": "newOwner",
          "type": "address"
        }
      ],
      "name": "transferOwnership",
      "outputs": [],
      "stateMutability": "nonpayable",
      "type": "function"
    },
    {
      "inputs": [],
      "name": "typeAndVersion",
      "outputs": [
        {
          "internalType": "string",
          "name": "",
          "type": "string"
        }
      ],
      "stateMutability": "pure",
      "type": "function"
    }
  ],
  "transactionHash": "0x8a0b785030c93757cf37ee3b427651b098f2fcf3777284ec56b7d421fc90bdb3",
  "args": [],
  "numDeployments": 2,
  "solcInputHash": "563bf6757e584e1bcdc5088efa5fdbc4",
  "bytecode": "0x60806040523480156200001157600080fd5b5062000022620000af60201b60201c565b600073ffffffffffffffffffffffffffffffffffffffff168173ffffffffffffffffffffffffffffffffffffffff1603620000975760006040517f1e4fbdf70000000000000000000000000000000000000000000000000000000081526004016200008e9190620001c0565b60405180910390fd5b620000a881620000b760201b60201c565b50620001dd565b600033905090565b60008060009054906101000a900473ffffffffffffffffffffffffffffffffffffffff169050816000806101000a81548173ffffffffffffffffffffffffffffffffffffffff021916908373ffffffffffffffffffffffffffffffffffffffff1602179055508173ffffffffffffffffffffffffffffffffffffffff168173ffffffffffffffffffffffffffffffffffffffff167f8be0079c531659141344cd1fd0a4f28419497f9722a3daafe3b4186f6b6457e060405160405180910390a35050565b600073ffffffffffffffffffffffffffffffffffffffff82169050919050565b6000620001a8826200017b565b9050919050565b620001ba816200019b565b82525050565b6000602082019050620001d76000830184620001af565b92915050565b612ed280620001ed6000396000f3fe608060405234801561001057600080fd5b506004361061012c5760003560e01c8063a4e92aa7116100ad578063d98196b311610071578063d98196b31461031c578063de89dd531461034c578063e9babaec14610368578063f2fde38b14610384578063f8795e10146103a05761012c565b8063a4e92aa714610263578063b9b55c9a14610293578063ba9ecc97146102c3578063bfedbfa0146102df578063c3f909d4146102fd5761012c565b80636ccec818116100f45780636ccec818146101d3578063715018a6146101ef57806378cb441f146101f95780638da5cb5b146102295780638df4e3e2146102475761012c565b806313ab866314610131578063181f5a771461014d5780633015394c1461016b57806364d98f361461018757806369bcdb7d146101a3575b600080fd5b61014b6004803603810190610146919061215c565b6103bc565b005b610155610584565b604051610162919061222e565b60405180910390f35b61018560048036038101906101809190612250565b6105c1565b005b6101a1600480360381019061019c9190612337565b610715565b005b6101bd60048036038101906101b89190612250565b6108dd565b6040516101ca91906123b5565b60405180910390f35b6101ed60048036038101906101e891906123d0565b6108fa565b005b6101f76109dc565b005b610213600480360381019061020e919061257c565b6109f0565b60405161022091906125e7565b60405180910390f35b610231610b76565b60405161023e9190612611565b60405180910390f35b610261600480360381019061025c919061262c565b610b9f565b005b61027d60048036038101906102789190612659565b610e4f565b60405161028a91906126b4565b60405180910390f35b6102ad60048036038101906102a8919061262c565b610eac565b6040516102ba91906126b4565b60405180910390f35b6102dd60048036038101906102d891906126cf565b610f02565b005b6102e7611114565b6040516102f4919061273e565b60405180910390f35b610305611119565b604051610313929190612768565b60405180910390f35b61033660048036038101906103319190612250565b611150565b6040516103439190612611565b60405180910390f35b610366600480360381019061036191906128ca565b61118f565b005b610382600480360381019061037d919061262c565b611357565b005b61039e6004803603810190610399919061262c565b611524565b005b6103ba60048036038101906103b59190612939565b6115aa565b005b6103c68184611772565b60016005600085815260200190815260200160002060010160003373ffffffffffffffffffffffffffffffffffffffff1673ffffffffffffffffffffffffffffffffffffffff16815260200190815260200160002060006101000a81548160ff021916908315150217905550600060056000858152602001908152602001600020600001905080339080600181540180825580915050600190039060005260206000200160009091909190916101000a81548173ffffffffffffffffffffffffffffffffffffffff021916908373ffffffffffffffffffffffffffffffffffffffff160217905550600063f40b4def60e01b85856040516024016104cb92919061298c565b604051602081830303815290604052907bffffffffffffffffffffffffffffffffffffffffffffffffffffffff19166020820180517bffffffffffffffffffffffffffffffffffffffffffffffffffffffff8381831617835250505050905060006105368285611950565b9050610541866119b5565b50857f68ab2090cae4446c41a4252a58251ac07f2ac3277747f0f2431ce7d80fdb643786836040516105749291906129b5565b60405180910390a2505050505050565b60606040518060400160405280601481526020017f41444353436f6f7264696e61746f722076302e31000000000000000000000000815250905090565b6105ca81611b73565b610600576040517f3688124a00000000000000000000000000000000000000000000000000000000815260040160405180910390fd5b3373ffffffffffffffffffffffffffffffffffffffff166003600083815260200190815260200160002060009054906101000a900473ffffffffffffffffffffffffffffffffffffffff1673ffffffffffffffffffffffffffffffffffffffff1614610698576040517f517907dd00000000000000000000000000000000000000000000000000000000815260040160405180910390fd5b60026000828152602001908152602001600020600090556003600082815260200190815260200160002060006101000a81549073ffffffffffffffffffffffffffffffffffffffff0219169055807f6187bf55f2675dbecee951f81c92ecac87f54ed5bf888d31b09e634749b848ef60405160405180910390a250565b61071f8184611772565b60016005600085815260200190815260200160002060010160003373ffffffffffffffffffffffffffffffffffffffff1673ffffffffffffffffffffffffffffffffffffffff16815260200190815260200160002060006101000a81548160ff021916908315150217905550600060056000858152602001908152602001600020600001905080339080600181540180825580915050600190039060005260206000200160009091909190916101000a81548173ffffffffffffffffffffffffffffffffffffffff021916908373ffffffffffffffffffffffffffffffffffffffff16021790555060006319e2cd2f60e01b8585604051602401610824929190612a33565b604051602081830303815290604052907bffffffffffffffffffffffffffffffffffffffffffffffffffffffff19166020820180517bffffffffffffffffffffffffffffffffffffffffffffffffffffffff83818316178352505050509050600061088f8285611950565b905061089a866119b5565b50857fb6727cffbd4cbe4365522df08e3a8fbcf75662b5e1c5ffb1db39c936250abf7786836040516108cd929190612a63565b60405180910390a2505050505050565b600060026000838152602001908152602001600020549050919050565b610902611ba5565b60405180606001604052808363ffffffff1681526020016000151581526020018263ffffffff16815250600460008201518160000160006101000a81548163ffffffff021916908363ffffffff16021790555060208201518160000160046101000a81548160ff02191690831515021790555060408201518160000160056101000a81548163ffffffff021916908363ffffffff1602179055509050507ff264aae70bf6a9d90e68e0f9b393f4e7fbea67b063b0f336e0b36c158170365182826040516109d0929190612768565b60405180910390a15050565b6109e4611ba5565b6109ee6000611c2c565b565b6000600460000160009054906101000a900463ffffffff1663ffffffff168363ffffffff161115610a6f5782600460000160009054906101000a900463ffffffff166040517ff5d7e01e000000000000000000000000000000000000000000000000000000008152600401610a66929190612768565b60405180910390fd5b6000610a7a33611cf0565b90506000610a883383611dc4565b90506000439050610aa0828288338960000151611dfa565b6002600084815260200190815260200160002081905550336003600084815260200190815260200160002060006101000a81548173ffffffffffffffffffffffffffffffffffffffff021916908373ffffffffffffffffffffffffffffffffffffffff1602179055503373ffffffffffffffffffffffffffffffffffffffff16827f3f8d486ff859ee47dadad065db3de85176c9f4ec6e3187450f1c592d4a94ef62888860000151858a6080015160000151604051610b629493929190612a93565b60405180910390a381935050505092915050565b60008060009054906101000a900473ffffffffffffffffffffffffffffffffffffffff16905090565b610ba7611ba5565b600660008273ffffffffffffffffffffffffffffffffffffffff1673ffffffffffffffffffffffffffffffffffffffff16815260200190815260200160002060009054906101000a900460ff16610c3557806040517ff9a0ffdf000000000000000000000000000000000000000000000000000000008152600401610c2c9190612611565b60405180910390fd5b600660008273ffffffffffffffffffffffffffffffffffffffff1673ffffffffffffffffffffffffffffffffffffffff16815260200190815260200160002060006101000a81549060ff02191690556000600180549050905060005b81811015610e13578273ffffffffffffffffffffffffffffffffffffffff1660018281548110610cc457610cc3612adf565b5b9060005260206000200160009054906101000a900473ffffffffffffffffffffffffffffffffffffffff1673ffffffffffffffffffffffffffffffffffffffff1603610e0257600060018084610d1a9190612b3d565b81548110610d2b57610d2a612adf565b5b9060005260206000200160009054906101000a900473ffffffffffffffffffffffffffffffffffffffff1690508060018381548110610d6d57610d6c612adf565b5b9060005260206000200160006101000a81548173ffffffffffffffffffffffffffffffffffffffff021916908373ffffffffffffffffffffffffffffffffffffffff1602179055506001805480610dc757610dc6612b71565b5b6001900381819060005260206000200160006101000a81549073ffffffffffffffffffffffffffffffffffffffff0219169055905550610e13565b80610e0c90612ba0565b9050610c91565b507f5406c1f2d9ece2027a923f317fb5f2370221e330db898c037c10acc0c20495b382604051610e439190612611565b60405180910390a15050565b600080600180549050905060005b81811015610e9f576000610e718686611dc4565b9050610e7c81611b73565b15610e8d5760019350505050610ea6565b5080610e9890612ba0565b9050610e5d565b5060009150505b92915050565b6000600660008373ffffffffffffffffffffffffffffffffffffffff1673ffffffffffffffffffffffffffffffffffffffff16815260200190815260200160002060009054906101000a900460ff169050919050565b600460000160049054906101000a900460ff1615610f4c576040517fed3ba6a600000000000000000000000000000000000000000000000000000000815260040160405180910390fd5b610f568184611772565b60016005600085815260200190815260200160002060010160003373ffffffffffffffffffffffffffffffffffffffff1673ffffffffffffffffffffffffffffffffffffffff16815260200190815260200160002060006101000a81548160ff021916908315150217905550600060056000858152602001908152602001600020600001905080339080600181540180825580915050600190039060005260206000200160009091909190916101000a81548173ffffffffffffffffffffffffffffffffffffffff021916908373ffffffffffffffffffffffffffffffffffffffff16021790555060006377f262ea60e01b858560405160240161105b929190612be8565b604051602081830303815290604052907bffffffffffffffffffffffffffffffffffffffffffffffffffffffff19166020820180517bffffffffffffffffffffffffffffffffffffffffffffffffffffffff8381831617835250505050905060006110c68285611950565b90506110d1866119b5565b50857fc321dd2edb70648970d947727983978c1fb4f15aef68acb1663c00d7f105a7558683604051611104929190612c11565b60405180910390a2505050505050565b60ff81565b600080600460000160009054906101000a900463ffffffff16600460000160059054906101000a900463ffffffff16915091509091565b6001818154811061116057600080fd5b906000526020600020016000915054906101000a900473ffffffffffffffffffffffffffffffffffffffff1681565b6111998184611772565b60016005600085815260200190815260200160002060010160003373ffffffffffffffffffffffffffffffffffffffff1673ffffffffffffffffffffffffffffffffffffffff16815260200190815260200160002060006101000a81548160ff021916908315150217905550600060056000858152602001908152602001600020600001905080339080600181540180825580915050600190039060005260206000200160009091909190916101000a81548173ffffffffffffffffffffffffffffffffffffffff021916908373ffffffffffffffffffffffffffffffffffffffff1602179055506000630e2c871f60e01b858560405160240161129e929190612cd0565b604051602081830303815290604052907bffffffffffffffffffffffffffffffffffffffffffffffffffffffff19166020820180517bffffffffffffffffffffffffffffffffffffffffffffffffffffffff8381831617835250505050905060006113098285611950565b9050611314866119b5565b50857fe20c9d2af5010a05cb2c250f3fd7d56b813d69e8e8a129edca6267cdd7f2eb038683604051611347929190612d00565b60405180910390a2505050505050565b61135f611ba5565b60ff8016600180549050106113a0576040517f25d0209c00000000000000000000000000000000000000000000000000000000815260040160405180910390fd5b600660008273ffffffffffffffffffffffffffffffffffffffff1673ffffffffffffffffffffffffffffffffffffffff16815260200190815260200160002060009054906101000a900460ff161561142f57806040517f6ff7406a0000000000000000000000000000000000000000000000000000000081526004016114269190612611565b60405180910390fd5b6001819080600181540180825580915050600190039060005260206000200160009091909190916101000a81548173ffffffffffffffffffffffffffffffffffffffff021916908373ffffffffffffffffffffffffffffffffffffffff1602179055506001600660008373ffffffffffffffffffffffffffffffffffffffff1673ffffffffffffffffffffffffffffffffffffffff16815260200190815260200160002060006101000a81548160ff0219169083151502179055507fd9d9fdcc9f936c76b5aafe54fc3db5dcec0c6583c9ccc4abe91d17575c5145a5816040516115199190612611565b60405180910390a150565b61152c611ba5565b600073ffffffffffffffffffffffffffffffffffffffff168173ffffffffffffffffffffffffffffffffffffffff160361159e5760006040517f1e4fbdf70000000000000000000000000000000000000000000000000000000081526004016115959190612611565b60405180910390fd5b6115a781611c2c565b50565b6115b48184611772565b60016005600085815260200190815260200160002060010160003373ffffffffffffffffffffffffffffffffffffffff1673ffffffffffffffffffffffffffffffffffffffff16815260200190815260200160002060006101000a81548160ff021916908315150217905550600060056000858152602001908152602001600020600001905080339080600181540180825580915050600190039060005260206000200160009091909190916101000a81548173ffffffffffffffffffffffffffffffffffffffff021916908373ffffffffffffffffffffffffffffffffffffffff16021790555060006390d95efc60e01b85856040516024016116b9929190612c11565b604051602081830303815290604052907bffffffffffffffffffffffffffffffffffffffffffffffffffffffff19166020820180517bffffffffffffffffffffffffffffffffffffffffffffffffffffffff8381831617835250505050905060006117248285611950565b905061172f866119b5565b50857f1642c1857f43a2e6a38067a7503bdbff46b114bdedb9684838fef1a2e830fbc18683604051611762929190612d30565b60405180910390a2505050505050565b600660003373ffffffffffffffffffffffffffffffffffffffff1673ffffffffffffffffffffffffffffffffffffffff16815260200190815260200160002060009054906101000a900460ff1661180057336040517fd6c337480000000000000000000000000000000000000000000000000000000081526004016117f79190612611565b60405180910390fd5b6005600082815260200190815260200160002060010160003373ffffffffffffffffffffffffffffffffffffffff1673ffffffffffffffffffffffffffffffffffffffff16815260200190815260200160002060009054906101000a900460ff1615611898576040517f9f17b6ef00000000000000000000000000000000000000000000000000000000815260040160405180910390fd5b6000600260008381526020019081526020016000205490506000801b81036118ec576040517f3688124a00000000000000000000000000000000000000000000000000000000815260040160405180910390fd5b61191382846000015167ffffffffffffffff16856020015186604001518760600151611dfa565b811461194b576040517fd529142c00000000000000000000000000000000000000000000000000000000815260040160405180910390fd5b505050565b60006001600460000160046101000a81548160ff021916908315150217905550600061198b836020015163ffffffff16846040015186611e36565b90506000600460000160046101000a81548160ff0219169083151502179055508091505092915050565b6060600060056000848152602001908152602001600020600001805480602002602001604051908101604052809291908181526020018280548015611a4f57602002820191906000526020600020905b8160009054906101000a900473ffffffffffffffffffffffffffffffffffffffff1673ffffffffffffffffffffffffffffffffffffffff1681526020019060010190808311611a05575b5050505050905060005b81518160ff161015611af657600560008581526020019081526020016000206001016000838360ff1681518110611a9357611a92612adf565b5b602002602001015173ffffffffffffffffffffffffffffffffffffffff1673ffffffffffffffffffffffffffffffffffffffff16815260200190815260200160002060006101000a81549060ff021916905580611aef90612d59565b9050611a59565b506005600084815260200190815260200160002060008082016000611b1b9190611eb6565b505060026000848152602001908152602001600020600090556003600084815260200190815260200160002060006101000a81549073ffffffffffffffffffffffffffffffffffffffff021916905580915050919050565b60008060001b600260008481526020019081526020016000205414611b9b5760019050611ba0565b600090505b919050565b611bad611eae565b73ffffffffffffffffffffffffffffffffffffffff16611bcb610b76565b73ffffffffffffffffffffffffffffffffffffffff1614611c2a57611bee611eae565b6040517f118cdaa7000000000000000000000000000000000000000000000000000000008152600401611c219190612611565b60405180910390fd5b565b60008060009054906101000a900473ffffffffffffffffffffffffffffffffffffffff169050816000806101000a81548173ffffffffffffffffffffffffffffffffffffffff021916908373ffffffffffffffffffffffffffffffffffffffff1602179055508173ffffffffffffffffffffffffffffffffffffffff168173ffffffffffffffffffffffffffffffffffffffff167f8be0079c531659141344cd1fd0a4f28419497f9722a3daafe3b4186f6b6457e060405160405180910390a35050565b6000806001600760008573ffffffffffffffffffffffffffffffffffffffff1673ffffffffffffffffffffffffffffffffffffffff16815260200190815260200160002060009054906101000a900467ffffffffffffffff16611d539190612d82565b905080600760008573ffffffffffffffffffffffffffffffffffffffff1673ffffffffffffffffffffffffffffffffffffffff16815260200190815260200160002060006101000a81548167ffffffffffffffff021916908367ffffffffffffffff16021790555080915050919050565b60008282604051602001611dd9929190612dcd565b6040516020818303038152906040528051906020012060001c905092915050565b60008585858585604051602001611e15959493929190612df6565b60405160208183030381529060405280519060200120905095945050505050565b60008273ffffffffffffffffffffffffffffffffffffffff168483604051611e5e9190612e85565b60006040518083038160008787f1925050503d8060008114611e9c576040519150601f19603f3d011682016040523d82523d6000602084013e611ea1565b606091505b5050809150509392505050565b600033905090565b5080546000825590600052602060002090810190611ed49190611ed7565b50565b5b80821115611ef0576000816000905550600101611ed8565b5090565b6000604051905090565b600080fd5b600080fd5b6000819050919050565b611f1b81611f08565b8114611f2657600080fd5b50565b600081359050611f3881611f12565b92915050565b6000819050919050565b611f5181611f3e565b8114611f5c57600080fd5b50565b600081359050611f6e81611f48565b92915050565b600080fd5b6000601f19601f8301169050919050565b7f4e487b7100000000000000000000000000000000000000000000000000000000600052604160045260246000fd5b611fc282611f79565b810181811067ffffffffffffffff82111715611fe157611fe0611f8a565b5b80604052505050565b6000611ff4611ef4565b90506120008282611fb9565b919050565b600080fd5b600067ffffffffffffffff82169050919050565b6120278161200a565b811461203257600080fd5b50565b6000813590506120448161201e565b92915050565b600063ffffffff82169050919050565b6120638161204a565b811461206e57600080fd5b50565b6000813590506120808161205a565b92915050565b600073ffffffffffffffffffffffffffffffffffffffff82169050919050565b60006120b182612086565b9050919050565b6120c1816120a6565b81146120cc57600080fd5b50565b6000813590506120de816120b8565b92915050565b6000608082840312156120fa576120f9611f74565b5b6121046080611fea565b9050600061211484828501612035565b600083015250602061212884828501612071565b602083015250604061213c848285016120cf565b604083015250606061215084828501611f5f565b60608301525092915050565b600080600060c0848603121561217557612174611efe565b5b600061218386828701611f29565b935050602061219486828701611f5f565b92505060406121a5868287016120e4565b9150509250925092565b600081519050919050565b600082825260208201905092915050565b60005b838110156121e95780820151818401526020810190506121ce565b60008484015250505050565b6000612200826121af565b61220a81856121ba565b935061221a8185602086016121cb565b61222381611f79565b840191505092915050565b6000602082019050818103600083015261224881846121f5565b905092915050565b60006020828403121561226657612265611efe565b5b600061227484828501611f29565b91505092915050565b600080fd5b600080fd5b600067ffffffffffffffff8211156122a2576122a1611f8a565b5b6122ab82611f79565b9050602081019050919050565b82818337600083830152505050565b60006122da6122d584612287565b611fea565b9050828152602081018484840111156122f6576122f5612282565b5b6123018482856122b8565b509392505050565b600082601f83011261231e5761231d61227d565b5b813561232e8482602086016122c7565b91505092915050565b600080600060c084860312156123505761234f611efe565b5b600061235e86828701611f29565b935050602084013567ffffffffffffffff81111561237f5761237e611f03565b5b61238b86828701612309565b925050604061239c868287016120e4565b9150509250925092565b6123af81611f3e565b82525050565b60006020820190506123ca60008301846123a6565b92915050565b600080604083850312156123e7576123e6611efe565b5b60006123f585828601612071565b925050602061240685828601612071565b9150509250929050565b60007fffffffff0000000000000000000000000000000000000000000000000000000082169050919050565b61244581612410565b811461245057600080fd5b50565b6000813590506124628161243c565b92915050565b60006040828403121561247e5761247d611f74565b5b6124886040611fea565b9050600082013567ffffffffffffffff8111156124a8576124a7612005565b5b6124b484828501612309565b60008301525060206124c884828501611f29565b60208301525092915050565b600060a082840312156124ea576124e9611f74565b5b6124f460a0611fea565b9050600061250484828501611f5f565b6000830152506020612518848285016120cf565b602083015250604061252c84828501612453565b604083015250606061254084828501611f29565b606083015250608082013567ffffffffffffffff81111561256457612563612005565b5b61257084828501612468565b60808301525092915050565b6000806040838503121561259357612592611efe565b5b60006125a185828601612071565b925050602083013567ffffffffffffffff8111156125c2576125c1611f03565b5b6125ce858286016124d4565b9150509250929050565b6125e181611f08565b82525050565b60006020820190506125fc60008301846125d8565b92915050565b61260b816120a6565b82525050565b60006020820190506126266000830184612602565b92915050565b60006020828403121561264257612641611efe565b5b6000612650848285016120cf565b91505092915050565b600080604083850312156126705761266f611efe565b5b600061267e858286016120cf565b925050602061268f85828601612035565b9150509250929050565b60008115159050919050565b6126ae81612699565b82525050565b60006020820190506126c960008301846126a5565b92915050565b600080600060c084860312156126e8576126e7611efe565b5b60006126f686828701611f29565b935050602061270786828701611f29565b9250506040612718868287016120e4565b9150509250925092565b600060ff82169050919050565b61273881612722565b82525050565b6000602082019050612753600083018461272f565b92915050565b6127628161204a565b82525050565b600060408201905061277d6000830185612759565b61278a6020830184612759565b9392505050565b600067ffffffffffffffff8211156127ac576127ab611f8a565b5b6127b582611f79565b9050602081019050919050565b60006127d56127d084612791565b611fea565b9050828152602081018484840111156127f1576127f0612282565b5b6127fc8482856122b8565b509392505050565b600082601f8301126128195761281861227d565b5b81356128298482602086016127c2565b91505092915050565b61283b81612699565b811461284657600080fd5b50565b60008135905061285881612832565b92915050565b60006040828403121561287457612873611f74565b5b61287e6040611fea565b9050600082013567ffffffffffffffff81111561289e5761289d612005565b5b6128aa84828501612804565b60008301525060206128be84828501612849565b60208301525092915050565b600080600060c084860312156128e3576128e2611efe565b5b60006128f186828701611f29565b935050602084013567ffffffffffffffff81111561291257612911611f03565b5b61291e8682870161285e565b925050604061292f868287016120e4565b9150509250925092565b600080600060c0848603121561295257612951611efe565b5b600061296086828701611f29565b935050602061297186828701612849565b9250506040612982868287016120e4565b9150509250925092565b60006040820190506129a160008301856125d8565b6129ae60208301846123a6565b9392505050565b60006040820190506129ca60008301856123a6565b6129d760208301846126a5565b9392505050565b600081519050919050565b600082825260208201905092915050565b6000612a05826129de565b612a0f81856129e9565b9350612a1f8185602086016121cb565b612a2881611f79565b840191505092915050565b6000604082019050612a4860008301856125d8565b8181036020830152612a5a81846129fa565b90509392505050565b60006040820190508181036000830152612a7d81856129fa565b9050612a8c60208301846126a5565b9392505050565b6000608082019050612aa86000830187612759565b612ab560208301866123a6565b612ac260408301856125d8565b8181036060830152612ad481846129fa565b905095945050505050565b7f4e487b7100000000000000000000000000000000000000000000000000000000600052603260045260246000fd5b7f4e487b7100000000000000000000000000000000000000000000000000000000600052601160045260246000fd5b6000612b4882611f08565b9150612b5383611f08565b9250828203905081811115612b6b57612b6a612b0e565b5b92915050565b7f4e487b7100000000000000000000000000000000000000000000000000000000600052603160045260246000fd5b6000612bab82611f08565b91507fffffffffffffffffffffffffffffffffffffffffffffffffffffffffffffffff8203612bdd57612bdc612b0e565b5b600182019050919050565b6000604082019050612bfd60008301856125d8565b612c0a60208301846125d8565b9392505050565b6000604082019050612c2660008301856125d8565b612c3360208301846126a5565b9392505050565b600082825260208201905092915050565b6000612c56826121af565b612c608185612c3a565b9350612c708185602086016121cb565b612c7981611f79565b840191505092915050565b612c8d81612699565b82525050565b60006040830160008301518482036000860152612cb08282612c4b565b9150506020830151612cc56020860182612c84565b508091505092915050565b6000604082019050612ce560008301856125d8565b8181036020830152612cf78184612c93565b90509392505050565b60006040820190508181036000830152612d1a8185612c93565b9050612d2960208301846126a5565b9392505050565b6000604082019050612d4560008301856126a5565b612d5260208301846126a5565b9392505050565b6000612d6482612722565b915060ff8203612d7757612d76612b0e565b5b600182019050919050565b6000612d8d8261200a565b9150612d988361200a565b9250828201905067ffffffffffffffff811115612db857612db7612b0e565b5b92915050565b612dc78161200a565b82525050565b6000604082019050612de26000830185612602565b612def6020830184612dbe565b9392505050565b600060a082019050612e0b60008301886125d8565b612e1860208301876125d8565b612e256040830186612759565b612e326060830185612602565b612e3f60808301846123a6565b9695505050505050565b600081905092915050565b6000612e5f826129de565b612e698185612e49565b9350612e798185602086016121cb565b80840191505092915050565b6000612e918284612e54565b91508190509291505056fea2646970667358221220bd0493219ce87d5ddbdfdb6d9d5f9f2895474c54a42772b7790e3423bef1f35864736f6c63430008140033",
  "devdoc": {
    "errors": {
      "OwnableInvalidOwner(address)": [
        {
          "details": "The owner is not a valid owner account. (eg. `address(0)`)"
        }
      ],
      "OwnableUnauthorizedAccount(address)": [
        {
          "details": "The caller account is not authorized to perform an operation."
        }
      ]
    },
    "kind": "dev",
    "methods": {
      "cancelRequest(uint256)": {
        "params": {
          "requestId": "- ID of the Oracle Request"
        }
      },
      "deregisterOracle(address)": {
        "params": {
          "oracle": "address of the oracle"
        }
      },
      "getCommitment(uint256)": {
        "params": {
          "requestId": "id of request"
        },
        "returns": {
          "_0": "commmitment value that can be used to determine whether a request is fulfilled or not. If `requestId` is valid and commitment equals to bytes32(0), the request was fulfilled."
        }
      },
      "isOracleRegistered(address)": {
        "returns": {
          "_0": "true when oracle address registered, otherwise false"
        }
      },
      "owner()": {
        "details": "Returns the address of the current owner."
      },
      "registerOracle(address)": {
        "params": {
          "oracle": "address of the oracle"
        }
      },
      "renounceOwnership()": {
        "details": "Leaves the contract without owner. It will not be possible to call `onlyOwner` functions. Can only be called by the current owner. NOTE: Renouncing ownership will leave the contract without an owner, thereby disabling any functionality that is only available to the owner."
      },
      "setConfig(uint32,uint32)": {
        "params": {
          "gasAfterPaymentCalculation": "gas used in doing accounting after completing the gas measurement",
          "maxGasLimit": "global max for request gas limit"
        }
      },
      "transferOwnership(address)": {
        "details": "Transfers ownership of the contract to a new account (`newOwner`). Can only be called by the current owner."
      },
      "typeAndVersion()": {
        "returns": {
          "_0": "Type and version string"
        }
      }
    },
    "version": 1
  },
  "userdoc": {
    "kind": "user",
    "methods": {
      "cancelRequest(uint256)": {
        "notice": "Canceling oracle request"
      },
      "deregisterOracle(address)": {
        "notice": "Deregister an oracle"
      },
      "getCommitment(uint256)": {
        "notice": "Get request commitment."
      },
      "isOracleRegistered(address)": {
        "notice": "Find out whether given oracle address was registered."
      },
      "registerOracle(address)": {
        "notice": "Register an oracle"
      },
      "setConfig(uint32,uint32)": {
        "notice": "Sets the configuration of the VRF coordinator"
      },
      "typeAndVersion()": {
        "notice": "The type and version of this contract"
      }
    },
    "version": 1
  },
  "storageLayout": {
    "storage": [
      {
        "astId": 8,
        "contract": "src/ADCSCoordinator.sol:ADCSCoordinator",
        "label": "_owner",
        "offset": 0,
        "slot": "0",
        "type": "t_address"
      },
      {
        "astId": 1517,
        "contract": "src/ADCSCoordinator.sol:ADCSCoordinator",
        "label": "sOracles",
        "offset": 0,
        "slot": "1",
        "type": "t_array(t_address)dyn_storage"
      },
      {
        "astId": 1521,
        "contract": "src/ADCSCoordinator.sol:ADCSCoordinator",
        "label": "sRequestIdToCommitment",
        "offset": 0,
        "slot": "2",
        "type": "t_mapping(t_uint256,t_bytes32)"
      },
      {
        "astId": 1525,
        "contract": "src/ADCSCoordinator.sol:ADCSCoordinator",
        "label": "sRequestOwner",
        "offset": 0,
        "slot": "3",
        "type": "t_mapping(t_uint256,t_address)"
      },
      {
        "astId": 1535,
        "contract": "src/ADCSCoordinator.sol:ADCSCoordinator",
        "label": "sConfig",
        "offset": 0,
        "slot": "4",
        "type": "t_struct(Config)1532_storage"
      },
      {
        "astId": 491,
        "contract": "src/ADCSCoordinator.sol:ADCSCoordinator",
        "label": "sSubmission",
        "offset": 0,
        "slot": "5",
        "type": "t_mapping(t_uint256,t_struct(Submission)486_storage)"
      },
      {
        "astId": 495,
        "contract": "src/ADCSCoordinator.sol:ADCSCoordinator",
        "label": "sIsOracleRegistered",
        "offset": 0,
        "slot": "6",
        "type": "t_mapping(t_address,t_bool)"
      },
      {
        "astId": 499,
        "contract": "src/ADCSCoordinator.sol:ADCSCoordinator",
        "label": "sConsumerToNonce",
        "offset": 0,
        "slot": "7",
        "type": "t_mapping(t_address,t_uint64)"
      }
    ],
    "types": {
      "t_address": {
        "encoding": "inplace",
        "label": "address",
        "numberOfBytes": "20"
      },
      "t_array(t_address)dyn_storage": {
        "base": "t_address",
        "encoding": "dynamic_array",
        "label": "address[]",
        "numberOfBytes": "32"
      },
      "t_bool": {
        "encoding": "inplace",
        "label": "bool",
        "numberOfBytes": "1"
      },
      "t_bytes32": {
        "encoding": "inplace",
        "label": "bytes32",
        "numberOfBytes": "32"
      },
      "t_mapping(t_address,t_bool)": {
        "encoding": "mapping",
        "key": "t_address",
        "label": "mapping(address => bool)",
        "numberOfBytes": "32",
        "value": "t_bool"
      },
      "t_mapping(t_address,t_uint64)": {
        "encoding": "mapping",
        "key": "t_address",
        "label": "mapping(address => uint64)",
        "numberOfBytes": "32",
        "value": "t_uint64"
      },
      "t_mapping(t_uint256,t_address)": {
        "encoding": "mapping",
        "key": "t_uint256",
        "label": "mapping(uint256 => address)",
        "numberOfBytes": "32",
        "value": "t_address"
      },
      "t_mapping(t_uint256,t_bytes32)": {
        "encoding": "mapping",
        "key": "t_uint256",
        "label": "mapping(uint256 => bytes32)",
        "numberOfBytes": "32",
        "value": "t_bytes32"
      },
      "t_mapping(t_uint256,t_struct(Submission)486_storage)": {
        "encoding": "mapping",
        "key": "t_uint256",
        "label": "mapping(uint256 => struct ADCSCoordinator.Submission)",
        "numberOfBytes": "32",
        "value": "t_struct(Submission)486_storage"
      },
      "t_struct(Config)1532_storage": {
        "encoding": "inplace",
        "label": "struct CoordinatorBase.Config",
        "members": [
          {
            "astId": 1527,
            "contract": "src/ADCSCoordinator.sol:ADCSCoordinator",
            "label": "maxGasLimit",
            "offset": 0,
            "slot": "0",
            "type": "t_uint32"
          },
          {
            "astId": 1529,
            "contract": "src/ADCSCoordinator.sol:ADCSCoordinator",
            "label": "reentrancyLock",
            "offset": 4,
            "slot": "0",
            "type": "t_bool"
          },
          {
            "astId": 1531,
            "contract": "src/ADCSCoordinator.sol:ADCSCoordinator",
            "label": "gasAfterPaymentCalculation",
            "offset": 5,
            "slot": "0",
            "type": "t_uint32"
          }
        ],
        "numberOfBytes": "32"
      },
      "t_struct(Submission)486_storage": {
        "encoding": "inplace",
        "label": "struct ADCSCoordinator.Submission",
        "members": [
          {
            "astId": 481,
            "contract": "src/ADCSCoordinator.sol:ADCSCoordinator",
            "label": "oracles",
            "offset": 0,
            "slot": "0",
            "type": "t_array(t_address)dyn_storage"
          },
          {
            "astId": 485,
            "contract": "src/ADCSCoordinator.sol:ADCSCoordinator",
            "label": "submitted",
            "offset": 0,
            "slot": "1",
            "type": "t_mapping(t_address,t_bool)"
          }
        ],
        "numberOfBytes": "64"
      },
      "t_uint256": {
        "encoding": "inplace",
        "label": "uint256",
        "numberOfBytes": "32"
      },
      "t_uint32": {
        "encoding": "inplace",
        "label": "uint32",
        "numberOfBytes": "4"
      },
      "t_uint64": {
        "encoding": "inplace",
        "label": "uint64",
        "numberOfBytes": "8"
      }
    }
  }
}