{
  "address": "0x07811b8B6151db734b8D1568918d3A62607879a7",
  "abi": [
    {
      "inputs": [],
      "stateMutability": "nonpayable",
      "type": "constructor"
    },
    {
      "inputs": [
        {
          "internalType": "uint256",
          "name": "have",
          "type": "uint256"
        },
        {
          "internalType": "uint256",
          "name": "want",
          "type": "uint256"
        }
      ],
      "name": "GasLimitTooBig",
      "type": "error"
    },
    {
      "inputs": [],
      "name": "IncompatibleJobId",
      "type": "error"
    },
    {
      "inputs": [],
      "name": "IncorrectCommitment",
      "type": "error"
    },
    {
      "inputs": [
        {
          "internalType": "uint256",
          "name": "have",
          "type": "uint256"
        },
        {
          "internalType": "uint256",
          "name": "want",
          "type": "uint256"
        }
      ],
      "name": "InsufficientPayment",
      "type": "error"
    },
    {
      "inputs": [
        {
          "internalType": "uint64",
          "name": "accId",
          "type": "uint64"
        },
        {
          "internalType": "address",
          "name": "consumer",
          "type": "address"
        }
      ],
      "name": "InvalidConsumer",
      "type": "error"
    },
    {
      "inputs": [],
      "name": "InvalidJobId",
      "type": "error"
    },
    {
      "inputs": [],
      "name": "InvalidNumSubmission",
      "type": "error"
    },
    {
      "inputs": [],
      "name": "NoCorrespondingRequest",
      "type": "error"
    },
    {
      "inputs": [
        {
          "internalType": "address",
          "name": "oracle",
          "type": "address"
        }
      ],
      "name": "NoSuchOracle",
      "type": "error"
    },
    {
      "inputs": [],
      "name": "NotRequestOwner",
      "type": "error"
    },
    {
      "inputs": [
        {
          "internalType": "address",
          "name": "oracle",
          "type": "address"
        }
      ],
      "name": "OracleAlreadyRegistered",
      "type": "error"
    },
    {
      "inputs": [],
      "name": "OracleAlreadySubmitted",
      "type": "error"
    },
    {
      "inputs": [
        {
          "internalType": "address",
          "name": "owner",
          "type": "address"
        }
      ],
      "name": "OwnableInvalidOwner",
      "type": "error"
    },
    {
      "inputs": [
        {
          "internalType": "address",
          "name": "account",
          "type": "address"
        }
      ],
      "name": "OwnableUnauthorizedAccount",
      "type": "error"
    },
    {
      "inputs": [],
      "name": "Reentrant",
      "type": "error"
    },
    {
      "inputs": [],
      "name": "RefundFailure",
      "type": "error"
    },
    {
      "inputs": [],
      "name": "TooManyOracles",
      "type": "error"
    },
    {
      "inputs": [
        {
          "internalType": "address",
          "name": "oracle",
          "type": "address"
        }
      ],
      "name": "UnregisteredOracleFulfillment",
      "type": "error"
    },
    {
      "anonymous": false,
      "inputs": [
        {
          "indexed": false,
          "internalType": "uint256",
          "name": "maxGasLimit",
          "type": "uint256"
        },
        {
          "indexed": false,
          "internalType": "uint256",
          "name": "gasAfterPaymentCalculation",
          "type": "uint256"
        }
      ],
      "name": "ConfigSet",
      "type": "event"
    },
    {
      "anonymous": false,
      "inputs": [
        {
          "indexed": true,
          "internalType": "uint256",
          "name": "requestId",
          "type": "uint256"
        },
        {
          "indexed": false,
          "internalType": "bytes",
          "name": "response",
          "type": "bytes"
        },
        {
          "indexed": false,
          "internalType": "bool",
          "name": "success",
          "type": "bool"
        }
      ],
      "name": "DataRequestFulfilled",
      "type": "event"
    },
    {
      "anonymous": false,
      "inputs": [
        {
          "indexed": true,
          "internalType": "uint256",
          "name": "requestId",
          "type": "uint256"
        },
        {
          "indexed": false,
          "internalType": "bool",
          "name": "response",
          "type": "bool"
        },
        {
          "indexed": false,
          "internalType": "bool",
          "name": "success",
          "type": "bool"
        }
      ],
      "name": "DataRequestFulfilledBool",
      "type": "event"
    },
    {
      "anonymous": false,
      "inputs": [
        {
          "indexed": true,
          "internalType": "uint256",
          "name": "requestId",
          "type": "uint256"
        },
        {
          "indexed": false,
          "internalType": "bytes",
          "name": "response",
          "type": "bytes"
        },
        {
          "indexed": false,
          "internalType": "bool",
          "name": "success",
          "type": "bool"
        }
      ],
      "name": "DataRequestFulfilledBytes",
      "type": "event"
    },
    {
      "anonymous": false,
      "inputs": [
        {
          "indexed": true,
          "internalType": "uint256",
          "name": "requestId",
          "type": "uint256"
        },
        {
          "indexed": false,
          "internalType": "bytes32",
          "name": "response",
          "type": "bytes32"
        },
        {
          "indexed": false,
          "internalType": "bool",
          "name": "success",
          "type": "bool"
        }
      ],
      "name": "DataRequestFulfilledBytes32",
      "type": "event"
    },
    {
      "anonymous": false,
      "inputs": [
        {
          "indexed": true,
          "internalType": "uint256",
          "name": "requestId",
          "type": "uint256"
        },
        {
          "components": [
            {
              "internalType": "string",
              "name": "name",
              "type": "string"
            },
            {
              "internalType": "bool",
              "name": "response",
              "type": "bool"
            }
          ],
          "indexed": false,
          "internalType": "struct IADCSCoordinatorBase.StringAndBool",
          "name": "response",
          "type": "tuple"
        },
        {
          "indexed": false,
          "internalType": "bool",
          "name": "success",
          "type": "bool"
        }
      ],
      "name": "DataRequestFulfilledStringAndBool",
      "type": "event"
    },
    {
      "anonymous": false,
      "inputs": [
        {
          "indexed": true,
          "internalType": "uint256",
          "name": "requestId",
          "type": "uint256"
        },
        {
          "indexed": false,
          "internalType": "uint256",
          "name": "response",
          "type": "uint256"
        },
        {
          "indexed": false,
          "internalType": "bool",
          "name": "success",
          "type": "bool"
        }
      ],
      "name": "DataRequestFulfilledUint256",
      "type": "event"
    },
    {
      "anonymous": false,
      "inputs": [
        {
          "indexed": true,
          "internalType": "uint256",
          "name": "requestId",
          "type": "uint256"
        },
        {
          "indexed": false,
          "internalType": "uint256",
          "name": "callbackGasLimit",
          "type": "uint256"
        },
        {
          "indexed": true,
          "internalType": "address",
          "name": "sender",
          "type": "address"
        },
        {
          "indexed": false,
          "internalType": "bytes32",
          "name": "jobId",
          "type": "bytes32"
        },
        {
          "indexed": false,
          "internalType": "uint256",
          "name": "blockNumber",
          "type": "uint256"
        },
        {
          "indexed": false,
          "internalType": "bytes",
          "name": "data",
          "type": "bytes"
        }
      ],
      "name": "DataRequested",
      "type": "event"
    },
    {
      "anonymous": false,
      "inputs": [
        {
          "indexed": false,
          "internalType": "address",
          "name": "oracle",
          "type": "address"
        },
        {
          "indexed": false,
          "internalType": "uint256",
          "name": "requestId",
          "type": "uint256"
        }
      ],
      "name": "DataSubmitted",
      "type": "event"
    },
    {
      "anonymous": false,
      "inputs": [
        {
          "indexed": false,
          "internalType": "address",
          "name": "oracle",
          "type": "address"
        }
      ],
      "name": "OracleDeregistered",
      "type": "event"
    },
    {
      "anonymous": false,
      "inputs": [
        {
          "indexed": false,
          "internalType": "address",
          "name": "oracle",
          "type": "address"
        }
      ],
      "name": "OracleRegistered",
      "type": "event"
    },
    {
      "anonymous": false,
      "inputs": [
        {
          "indexed": true,
          "internalType": "address",
          "name": "previousOwner",
          "type": "address"
        },
        {
          "indexed": true,
          "internalType": "address",
          "name": "newOwner",
          "type": "address"
        }
      ],
      "name": "OwnershipTransferred",
      "type": "event"
    },
    {
      "anonymous": false,
      "inputs": [
        {
          "indexed": false,
          "internalType": "address",
          "name": "prepayment",
          "type": "address"
        }
      ],
      "name": "PrepaymentSet",
      "type": "event"
    },
    {
      "anonymous": false,
      "inputs": [
        {
          "indexed": true,
          "internalType": "uint256",
          "name": "requestId",
          "type": "uint256"
        }
      ],
      "name": "RequestCanceled",
      "type": "event"
    },
    {
      "inputs": [],
      "name": "MAX_ORACLES",
      "outputs": [
        {
          "internalType": "uint8",
          "name": "",
          "type": "uint8"
        }
      ],
      "stateMutability": "view",
      "type": "function"
    },
    {
      "inputs": [
        {
          "internalType": "uint256",
          "name": "requestId",
          "type": "uint256"
        }
      ],
      "name": "cancelRequest",
      "outputs": [],
      "stateMutability": "nonpayable",
      "type": "function"
    },
    {
      "inputs": [
        {
          "internalType": "address",
          "name": "oracle",
          "type": "address"
        }
      ],
      "name": "deregisterOracle",
      "outputs": [],
      "stateMutability": "nonpayable",
      "type": "function"
    },
    {
      "inputs": [
        {
          "internalType": "uint256",
          "name": "requestId",
          "type": "uint256"
        },
        {
          "internalType": "bool",
          "name": "response",
          "type": "bool"
        },
        {
          "components": [
            {
              "internalType": "uint64",
              "name": "blockNum",
              "type": "uint64"
            },
            {
              "internalType": "uint256",
              "name": "callbackGasLimit",
              "type": "uint256"
            },
            {
              "internalType": "address",
              "name": "sender",
              "type": "address"
            },
            {
              "internalType": "bytes32",
              "name": "jobId",
              "type": "bytes32"
            }
          ],
          "internalType": "struct IADCSCoordinatorBase.RequestCommitment",
          "name": "rc",
          "type": "tuple"
        }
      ],
      "name": "fulfillDataRequestBool",
      "outputs": [],
      "stateMutability": "nonpayable",
      "type": "function"
    },
    {
      "inputs": [
        {
          "internalType": "uint256",
          "name": "requestId",
          "type": "uint256"
        },
        {
          "internalType": "bytes",
          "name": "response",
          "type": "bytes"
        },
        {
          "components": [
            {
              "internalType": "uint64",
              "name": "blockNum",
              "type": "uint64"
            },
            {
              "internalType": "uint256",
              "name": "callbackGasLimit",
              "type": "uint256"
            },
            {
              "internalType": "address",
              "name": "sender",
              "type": "address"
            },
            {
              "internalType": "bytes32",
              "name": "jobId",
              "type": "bytes32"
            }
          ],
          "internalType": "struct IADCSCoordinatorBase.RequestCommitment",
          "name": "rc",
          "type": "tuple"
        }
      ],
      "name": "fulfillDataRequestBytes",
      "outputs": [],
      "stateMutability": "nonpayable",
      "type": "function"
    },
    {
      "inputs": [
        {
          "internalType": "uint256",
          "name": "requestId",
          "type": "uint256"
        },
        {
          "internalType": "bytes32",
          "name": "response",
          "type": "bytes32"
        },
        {
          "components": [
            {
              "internalType": "uint64",
              "name": "blockNum",
              "type": "uint64"
            },
            {
              "internalType": "uint256",
              "name": "callbackGasLimit",
              "type": "uint256"
            },
            {
              "internalType": "address",
              "name": "sender",
              "type": "address"
            },
            {
              "internalType": "bytes32",
              "name": "jobId",
              "type": "bytes32"
            }
          ],
          "internalType": "struct IADCSCoordinatorBase.RequestCommitment",
          "name": "rc",
          "type": "tuple"
        }
      ],
      "name": "fulfillDataRequestBytes32",
      "outputs": [],
      "stateMutability": "nonpayable",
      "type": "function"
    },
    {
      "inputs": [
        {
          "internalType": "uint256",
          "name": "requestId",
          "type": "uint256"
        },
        {
          "components": [
            {
              "internalType": "string",
              "name": "name",
              "type": "string"
            },
            {
              "internalType": "bool",
              "name": "response",
              "type": "bool"
            }
          ],
          "internalType": "struct IADCSCoordinatorBase.StringAndBool",
          "name": "response",
          "type": "tuple"
        },
        {
          "components": [
            {
              "internalType": "uint64",
              "name": "blockNum",
              "type": "uint64"
            },
            {
              "internalType": "uint256",
              "name": "callbackGasLimit",
              "type": "uint256"
            },
            {
              "internalType": "address",
              "name": "sender",
              "type": "address"
            },
            {
              "internalType": "bytes32",
              "name": "jobId",
              "type": "bytes32"
            }
          ],
          "internalType": "struct IADCSCoordinatorBase.RequestCommitment",
          "name": "rc",
          "type": "tuple"
        }
      ],
      "name": "fulfillDataRequestStringAndBool",
      "outputs": [],
      "stateMutability": "nonpayable",
      "type": "function"
    },
    {
      "inputs": [
        {
          "internalType": "uint256",
          "name": "requestId",
          "type": "uint256"
        },
        {
          "internalType": "uint256",
          "name": "response",
          "type": "uint256"
        },
        {
          "components": [
            {
              "internalType": "uint64",
              "name": "blockNum",
              "type": "uint64"
            },
            {
              "internalType": "uint256",
              "name": "callbackGasLimit",
              "type": "uint256"
            },
            {
              "internalType": "address",
              "name": "sender",
              "type": "address"
            },
            {
              "internalType": "bytes32",
              "name": "jobId",
              "type": "bytes32"
            }
          ],
          "internalType": "struct IADCSCoordinatorBase.RequestCommitment",
          "name": "rc",
          "type": "tuple"
        }
      ],
      "name": "fulfillDataRequestUint256",
      "outputs": [],
      "stateMutability": "nonpayable",
      "type": "function"
    },
    {
      "inputs": [
        {
          "internalType": "uint256",
          "name": "requestId",
          "type": "uint256"
        }
      ],
      "name": "getCommitment",
      "outputs": [
        {
          "internalType": "bytes32",
          "name": "",
          "type": "bytes32"
        }
      ],
      "stateMutability": "view",
      "type": "function"
    },
    {
      "inputs": [],
      "name": "getConfig",
      "outputs": [
        {
          "internalType": "uint256",
          "name": "maxGasLimit",
          "type": "uint256"
        },
        {
          "internalType": "uint256",
          "name": "gasAfterPaymentCalculation",
          "type": "uint256"
        }
      ],
      "stateMutability": "view",
      "type": "function"
    },
    {
      "inputs": [
        {
          "internalType": "address",
          "name": "oracle",
          "type": "address"
        }
      ],
      "name": "isOracleRegistered",
      "outputs": [
        {
          "internalType": "bool",
          "name": "",
          "type": "bool"
        }
      ],
      "stateMutability": "view",
      "type": "function"
    },
    {
      "inputs": [],
      "name": "owner",
      "outputs": [
        {
          "internalType": "address",
          "name": "",
          "type": "address"
        }
      ],
      "stateMutability": "view",
      "type": "function"
    },
    {
      "inputs": [
        {
          "internalType": "address",
          "name": "consumer",
          "type": "address"
        },
        {
          "internalType": "uint64",
          "name": "nonce",
          "type": "uint64"
        }
      ],
      "name": "pendingRequestExists",
      "outputs": [
        {
          "internalType": "bool",
          "name": "",
          "type": "bool"
        }
      ],
      "stateMutability": "view",
      "type": "function"
    },
    {
      "inputs": [
        {
          "internalType": "address",
          "name": "oracle",
          "type": "address"
        }
      ],
      "name": "registerOracle",
      "outputs": [],
      "stateMutability": "nonpayable",
      "type": "function"
    },
    {
      "inputs": [],
      "name": "renounceOwnership",
      "outputs": [],
      "stateMutability": "nonpayable",
      "type": "function"
    },
    {
      "inputs": [
        {
          "internalType": "uint256",
          "name": "callbackGasLimit",
          "type": "uint256"
        },
        {
          "components": [
            {
              "internalType": "bytes32",
              "name": "id",
              "type": "bytes32"
            },
            {
              "internalType": "address",
              "name": "callbackAddr",
              "type": "address"
            },
            {
              "internalType": "bytes4",
              "name": "callbackFunc",
              "type": "bytes4"
            },
            {
              "internalType": "uint256",
              "name": "nonce",
              "type": "uint256"
            },
            {
              "components": [
                {
                  "internalType": "bytes",
                  "name": "buf",
                  "type": "bytes"
                },
                {
                  "internalType": "uint256",
                  "name": "capacity",
                  "type": "uint256"
                }
              ],
              "internalType": "struct Buffer.buffer",
              "name": "buf",
              "type": "tuple"
            }
          ],
          "internalType": "struct ADCS.Request",
          "name": "req",
          "type": "tuple"
        }
      ],
      "name": "requestData",
      "outputs": [
        {
          "internalType": "uint256",
          "name": "",
          "type": "uint256"
        }
      ],
      "stateMutability": "nonpayable",
      "type": "function"
    },
    {
      "inputs": [
        {
          "internalType": "uint256",
          "name": "",
          "type": "uint256"
        }
      ],
      "name": "sOracles",
      "outputs": [
        {
          "internalType": "address",
          "name": "",
          "type": "address"
        }
      ],
      "stateMutability": "view",
      "type": "function"
    },
    {
      "inputs": [
        {
          "internalType": "uint256",
          "name": "maxGasLimit",
          "type": "uint256"
        },
        {
          "internalType": "uint256",
          "name": "gasAfterPaymentCalculation",
          "type": "uint256"
        }
      ],
      "name": "setConfig",
      "outputs": [],
      "stateMutability": "nonpayable",
      "type": "function"
    },
    {
      "inputs": [
        {
          "internalType": "address",
          "name": "newOwner",
          "type": "address"
        }
      ],
      "name": "transferOwnership",
      "outputs": [],
      "stateMutability": "nonpayable",
      "type": "function"
    },
    {
      "inputs": [],
      "name": "typeAndVersion",
      "outputs": [
        {
          "internalType": "string",
          "name": "",
          "type": "string"
        }
      ],
      "stateMutability": "pure",
      "type": "function"
    }
  ],
  "transactionHash": "0xd75c0e637f7fe9c3dfcc355910d9c3adbdc629afb0521dd8fa26a60a8659c78a",
  "args": [],
  "numDeployments": 3,
  "solcInputHash": "6ae0e66f3eb62405ca1b9248ff90c584",
  "bytecode": "0x60806040523480156200001157600080fd5b5062000022620000af60201b60201c565b600073ffffffffffffffffffffffffffffffffffffffff168173ffffffffffffffffffffffffffffffffffffffff1603620000975760006040517f1e4fbdf70000000000000000000000000000000000000000000000000000000081526004016200008e9190620001c0565b60405180910390fd5b620000a881620000b760201b60201c565b50620001dd565b600033905090565b60008060009054906101000a900473ffffffffffffffffffffffffffffffffffffffff169050816000806101000a81548173ffffffffffffffffffffffffffffffffffffffff021916908373ffffffffffffffffffffffffffffffffffffffff1602179055508173ffffffffffffffffffffffffffffffffffffffff168173ffffffffffffffffffffffffffffffffffffffff167f8be0079c531659141344cd1fd0a4f28419497f9722a3daafe3b4186f6b6457e060405160405180910390a35050565b600073ffffffffffffffffffffffffffffffffffffffff82169050919050565b6000620001a8826200017b565b9050919050565b620001ba816200019b565b82525050565b6000602082019050620001d76000830184620001af565b92915050565b612dc680620001ed6000396000f3fe608060405234801561001057600080fd5b506004361061012c5760003560e01c80638df4e3e2116100ad578063d98196b311610071578063d98196b314610308578063db750a2d14610338578063e9babaec14610368578063e9d3462814610384578063f2fde38b146103a05761012c565b80638df4e3e21461024f578063a4e92aa71461026b578063b9b55c9a1461029b578063bfedbfa0146102cb578063c3f909d4146102e95761012c565b80633015394c116100f45780633015394c146101bf5780634b9c3083146101db57806369bcdb7d146101f7578063715018a6146102275780638da5cb5b146102315761012c565b80631228cabf14610131578063181f5a771461014d5780631e34c5851461016b57806329ba70c4146101875780632f44d449146101a3575b600080fd5b61014b60048036038101906101469190612088565b6103bc565b005b610155610584565b604051610162919061215a565b60405180910390f35b6101856004803603810190610180919061217c565b6105c1565b005b6101a1600480360381019061019c9190612276565b61065d565b005b6101bd60048036038101906101b8919061242a565b610825565b005b6101d960048036038101906101d49190612499565b6109ed565b005b6101f560048036038101906101f091906124c6565b610b41565b005b610211600480360381019061020c9190612499565b610d09565b60405161021e9190612528565b60405180910390f35b61022f610d26565b005b610239610d3a565b6040516102469190612552565b60405180910390f35b6102696004803603810190610264919061256d565b610d63565b005b6102856004803603810190610280919061259a565b611013565b60405161029291906125e9565b60405180910390f35b6102b560048036038101906102b0919061256d565b611070565b6040516102c291906125e9565b60405180910390f35b6102d36110c6565b6040516102e09190612620565b60405180910390f35b6102f16110cb565b6040516102ff92919061264a565b60405180910390f35b610322600480360381019061031d9190612499565b6110e2565b60405161032f9190612552565b60405180910390f35b610352600480360381019061034d91906127df565b611121565b60405161035f919061283b565b60405180910390f35b610382600480360381019061037d919061256d565b61127b565b005b61039e60048036038101906103999190612856565b611448565b005b6103ba60048036038101906103b5919061256d565b61165a565b005b6103c681846116e0565b60016007600085815260200190815260200160002060010160003373ffffffffffffffffffffffffffffffffffffffff1673ffffffffffffffffffffffffffffffffffffffff16815260200190815260200160002060006101000a81548160ff021916908315150217905550600060076000858152602001908152602001600020600001905080339080600181540180825580915050600190039060005260206000200160009091909190916101000a81548173ffffffffffffffffffffffffffffffffffffffff021916908373ffffffffffffffffffffffffffffffffffffffff160217905550600063f40b4def60e01b85856040516024016104cb9291906128a9565b604051602081830303815290604052907bffffffffffffffffffffffffffffffffffffffffffffffffffffffff19166020820180517bffffffffffffffffffffffffffffffffffffffffffffffffffffffff83818316178352505050509050600061053682856118be565b90506105418661191d565b50857f68ab2090cae4446c41a4252a58251ac07f2ac3277747f0f2431ce7d80fdb643786836040516105749291906128d2565b60405180910390a2505050505050565b60606040518060400160405280601481526020017f41444353436f6f7264696e61746f722076302e31000000000000000000000000815250905090565b6105c9611adb565b60405180606001604052808381526020016000151581526020018281525060046000820151816000015560208201518160010160006101000a81548160ff021916908315150217905550604082015181600201559050507f150110afd46e9924086bf85c855aae25722518b293155bf0ae689dd99a2e88cc828260405161065192919061264a565b60405180910390a15050565b61066781846116e0565b60016007600085815260200190815260200160002060010160003373ffffffffffffffffffffffffffffffffffffffff1673ffffffffffffffffffffffffffffffffffffffff16815260200190815260200160002060006101000a81548160ff021916908315150217905550600060076000858152602001908152602001600020600001905080339080600181540180825580915050600190039060005260206000200160009091909190916101000a81548173ffffffffffffffffffffffffffffffffffffffff021916908373ffffffffffffffffffffffffffffffffffffffff16021790555060006319e2cd2f60e01b858560405160240161076c929190612950565b604051602081830303815290604052907bffffffffffffffffffffffffffffffffffffffffffffffffffffffff19166020820180517bffffffffffffffffffffffffffffffffffffffffffffffffffffffff8381831617835250505050905060006107d782856118be565b90506107e28661191d565b50857fb6727cffbd4cbe4365522df08e3a8fbcf75662b5e1c5ffb1db39c936250abf778683604051610815929190612980565b60405180910390a2505050505050565b61082f81846116e0565b60016007600085815260200190815260200160002060010160003373ffffffffffffffffffffffffffffffffffffffff1673ffffffffffffffffffffffffffffffffffffffff16815260200190815260200160002060006101000a81548160ff021916908315150217905550600060076000858152602001908152602001600020600001905080339080600181540180825580915050600190039060005260206000200160009091909190916101000a81548173ffffffffffffffffffffffffffffffffffffffff021916908373ffffffffffffffffffffffffffffffffffffffff1602179055506000630e2c871f60e01b8585604051602401610934929190612a46565b604051602081830303815290604052907bffffffffffffffffffffffffffffffffffffffffffffffffffffffff19166020820180517bffffffffffffffffffffffffffffffffffffffffffffffffffffffff83818316178352505050509050600061099f82856118be565b90506109aa8661191d565b50857fe20c9d2af5010a05cb2c250f3fd7d56b813d69e8e8a129edca6267cdd7f2eb0386836040516109dd929190612a76565b60405180910390a2505050505050565b6109f681611b62565b610a2c576040517f3688124a00000000000000000000000000000000000000000000000000000000815260040160405180910390fd5b3373ffffffffffffffffffffffffffffffffffffffff166003600083815260200190815260200160002060009054906101000a900473ffffffffffffffffffffffffffffffffffffffff1673ffffffffffffffffffffffffffffffffffffffff1614610ac4576040517f517907dd00000000000000000000000000000000000000000000000000000000815260040160405180910390fd5b60026000828152602001908152602001600020600090556003600082815260200190815260200160002060006101000a81549073ffffffffffffffffffffffffffffffffffffffff0219169055807f6187bf55f2675dbecee951f81c92ecac87f54ed5bf888d31b09e634749b848ef60405160405180910390a250565b610b4b81846116e0565b60016007600085815260200190815260200160002060010160003373ffffffffffffffffffffffffffffffffffffffff1673ffffffffffffffffffffffffffffffffffffffff16815260200190815260200160002060006101000a81548160ff021916908315150217905550600060076000858152602001908152602001600020600001905080339080600181540180825580915050600190039060005260206000200160009091909190916101000a81548173ffffffffffffffffffffffffffffffffffffffff021916908373ffffffffffffffffffffffffffffffffffffffff16021790555060006390d95efc60e01b8585604051602401610c50929190612aa6565b604051602081830303815290604052907bffffffffffffffffffffffffffffffffffffffffffffffffffffffff19166020820180517bffffffffffffffffffffffffffffffffffffffffffffffffffffffff838183161783525050505090506000610cbb82856118be565b9050610cc68661191d565b50857f1642c1857f43a2e6a38067a7503bdbff46b114bdedb9684838fef1a2e830fbc18683604051610cf9929190612acf565b60405180910390a2505050505050565b600060026000838152602001908152602001600020549050919050565b610d2e611adb565b610d386000611b94565b565b60008060009054906101000a900473ffffffffffffffffffffffffffffffffffffffff16905090565b610d6b611adb565b600860008273ffffffffffffffffffffffffffffffffffffffff1673ffffffffffffffffffffffffffffffffffffffff16815260200190815260200160002060009054906101000a900460ff16610df957806040517ff9a0ffdf000000000000000000000000000000000000000000000000000000008152600401610df09190612552565b60405180910390fd5b600860008273ffffffffffffffffffffffffffffffffffffffff1673ffffffffffffffffffffffffffffffffffffffff16815260200190815260200160002060006101000a81549060ff02191690556000600180549050905060005b81811015610fd7578273ffffffffffffffffffffffffffffffffffffffff1660018281548110610e8857610e87612af8565b5b9060005260206000200160009054906101000a900473ffffffffffffffffffffffffffffffffffffffff1673ffffffffffffffffffffffffffffffffffffffff1603610fc657600060018084610ede9190612b56565b81548110610eef57610eee612af8565b5b9060005260206000200160009054906101000a900473ffffffffffffffffffffffffffffffffffffffff1690508060018381548110610f3157610f30612af8565b5b9060005260206000200160006101000a81548173ffffffffffffffffffffffffffffffffffffffff021916908373ffffffffffffffffffffffffffffffffffffffff1602179055506001805480610f8b57610f8a612b8a565b5b6001900381819060005260206000200160006101000a81549073ffffffffffffffffffffffffffffffffffffffff0219169055905550610fd7565b80610fd090612bb9565b9050610e55565b507f5406c1f2d9ece2027a923f317fb5f2370221e330db898c037c10acc0c20495b3826040516110079190612552565b60405180910390a15050565b600080600180549050905060005b818110156110635760006110358686611c58565b905061104081611b62565b15611051576001935050505061106a565b508061105c90612bb9565b9050611021565b5060009150505b92915050565b6000600860008373ffffffffffffffffffffffffffffffffffffffff1673ffffffffffffffffffffffffffffffffffffffff16815260200190815260200160002060009054906101000a900460ff169050919050565b60ff81565b600080600460000154600460020154915091509091565b600181815481106110f257600080fd5b906000526020600020016000915054906101000a900473ffffffffffffffffffffffffffffffffffffffff1681565b600060046000015483111561117457826004600001546040517f227449c900000000000000000000000000000000000000000000000000000000815260040161116b92919061264a565b60405180910390fd5b600061117f33611c8e565b9050600061118d3383611c58565b905060004390506111a5828288338960000151611d62565b6002600084815260200190815260200160002081905550336003600084815260200190815260200160002060006101000a81548173ffffffffffffffffffffffffffffffffffffffff021916908373ffffffffffffffffffffffffffffffffffffffff1602179055503373ffffffffffffffffffffffffffffffffffffffff16827f41ea4966e667f63a7c3fc4d3110cdef809a7d4dd88b1bc66d3a6b679c7fd633d888860000151858a60800151600001516040516112679493929190612c01565b60405180910390a381935050505092915050565b611283611adb565b60ff8016600180549050106112c4576040517f25d0209c00000000000000000000000000000000000000000000000000000000815260040160405180910390fd5b600860008273ffffffffffffffffffffffffffffffffffffffff1673ffffffffffffffffffffffffffffffffffffffff16815260200190815260200160002060009054906101000a900460ff161561135357806040517f6ff7406a00000000000000000000000000000000000000000000000000000000815260040161134a9190612552565b60405180910390fd5b6001819080600181540180825580915050600190039060005260206000200160009091909190916101000a81548173ffffffffffffffffffffffffffffffffffffffff021916908373ffffffffffffffffffffffffffffffffffffffff1602179055506001600860008373ffffffffffffffffffffffffffffffffffffffff1673ffffffffffffffffffffffffffffffffffffffff16815260200190815260200160002060006101000a81548160ff0219169083151502179055507fd9d9fdcc9f936c76b5aafe54fc3db5dcec0c6583c9ccc4abe91d17575c5145a58160405161143d9190612552565b60405180910390a150565b600460010160009054906101000a900460ff1615611492576040517fed3ba6a600000000000000000000000000000000000000000000000000000000815260040160405180910390fd5b61149c81846116e0565b60016007600085815260200190815260200160002060010160003373ffffffffffffffffffffffffffffffffffffffff1673ffffffffffffffffffffffffffffffffffffffff16815260200190815260200160002060006101000a81548160ff021916908315150217905550600060076000858152602001908152602001600020600001905080339080600181540180825580915050600190039060005260206000200160009091909190916101000a81548173ffffffffffffffffffffffffffffffffffffffff021916908373ffffffffffffffffffffffffffffffffffffffff16021790555060006377f262ea60e01b85856040516024016115a192919061264a565b604051602081830303815290604052907bffffffffffffffffffffffffffffffffffffffffffffffffffffffff19166020820180517bffffffffffffffffffffffffffffffffffffffffffffffffffffffff83818316178352505050509050600061160c82856118be565b90506116178661191d565b50857fc321dd2edb70648970d947727983978c1fb4f15aef68acb1663c00d7f105a755868360405161164a929190612aa6565b60405180910390a2505050505050565b611662611adb565b600073ffffffffffffffffffffffffffffffffffffffff168173ffffffffffffffffffffffffffffffffffffffff16036116d45760006040517f1e4fbdf70000000000000000000000000000000000000000000000000000000081526004016116cb9190612552565b60405180910390fd5b6116dd81611b94565b50565b600860003373ffffffffffffffffffffffffffffffffffffffff1673ffffffffffffffffffffffffffffffffffffffff16815260200190815260200160002060009054906101000a900460ff1661176e57336040517fd6c337480000000000000000000000000000000000000000000000000000000081526004016117659190612552565b60405180910390fd5b6007600082815260200190815260200160002060010160003373ffffffffffffffffffffffffffffffffffffffff1673ffffffffffffffffffffffffffffffffffffffff16815260200190815260200160002060009054906101000a900460ff1615611806576040517f9f17b6ef00000000000000000000000000000000000000000000000000000000815260040160405180910390fd5b6000600260008381526020019081526020016000205490506000801b810361185a576040517f3688124a00000000000000000000000000000000000000000000000000000000815260040160405180910390fd5b61188182846000015167ffffffffffffffff16856020015186604001518760600151611d62565b81146118b9576040517fd529142c00000000000000000000000000000000000000000000000000000000815260040160405180910390fd5b505050565b60006001600460010160006101000a81548160ff02191690831515021790555060006118f38360200151846040015186611d9e565b90506000600460010160006101000a81548160ff0219169083151502179055508091505092915050565b60606000600760008481526020019081526020016000206000018054806020026020016040519081016040528092919081815260200182805480156119b757602002820191906000526020600020905b8160009054906101000a900473ffffffffffffffffffffffffffffffffffffffff1673ffffffffffffffffffffffffffffffffffffffff168152602001906001019080831161196d575b5050505050905060005b81518160ff161015611a5e57600760008581526020019081526020016000206001016000838360ff16815181106119fb576119fa612af8565b5b602002602001015173ffffffffffffffffffffffffffffffffffffffff1673ffffffffffffffffffffffffffffffffffffffff16815260200190815260200160002060006101000a81549060ff021916905580611a5790612c4d565b90506119c1565b506007600084815260200190815260200160002060008082016000611a839190611e1e565b505060026000848152602001908152602001600020600090556003600084815260200190815260200160002060006101000a81549073ffffffffffffffffffffffffffffffffffffffff021916905580915050919050565b611ae3611e16565b73ffffffffffffffffffffffffffffffffffffffff16611b01610d3a565b73ffffffffffffffffffffffffffffffffffffffff1614611b6057611b24611e16565b6040517f118cdaa7000000000000000000000000000000000000000000000000000000008152600401611b579190612552565b60405180910390fd5b565b60008060001b600260008481526020019081526020016000205414611b8a5760019050611b8f565b600090505b919050565b60008060009054906101000a900473ffffffffffffffffffffffffffffffffffffffff169050816000806101000a81548173ffffffffffffffffffffffffffffffffffffffff021916908373ffffffffffffffffffffffffffffffffffffffff1602179055508173ffffffffffffffffffffffffffffffffffffffff168173ffffffffffffffffffffffffffffffffffffffff167f8be0079c531659141344cd1fd0a4f28419497f9722a3daafe3b4186f6b6457e060405160405180910390a35050565b60008282604051602001611c6d929190612c85565b6040516020818303038152906040528051906020012060001c905092915050565b6000806001600960008573ffffffffffffffffffffffffffffffffffffffff1673ffffffffffffffffffffffffffffffffffffffff16815260200190815260200160002060009054906101000a900467ffffffffffffffff16611cf19190612cae565b905080600960008573ffffffffffffffffffffffffffffffffffffffff1673ffffffffffffffffffffffffffffffffffffffff16815260200190815260200160002060006101000a81548167ffffffffffffffff021916908367ffffffffffffffff16021790555080915050919050565b60008585858585604051602001611d7d959493929190612cea565b60405160208183030381529060405280519060200120905095945050505050565b60008273ffffffffffffffffffffffffffffffffffffffff168483604051611dc69190612d79565b60006040518083038160008787f1925050503d8060008114611e04576040519150601f19603f3d011682016040523d82523d6000602084013e611e09565b606091505b5050809150509392505050565b600033905090565b5080546000825590600052602060002090810190611e3c9190611e3f565b50565b5b80821115611e58576000816000905550600101611e40565b5090565b6000604051905090565b600080fd5b600080fd5b6000819050919050565b611e8381611e70565b8114611e8e57600080fd5b50565b600081359050611ea081611e7a565b92915050565b6000819050919050565b611eb981611ea6565b8114611ec457600080fd5b50565b600081359050611ed681611eb0565b92915050565b600080fd5b6000601f19601f8301169050919050565b7f4e487b7100000000000000000000000000000000000000000000000000000000600052604160045260246000fd5b611f2a82611ee1565b810181811067ffffffffffffffff82111715611f4957611f48611ef2565b5b80604052505050565b6000611f5c611e5c565b9050611f688282611f21565b919050565b600080fd5b600067ffffffffffffffff82169050919050565b611f8f81611f72565b8114611f9a57600080fd5b50565b600081359050611fac81611f86565b92915050565b600073ffffffffffffffffffffffffffffffffffffffff82169050919050565b6000611fdd82611fb2565b9050919050565b611fed81611fd2565b8114611ff857600080fd5b50565b60008135905061200a81611fe4565b92915050565b60006080828403121561202657612025611edc565b5b6120306080611f52565b9050600061204084828501611f9d565b600083015250602061205484828501611e91565b602083015250604061206884828501611ffb565b604083015250606061207c84828501611ec7565b60608301525092915050565b600080600060c084860312156120a1576120a0611e66565b5b60006120af86828701611e91565b93505060206120c086828701611ec7565b92505060406120d186828701612010565b9150509250925092565b600081519050919050565b600082825260208201905092915050565b60005b838110156121155780820151818401526020810190506120fa565b60008484015250505050565b600061212c826120db565b61213681856120e6565b93506121468185602086016120f7565b61214f81611ee1565b840191505092915050565b600060208201905081810360008301526121748184612121565b905092915050565b6000806040838503121561219357612192611e66565b5b60006121a185828601611e91565b92505060206121b285828601611e91565b9150509250929050565b600080fd5b600080fd5b600067ffffffffffffffff8211156121e1576121e0611ef2565b5b6121ea82611ee1565b9050602081019050919050565b82818337600083830152505050565b6000612219612214846121c6565b611f52565b905082815260208101848484011115612235576122346121c1565b5b6122408482856121f7565b509392505050565b600082601f83011261225d5761225c6121bc565b5b813561226d848260208601612206565b91505092915050565b600080600060c0848603121561228f5761228e611e66565b5b600061229d86828701611e91565b935050602084013567ffffffffffffffff8111156122be576122bd611e6b565b5b6122ca86828701612248565b92505060406122db86828701612010565b9150509250925092565b600067ffffffffffffffff821115612300576122ff611ef2565b5b61230982611ee1565b9050602081019050919050565b6000612329612324846122e5565b611f52565b905082815260208101848484011115612345576123446121c1565b5b6123508482856121f7565b509392505050565b600082601f83011261236d5761236c6121bc565b5b813561237d848260208601612316565b91505092915050565b60008115159050919050565b61239b81612386565b81146123a657600080fd5b50565b6000813590506123b881612392565b92915050565b6000604082840312156123d4576123d3611edc565b5b6123de6040611f52565b9050600082013567ffffffffffffffff8111156123fe576123fd611f6d565b5b61240a84828501612358565b600083015250602061241e848285016123a9565b60208301525092915050565b600080600060c0848603121561244357612442611e66565b5b600061245186828701611e91565b935050602084013567ffffffffffffffff81111561247257612471611e6b565b5b61247e868287016123be565b925050604061248f86828701612010565b9150509250925092565b6000602082840312156124af576124ae611e66565b5b60006124bd84828501611e91565b91505092915050565b600080600060c084860312156124df576124de611e66565b5b60006124ed86828701611e91565b93505060206124fe868287016123a9565b925050604061250f86828701612010565b9150509250925092565b61252281611ea6565b82525050565b600060208201905061253d6000830184612519565b92915050565b61254c81611fd2565b82525050565b60006020820190506125676000830184612543565b92915050565b60006020828403121561258357612582611e66565b5b600061259184828501611ffb565b91505092915050565b600080604083850312156125b1576125b0611e66565b5b60006125bf85828601611ffb565b92505060206125d085828601611f9d565b9150509250929050565b6125e381612386565b82525050565b60006020820190506125fe60008301846125da565b92915050565b600060ff82169050919050565b61261a81612604565b82525050565b60006020820190506126356000830184612611565b92915050565b61264481611e70565b82525050565b600060408201905061265f600083018561263b565b61266c602083018461263b565b9392505050565b60007fffffffff0000000000000000000000000000000000000000000000000000000082169050919050565b6126a881612673565b81146126b357600080fd5b50565b6000813590506126c58161269f565b92915050565b6000604082840312156126e1576126e0611edc565b5b6126eb6040611f52565b9050600082013567ffffffffffffffff81111561270b5761270a611f6d565b5b61271784828501612248565b600083015250602061272b84828501611e91565b60208301525092915050565b600060a0828403121561274d5761274c611edc565b5b61275760a0611f52565b9050600061276784828501611ec7565b600083015250602061277b84828501611ffb565b602083015250604061278f848285016126b6565b60408301525060606127a384828501611e91565b606083015250608082013567ffffffffffffffff8111156127c7576127c6611f6d565b5b6127d3848285016126cb565b60808301525092915050565b600080604083850312156127f6576127f5611e66565b5b600061280485828601611e91565b925050602083013567ffffffffffffffff81111561282557612824611e6b565b5b61283185828601612737565b9150509250929050565b6000602082019050612850600083018461263b565b92915050565b600080600060c0848603121561286f5761286e611e66565b5b600061287d86828701611e91565b935050602061288e86828701611e91565b925050604061289f86828701612010565b9150509250925092565b60006040820190506128be600083018561263b565b6128cb6020830184612519565b9392505050565b60006040820190506128e76000830185612519565b6128f460208301846125da565b9392505050565b600081519050919050565b600082825260208201905092915050565b6000612922826128fb565b61292c8185612906565b935061293c8185602086016120f7565b61294581611ee1565b840191505092915050565b6000604082019050612965600083018561263b565b81810360208301526129778184612917565b90509392505050565b6000604082019050818103600083015261299a8185612917565b90506129a960208301846125da565b9392505050565b600082825260208201905092915050565b60006129cc826120db565b6129d681856129b0565b93506129e68185602086016120f7565b6129ef81611ee1565b840191505092915050565b612a0381612386565b82525050565b60006040830160008301518482036000860152612a2682826129c1565b9150506020830151612a3b60208601826129fa565b508091505092915050565b6000604082019050612a5b600083018561263b565b8181036020830152612a6d8184612a09565b90509392505050565b60006040820190508181036000830152612a908185612a09565b9050612a9f60208301846125da565b9392505050565b6000604082019050612abb600083018561263b565b612ac860208301846125da565b9392505050565b6000604082019050612ae460008301856125da565b612af160208301846125da565b9392505050565b7f4e487b7100000000000000000000000000000000000000000000000000000000600052603260045260246000fd5b7f4e487b7100000000000000000000000000000000000000000000000000000000600052601160045260246000fd5b6000612b6182611e70565b9150612b6c83611e70565b9250828203905081811115612b8457612b83612b27565b5b92915050565b7f4e487b7100000000000000000000000000000000000000000000000000000000600052603160045260246000fd5b6000612bc482611e70565b91507fffffffffffffffffffffffffffffffffffffffffffffffffffffffffffffffff8203612bf657612bf5612b27565b5b600182019050919050565b6000608082019050612c16600083018761263b565b612c236020830186612519565b612c30604083018561263b565b8181036060830152612c428184612917565b905095945050505050565b6000612c5882612604565b915060ff8203612c6b57612c6a612b27565b5b600182019050919050565b612c7f81611f72565b82525050565b6000604082019050612c9a6000830185612543565b612ca76020830184612c76565b9392505050565b6000612cb982611f72565b9150612cc483611f72565b9250828201905067ffffffffffffffff811115612ce457612ce3612b27565b5b92915050565b600060a082019050612cff600083018861263b565b612d0c602083018761263b565b612d19604083018661263b565b612d266060830185612543565b612d336080830184612519565b9695505050505050565b600081905092915050565b6000612d53826128fb565b612d5d8185612d3d565b9350612d6d8185602086016120f7565b80840191505092915050565b6000612d858284612d48565b91508190509291505056fea2646970667358221220856ce625f7b58904087c1c48b8b7ac04a929fe91746a8ac41bcc492f87e78c2e64736f6c63430008140033",
  "devdoc": {
    "errors": {
      "OwnableInvalidOwner(address)": [
        {
          "details": "The owner is not a valid owner account. (eg. `address(0)`)"
        }
      ],
      "OwnableUnauthorizedAccount(address)": [
        {
          "details": "The caller account is not authorized to perform an operation."
        }
      ]
    },
    "kind": "dev",
    "methods": {
      "cancelRequest(uint256)": {
        "params": {
          "requestId": "- ID of the Oracle Request"
        }
      },
      "deregisterOracle(address)": {
        "params": {
          "oracle": "address of the oracle"
        }
      },
      "getCommitment(uint256)": {
        "params": {
          "requestId": "id of request"
        },
        "returns": {
          "_0": "commmitment value that can be used to determine whether a request is fulfilled or not. If `requestId` is valid and commitment equals to bytes32(0), the request was fulfilled."
        }
      },
      "isOracleRegistered(address)": {
        "returns": {
          "_0": "true when oracle address registered, otherwise false"
        }
      },
      "owner()": {
        "details": "Returns the address of the current owner."
      },
      "registerOracle(address)": {
        "params": {
          "oracle": "address of the oracle"
        }
      },
      "renounceOwnership()": {
        "details": "Leaves the contract without owner. It will not be possible to call `onlyOwner` functions. Can only be called by the current owner. NOTE: Renouncing ownership will leave the contract without an owner, thereby disabling any functionality that is only available to the owner."
      },
      "setConfig(uint256,uint256)": {
        "params": {
          "gasAfterPaymentCalculation": "gas used in doing accounting after completing the gas measurement",
          "maxGasLimit": "global max for request gas limit"
        }
      },
      "transferOwnership(address)": {
        "details": "Transfers ownership of the contract to a new account (`newOwner`). Can only be called by the current owner."
      },
      "typeAndVersion()": {
        "returns": {
          "_0": "Type and version string"
        }
      }
    },
    "version": 1
  },
  "userdoc": {
    "kind": "user",
    "methods": {
      "cancelRequest(uint256)": {
        "notice": "Canceling oracle request"
      },
      "deregisterOracle(address)": {
        "notice": "Deregister an oracle"
      },
      "getCommitment(uint256)": {
        "notice": "Get request commitment."
      },
      "isOracleRegistered(address)": {
        "notice": "Find out whether given oracle address was registered."
      },
      "registerOracle(address)": {
        "notice": "Register an oracle"
      },
      "setConfig(uint256,uint256)": {
        "notice": "Sets the configuration of the VRF coordinator"
      },
      "typeAndVersion()": {
        "notice": "The type and version of this contract"
      }
    },
    "version": 1
  },
  "storageLayout": {
    "storage": [
      {
        "astId": 8,
        "contract": "src/ADCSCoordinator.sol:ADCSCoordinator",
        "label": "_owner",
        "offset": 0,
        "slot": "0",
        "type": "t_address"
      },
      {
        "astId": 1735,
        "contract": "src/ADCSCoordinator.sol:ADCSCoordinator",
        "label": "sOracles",
        "offset": 0,
        "slot": "1",
        "type": "t_array(t_address)dyn_storage"
      },
      {
        "astId": 1739,
        "contract": "src/ADCSCoordinator.sol:ADCSCoordinator",
        "label": "sRequestIdToCommitment",
        "offset": 0,
        "slot": "2",
        "type": "t_mapping(t_uint256,t_bytes32)"
      },
      {
        "astId": 1743,
        "contract": "src/ADCSCoordinator.sol:ADCSCoordinator",
        "label": "sRequestOwner",
        "offset": 0,
        "slot": "3",
        "type": "t_mapping(t_uint256,t_address)"
      },
      {
        "astId": 1753,
        "contract": "src/ADCSCoordinator.sol:ADCSCoordinator",
        "label": "sConfig",
        "offset": 0,
        "slot": "4",
        "type": "t_struct(Config)1750_storage"
      },
      {
        "astId": 709,
        "contract": "src/ADCSCoordinator.sol:ADCSCoordinator",
        "label": "sSubmission",
        "offset": 0,
        "slot": "7",
        "type": "t_mapping(t_uint256,t_struct(Submission)704_storage)"
      },
      {
        "astId": 713,
        "contract": "src/ADCSCoordinator.sol:ADCSCoordinator",
        "label": "sIsOracleRegistered",
        "offset": 0,
        "slot": "8",
        "type": "t_mapping(t_address,t_bool)"
      },
      {
        "astId": 717,
        "contract": "src/ADCSCoordinator.sol:ADCSCoordinator",
        "label": "sConsumerToNonce",
        "offset": 0,
        "slot": "9",
        "type": "t_mapping(t_address,t_uint64)"
      }
    ],
    "types": {
      "t_address": {
        "encoding": "inplace",
        "label": "address",
        "numberOfBytes": "20"
      },
      "t_array(t_address)dyn_storage": {
        "base": "t_address",
        "encoding": "dynamic_array",
        "label": "address[]",
        "numberOfBytes": "32"
      },
      "t_bool": {
        "encoding": "inplace",
        "label": "bool",
        "numberOfBytes": "1"
      },
      "t_bytes32": {
        "encoding": "inplace",
        "label": "bytes32",
        "numberOfBytes": "32"
      },
      "t_mapping(t_address,t_bool)": {
        "encoding": "mapping",
        "key": "t_address",
        "label": "mapping(address => bool)",
        "numberOfBytes": "32",
        "value": "t_bool"
      },
      "t_mapping(t_address,t_uint64)": {
        "encoding": "mapping",
        "key": "t_address",
        "label": "mapping(address => uint64)",
        "numberOfBytes": "32",
        "value": "t_uint64"
      },
      "t_mapping(t_uint256,t_address)": {
        "encoding": "mapping",
        "key": "t_uint256",
        "label": "mapping(uint256 => address)",
        "numberOfBytes": "32",
        "value": "t_address"
      },
      "t_mapping(t_uint256,t_bytes32)": {
        "encoding": "mapping",
        "key": "t_uint256",
        "label": "mapping(uint256 => bytes32)",
        "numberOfBytes": "32",
        "value": "t_bytes32"
      },
      "t_mapping(t_uint256,t_struct(Submission)704_storage)": {
        "encoding": "mapping",
        "key": "t_uint256",
        "label": "mapping(uint256 => struct ADCSCoordinator.Submission)",
        "numberOfBytes": "32",
        "value": "t_struct(Submission)704_storage"
      },
      "t_struct(Config)1750_storage": {
        "encoding": "inplace",
        "label": "struct CoordinatorBase.Config",
        "members": [
          {
            "astId": 1745,
            "contract": "src/ADCSCoordinator.sol:ADCSCoordinator",
            "label": "maxGasLimit",
            "offset": 0,
            "slot": "0",
            "type": "t_uint256"
          },
          {
            "astId": 1747,
            "contract": "src/ADCSCoordinator.sol:ADCSCoordinator",
            "label": "reentrancyLock",
            "offset": 0,
            "slot": "1",
            "type": "t_bool"
          },
          {
            "astId": 1749,
            "contract": "src/ADCSCoordinator.sol:ADCSCoordinator",
            "label": "gasAfterPaymentCalculation",
            "offset": 0,
            "slot": "2",
            "type": "t_uint256"
          }
        ],
        "numberOfBytes": "96"
      },
      "t_struct(Submission)704_storage": {
        "encoding": "inplace",
        "label": "struct ADCSCoordinator.Submission",
        "members": [
          {
            "astId": 699,
            "contract": "src/ADCSCoordinator.sol:ADCSCoordinator",
            "label": "oracles",
            "offset": 0,
            "slot": "0",
            "type": "t_array(t_address)dyn_storage"
          },
          {
            "astId": 703,
            "contract": "src/ADCSCoordinator.sol:ADCSCoordinator",
            "label": "submitted",
            "offset": 0,
            "slot": "1",
            "type": "t_mapping(t_address,t_bool)"
          }
        ],
        "numberOfBytes": "64"
      },
      "t_uint256": {
        "encoding": "inplace",
        "label": "uint256",
        "numberOfBytes": "32"
      },
      "t_uint64": {
        "encoding": "inplace",
        "label": "uint64",
        "numberOfBytes": "8"
      }
    }
  }
}