{
  "address": "0xE6b3360ADb38e6f12Ed393e5151228074ceAD630",
  "abi": [
    {
      "inputs": [
        {
          "internalType": "address",
          "name": "_coordinator",
          "type": "address"
        },
        {
          "internalType": "address",
          "name": "_weth",
          "type": "address"
        },
        {
          "internalType": "address",
          "name": "_swapRouter",
          "type": "address"
        }
      ],
      "stateMutability": "nonpayable",
      "type": "constructor"
    },
    {
      "inputs": [
        {
          "internalType": "address",
          "name": "have",
          "type": "address"
        },
        {
          "internalType": "address",
          "name": "want",
          "type": "address"
        }
      ],
      "name": "OnlyCoordinatorCanFulfill",
      "type": "error"
    },
    {
      "inputs": [
        {
          "internalType": "address",
          "name": "owner",
          "type": "address"
        }
      ],
      "name": "OwnableInvalidOwner",
      "type": "error"
    },
    {
      "inputs": [
        {
          "internalType": "address",
          "name": "account",
          "type": "address"
        }
      ],
      "name": "OwnableUnauthorizedAccount",
      "type": "error"
    },
    {
      "anonymous": false,
      "inputs": [
        {
          "indexed": true,
          "internalType": "uint256",
          "name": "requestId",
          "type": "uint256"
        },
        {
          "indexed": false,
          "internalType": "bytes",
          "name": "response",
          "type": "bytes"
        }
      ],
      "name": "DataFulfilled",
      "type": "event"
    },
    {
      "anonymous": false,
      "inputs": [
        {
          "indexed": true,
          "internalType": "uint256",
          "name": "requestId",
          "type": "uint256"
        }
      ],
      "name": "DataRequested",
      "type": "event"
    },
    {
      "anonymous": false,
      "inputs": [
        {
          "indexed": false,
          "internalType": "string",
          "name": "tokenName",
          "type": "string"
        }
      ],
      "name": "MemecoinNotFound",
      "type": "event"
    },
    {
      "anonymous": false,
      "inputs": [
        {
          "indexed": true,
          "internalType": "address",
          "name": "previousOwner",
          "type": "address"
        },
        {
          "indexed": true,
          "internalType": "address",
          "name": "newOwner",
          "type": "address"
        }
      ],
      "name": "OwnershipTransferred",
      "type": "event"
    },
    {
      "anonymous": false,
      "inputs": [
        {
          "indexed": true,
          "internalType": "uint256",
          "name": "requestId",
          "type": "uint256"
        },
        {
          "indexed": false,
          "internalType": "uint256",
          "name": "amountIn",
          "type": "uint256"
        },
        {
          "indexed": false,
          "internalType": "bool",
          "name": "isBuy",
          "type": "bool"
        }
      ],
      "name": "TradeSuccess",
      "type": "event"
    },
    {
      "inputs": [],
      "name": "COORDINATOR",
      "outputs": [
        {
          "internalType": "contract IADCSCoordinator",
          "name": "",
          "type": "address"
        }
      ],
      "stateMutability": "view",
      "type": "function"
    },
    {
      "inputs": [],
      "name": "WETH",
      "outputs": [
        {
          "internalType": "address",
          "name": "",
          "type": "address"
        }
      ],
      "stateMutability": "view",
      "type": "function"
    },
    {
      "inputs": [
        {
          "internalType": "string",
          "name": "name",
          "type": "string"
        },
        {
          "internalType": "address",
          "name": "addr",
          "type": "address"
        },
        {
          "internalType": "uint8",
          "name": "decimals",
          "type": "uint8"
        }
      ],
      "name": "addMemeCoin",
      "outputs": [],
      "stateMutability": "nonpayable",
      "type": "function"
    },
    {
      "inputs": [
        {
          "internalType": "uint256",
          "name": "index",
          "type": "uint256"
        }
      ],
      "name": "getMemeCoin",
      "outputs": [
        {
          "internalType": "string",
          "name": "name",
          "type": "string"
        },
        {
          "internalType": "address",
          "name": "addr",
          "type": "address"
        },
        {
          "internalType": "uint8",
          "name": "decimals",
          "type": "uint8"
        }
      ],
      "stateMutability": "view",
      "type": "function"
    },
    {
      "inputs": [],
      "name": "getMemeCoinCount",
      "outputs": [
        {
          "internalType": "uint256",
          "name": "",
          "type": "uint256"
        }
      ],
      "stateMutability": "view",
      "type": "function"
    },
    {
      "inputs": [],
      "name": "lastRequestId",
      "outputs": [
        {
          "internalType": "uint256",
          "name": "",
          "type": "uint256"
        }
      ],
      "stateMutability": "view",
      "type": "function"
    },
    {
      "inputs": [],
      "name": "lastResponse",
      "outputs": [
        {
          "internalType": "bytes",
          "name": "",
          "type": "bytes"
        }
      ],
      "stateMutability": "view",
      "type": "function"
    },
    {
      "inputs": [],
      "name": "memeCoinAmount",
      "outputs": [
        {
          "internalType": "uint256",
          "name": "",
          "type": "uint256"
        }
      ],
      "stateMutability": "view",
      "type": "function"
    },
    {
      "inputs": [
        {
          "internalType": "uint256",
          "name": "",
          "type": "uint256"
        }
      ],
      "name": "memeCoins",
      "outputs": [
        {
          "internalType": "string",
          "name": "name",
          "type": "string"
        },
        {
          "internalType": "address",
          "name": "addr",
          "type": "address"
        },
        {
          "internalType": "uint8",
          "name": "decimals",
          "type": "uint8"
        }
      ],
      "stateMutability": "view",
      "type": "function"
    },
    {
      "inputs": [],
      "name": "owner",
      "outputs": [
        {
          "internalType": "address",
          "name": "",
          "type": "address"
        }
      ],
      "stateMutability": "view",
      "type": "function"
    },
    {
      "inputs": [
        {
          "internalType": "uint256",
          "name": "requestId",
          "type": "uint256"
        },
        {
          "components": [
            {
              "internalType": "string",
              "name": "name",
              "type": "string"
            },
            {
              "internalType": "bool",
              "name": "response",
              "type": "bool"
            }
          ],
          "internalType": "struct ADCSConsumerBase.StringAndBool",
          "name": "response",
          "type": "tuple"
        }
      ],
      "name": "rawFulfillDataRequest",
      "outputs": [],
      "stateMutability": "nonpayable",
      "type": "function"
    },
    {
      "inputs": [],
      "name": "renounceOwnership",
      "outputs": [],
      "stateMutability": "nonpayable",
      "type": "function"
    },
    {
      "inputs": [
        {
          "internalType": "bytes32",
          "name": "jobId",
          "type": "bytes32"
        },
        {
          "internalType": "uint32",
          "name": "callbackGasLimit",
          "type": "uint32"
        }
      ],
      "name": "requestTradeMemeCoin",
      "outputs": [
        {
          "internalType": "uint256",
          "name": "requestId",
          "type": "uint256"
        }
      ],
      "stateMutability": "nonpayable",
      "type": "function"
    },
    {
      "inputs": [
        {
          "internalType": "uint256",
          "name": "amount",
          "type": "uint256"
        }
      ],
      "name": "setWethAmountForTrade",
      "outputs": [],
      "stateMutability": "nonpayable",
      "type": "function"
    },
    {
      "inputs": [],
      "name": "swapRouter",
      "outputs": [
        {
          "internalType": "contract ISwapRouter",
          "name": "",
          "type": "address"
        }
      ],
      "stateMutability": "view",
      "type": "function"
    },
    {
      "inputs": [
        {
          "internalType": "uint256",
          "name": "requestId",
          "type": "uint256"
        },
        {
          "internalType": "string",
          "name": "tokenName",
          "type": "string"
        },
        {
          "internalType": "bool",
          "name": "result",
          "type": "bool"
        }
      ],
      "name": "tradeMemeCoin",
      "outputs": [],
      "stateMutability": "nonpayable",
      "type": "function"
    },
    {
      "inputs": [
        {
          "internalType": "address",
          "name": "newOwner",
          "type": "address"
        }
      ],
      "name": "transferOwnership",
      "outputs": [],
      "stateMutability": "nonpayable",
      "type": "function"
    },
    {
      "inputs": [],
      "name": "wethAmountForTrade",
      "outputs": [
        {
          "internalType": "uint256",
          "name": "",
          "type": "uint256"
        }
      ],
      "stateMutability": "view",
      "type": "function"
    },
    {
      "inputs": [],
      "name": "withdraw",
      "outputs": [],
      "stateMutability": "nonpayable",
      "type": "function"
    },
    {
      "inputs": [
        {
          "internalType": "address",
          "name": "token",
          "type": "address"
        }
      ],
      "name": "withdrawToken",
      "outputs": [],
      "stateMutability": "nonpayable",
      "type": "function"
    },
    {
      "stateMutability": "payable",
      "type": "receive"
    }
  ],
  "transactionHash": "0x3494f7f630971af0b3b2bbc9db2e39a84f80e789a3024573f2d52a2dea7f688f",
  "args": [
    "0xDD2631147BD866D588aA99E6B06Dc1633b6646D8",
    "0x82aF49447D8a07e3bd95BD0d56f35241523fBab1",
    "0xE592427A0AEce92De3Edee1F18E0157C05861564"
  ],
  "numDeployments": 12,
  "solcInputHash": "b777d1c1c30973fa3c5a2fd7c9fed1e2",
  "bytecode": "0x60e060405266038d7ea4c6800060045560646005553480156200002157600080fd5b50604051620031423803806200314283398181016040528101906200004791906200046d565b33838073ffffffffffffffffffffffffffffffffffffffff1660808173ffffffffffffffffffffffffffffffffffffffff168152505063ba9ecc9760e01b600080604051602001620000999062000524565b60405160208183030381529060405280519060200120815260200190815260200160002060006101000a81548163ffffffff021916908360e01c021790555063f8795e1060e01b600080604051602001620000f4906200058b565b60405160208183030381529060405280519060200120815260200190815260200160002060006101000a81548163ffffffff021916908360e01c02179055506313ab866360e01b6000806040516020016200014f90620005f2565b60405160208183030381529060405280519060200120815260200190815260200160002060006101000a81548163ffffffff021916908360e01c02179055506364d98f3660e01b600080604051602001620001aa9062000659565b60405160208183030381529060405280519060200120815260200190815260200160002060006101000a81548163ffffffff021916908360e01c021790555063de89dd5360e01b6000806040516020016200020590620006c0565b60405160208183030381529060405280519060200120815260200190815260200160002060006101000a81548163ffffffff021916908360e01c021790555050600073ffffffffffffffffffffffffffffffffffffffff168173ffffffffffffffffffffffffffffffffffffffff1603620002ba5760006040517f1e4fbdf7000000000000000000000000000000000000000000000000000000008152600401620002b19190620006e8565b60405180910390fd5b620002cb816200033d60201b60201c565b508173ffffffffffffffffffffffffffffffffffffffff1660a08173ffffffffffffffffffffffffffffffffffffffff16815250508073ffffffffffffffffffffffffffffffffffffffff1660c08173ffffffffffffffffffffffffffffffffffffffff168152505050505062000705565b6000600160009054906101000a900473ffffffffffffffffffffffffffffffffffffffff16905081600160006101000a81548173ffffffffffffffffffffffffffffffffffffffff021916908373ffffffffffffffffffffffffffffffffffffffff1602179055508173ffffffffffffffffffffffffffffffffffffffff168173ffffffffffffffffffffffffffffffffffffffff167f8be0079c531659141344cd1fd0a4f28419497f9722a3daafe3b4186f6b6457e060405160405180910390a35050565b600080fd5b600073ffffffffffffffffffffffffffffffffffffffff82169050919050565b6000620004358262000408565b9050919050565b620004478162000428565b81146200045357600080fd5b50565b60008151905062000467816200043c565b92915050565b60008060006060848603121562000489576200048862000403565b5b6000620004998682870162000456565b9350506020620004ac8682870162000456565b9250506040620004bf8682870162000456565b9150509250925092565b600081905092915050565b7f75696e7432353600000000000000000000000000000000000000000000000000600082015250565b60006200050c600783620004c9565b91506200051982620004d4565b600782019050919050565b60006200053182620004fd565b9150819050919050565b7f626f6f6c00000000000000000000000000000000000000000000000000000000600082015250565b600062000573600483620004c9565b915062000580826200053b565b600482019050919050565b6000620005988262000564565b9150819050919050565b7f6279746573333200000000000000000000000000000000000000000000000000600082015250565b6000620005da600783620004c9565b9150620005e782620005a2565b600782019050919050565b6000620005ff82620005cb565b9150819050919050565b7f6279746573000000000000000000000000000000000000000000000000000000600082015250565b600062000641600583620004c9565b91506200064e8262000609565b600582019050919050565b6000620006668262000632565b9150819050919050565b7f737472696e67416e64626f6f6c00000000000000000000000000000000000000600082015250565b6000620006a8600d83620004c9565b9150620006b58262000670565b600d82019050919050565b6000620006cd8262000699565b9150819050919050565b620006e28162000428565b82525050565b6000602082019050620006ff6000830184620006d7565b92915050565b60805160a05160c0516129c76200077b600039600081816109000152818161098501528181610b6701528181610bea01526112960152600081816108c4015281816109cd01528181610c4e0152611085015260008181610495015281816106d801528181610e7601526114d501526129c76000f3fe6080604052600436106101235760003560e01c80638da5cb5b116100a0578063c31c9c0711610064578063c31c9c07146103bc578063da7f08b8146103e7578063e4f39ccb14610412578063f2fde38b1461043d578063fc2a88c3146104665761012a565b80638da5cb5b146102d5578063ad5c464814610300578063af6c798a1461032b578063b0ff40e71461036a578063b859b743146103935761012a565b806362747e42116100e757806362747e4214610202578063715018a61461022d578063747b731614610244578063813f0e5a1461028157806389476069146102ac5761012a565b80630e2c871f1461012f57806329c275b6146101585780633b2bcbf1146101975780633ccfd60b146101c25780634f8338fa146101d95761012a565b3661012a57005b600080fd5b34801561013b57600080fd5b5061015660048036038101906101519190611914565b610491565b005b34801561016457600080fd5b5061017f600480360381019061017a9190611970565b610537565b60405161018e93929190611a79565b60405180910390f35b3480156101a357600080fd5b506101ac6106d6565b6040516101b99190611b16565b60405180910390f35b3480156101ce57600080fd5b506101d76106fa565b005b3480156101e557600080fd5b5061020060048036038101906101fb9190611b31565b610752565b005b34801561020e57600080fd5b50610217610d91565b6040516102249190611bf5565b60405180910390f35b34801561023957600080fd5b50610242610e1f565b005b34801561025057600080fd5b5061026b60048036038101906102669190611c89565b610e33565b6040516102789190611cd8565b60405180910390f35b34801561028d57600080fd5b50610296610f49565b6040516102a39190611cd8565b60405180910390f35b3480156102b857600080fd5b506102d360048036038101906102ce9190611d1f565b610f4f565b005b3480156102e157600080fd5b506102ea611059565b6040516102f79190611d4c565b60405180910390f35b34801561030c57600080fd5b50610315611083565b6040516103229190611d4c565b60405180910390f35b34801561033757600080fd5b50610352600480360381019061034d9190611970565b6110a7565b60405161036193929190611a79565b60405180910390f35b34801561037657600080fd5b50610391600480360381019061038c9190611970565b611196565b005b34801561039f57600080fd5b506103ba60048036038101906103b59190611d93565b6111a8565b005b3480156103c857600080fd5b506103d1611294565b6040516103de9190611e23565b60405180910390f35b3480156103f357600080fd5b506103fc6112b8565b6040516104099190611cd8565b60405180910390f35b34801561041e57600080fd5b506104276112c5565b6040516104349190611cd8565b60405180910390f35b34801561044957600080fd5b50610464600480360381019061045f9190611d1f565b6112cb565b005b34801561047257600080fd5b5061047b611351565b6040516104889190611cd8565b60405180910390f35b60007f000000000000000000000000000000000000000000000000000000000000000090508073ffffffffffffffffffffffffffffffffffffffff163373ffffffffffffffffffffffffffffffffffffffff16146105285733816040517f1cf993f400000000000000000000000000000000000000000000000000000000815260040161051f929190611e3e565b60405180910390fd5b6105328383611357565b505050565b60606000806006805490508410610583576040517f08c379a000000000000000000000000000000000000000000000000000000000815260040161057a90611eb3565b60405180910390fd5b60006006858154811061059957610598611ed3565b5b90600052602060002090600202016040518060600160405290816000820180546105c290611f31565b80601f01602080910402602001604051908101604052809291908181526020018280546105ee90611f31565b801561063b5780601f106106105761010080835404028352916020019161063b565b820191906000526020600020905b81548152906001019060200180831161061e57829003601f168201915b505050505081526020016001820160009054906101000a900473ffffffffffffffffffffffffffffffffffffffff1673ffffffffffffffffffffffffffffffffffffffff1673ffffffffffffffffffffffffffffffffffffffff1681526020016001820160149054906101000a900460ff1660ff1660ff16815250509050806000015181602001518260400151935093509350509193909250565b7f000000000000000000000000000000000000000000000000000000000000000081565b61070261137a565b61070a611059565b73ffffffffffffffffffffffffffffffffffffffff166108fc479081150290604051600060405180830381858888f1935050505015801561074f573d6000803e3d6000fd5b50565b61075a61137a565b60008060005b6006805490508110156108495784805190602001206006828154811061078957610788611ed3565b5b90600052602060002090600202016000016040516107a79190612005565b60405180910390200361083657600681815481106107c8576107c7611ed3565b5b906000526020600020906002020160010160009054906101000a900473ffffffffffffffffffffffffffffffffffffffff169250600681815481106108105761080f611ed3565b5b906000526020600020906002020160010160149054906101000a900460ff169150610849565b80806108419061204b565b915050610760565b50600073ffffffffffffffffffffffffffffffffffffffff168273ffffffffffffffffffffffffffffffffffffffff16036108bc577f563ebd046dc43cc5667717e18c14710259a4632f4366792e5cd6cc73181b07e8846040516108ad9190612093565b60405180910390a15050610d8c565b8215610b2b577f000000000000000000000000000000000000000000000000000000000000000073ffffffffffffffffffffffffffffffffffffffff1663095ea7b37f00000000000000000000000000000000000000000000000000000000000000006004546040518363ffffffff1660e01b815260040161093f9291906120b5565b6020604051808303816000875af115801561095e573d6000803e3d6000fd5b505050506040513d601f19601f8201168201806040525081019061098291906120f3565b507f000000000000000000000000000000000000000000000000000000000000000073ffffffffffffffffffffffffffffffffffffffff1663414bf3896040518061010001604052807f000000000000000000000000000000000000000000000000000000000000000073ffffffffffffffffffffffffffffffffffffffff1681526020018573ffffffffffffffffffffffffffffffffffffffff168152602001610bb862ffffff1681526020013073ffffffffffffffffffffffffffffffffffffffff16815260200161038442610a5a9190612120565b8152602001600454815260200160008152602001600073ffffffffffffffffffffffffffffffffffffffff168152506040518263ffffffff1660e01b8152600401610aa59190612241565b6020604051808303816000875af1158015610ac4573d6000803e3d6000fd5b505050506040513d601f19601f82011682018060405250810190610ae89190612272565b50847ffe937b9910f382875858f98d3eb21489abb83ab3a3c479a2f38f3e22e18a551c6004546001604051610b1e9291906122ae565b60405180910390a2610d89565b600081600a610b3a919061240a565b600554610b479190612455565b90508273ffffffffffffffffffffffffffffffffffffffff1663095ea7b37f0000000000000000000000000000000000000000000000000000000000000000836040518363ffffffff1660e01b8152600401610ba49291906120b5565b6020604051808303816000875af1158015610bc3573d6000803e3d6000fd5b505050506040513d601f19601f82011682018060405250810190610be791906120f3565b507f000000000000000000000000000000000000000000000000000000000000000073ffffffffffffffffffffffffffffffffffffffff1663414bf3896040518061010001604052808673ffffffffffffffffffffffffffffffffffffffff1681526020017f000000000000000000000000000000000000000000000000000000000000000073ffffffffffffffffffffffffffffffffffffffff168152602001610bb862ffffff1681526020013073ffffffffffffffffffffffffffffffffffffffff16815260200161038442610cbf9190612120565b815260200184815260200160008152602001600073ffffffffffffffffffffffffffffffffffffffff168152506040518263ffffffff1660e01b8152600401610d089190612241565b6020604051808303816000875af1158015610d27573d6000803e3d6000fd5b505050506040513d601f19601f82011682018060405250810190610d4b9190612272565b50857ffe937b9910f382875858f98d3eb21489abb83ab3a3c479a2f38f3e22e18a551c826000604051610d7f9291906122ae565b60405180910390a2505b50505b505050565b60028054610d9e90611f31565b80601f0160208091040260200160405190810160405280929190818152602001828054610dca90611f31565b8015610e175780601f10610dec57610100808354040283529160200191610e17565b820191906000526020600020905b815481529060010190602001808311610dfa57829003601f168201915b505050505081565b610e2761137a565b610e316000611401565b565b6000610e3d61137a565b6000604051602001610e4e906124ee565b6040516020818303038152906040528051906020012090506000610e7285836114c7565b90507f000000000000000000000000000000000000000000000000000000000000000073ffffffffffffffffffffffffffffffffffffffff166378cb441f85836040518363ffffffff1660e01b8152600401610ecf929190612659565b6020604051808303816000875af1158015610eee573d6000803e3d6000fd5b505050506040513d601f19601f82011682018060405250810190610f129190612272565b9250827f35627151f04080049c4603628b94879b241dc64b255b7347a7632165d45ee51e60405160405180910390a2505092915050565b60055481565b610f5761137a565b8073ffffffffffffffffffffffffffffffffffffffff1663a9059cbb610f7b611059565b8373ffffffffffffffffffffffffffffffffffffffff166370a08231306040518263ffffffff1660e01b8152600401610fb49190611d4c565b602060405180830381865afa158015610fd1573d6000803e3d6000fd5b505050506040513d601f19601f82011682018060405250810190610ff59190612272565b6040518363ffffffff1660e01b81526004016110129291906120b5565b6020604051808303816000875af1158015611031573d6000803e3d6000fd5b505050506040513d601f19601f8201168201806040525081019061105591906120f3565b5050565b6000600160009054906101000a900473ffffffffffffffffffffffffffffffffffffffff16905090565b7f000000000000000000000000000000000000000000000000000000000000000081565b600681815481106110b757600080fd5b90600052602060002090600202016000915090508060000180546110da90611f31565b80601f016020809104026020016040519081016040528092919081815260200182805461110690611f31565b80156111535780601f1061112857610100808354040283529160200191611153565b820191906000526020600020905b81548152906001019060200180831161113657829003601f168201915b5050505050908060010160009054906101000a900473ffffffffffffffffffffffffffffffffffffffff16908060010160149054906101000a900460ff16905083565b61119e61137a565b8060048190555050565b6111b061137a565b600660405180606001604052808581526020018473ffffffffffffffffffffffffffffffffffffffff1681526020018360ff1681525090806001815401808255809150506001900390600052602060002090600202016000909190919091506000820151816000019081611224919061282b565b5060208201518160010160006101000a81548173ffffffffffffffffffffffffffffffffffffffff021916908373ffffffffffffffffffffffffffffffffffffffff16021790555060408201518160010160146101000a81548160ff021916908360ff1602179055505050505050565b7f000000000000000000000000000000000000000000000000000000000000000081565b6000600680549050905090565b60045481565b6112d361137a565b600073ffffffffffffffffffffffffffffffffffffffff168173ffffffffffffffffffffffffffffffffffffffff16036113455760006040517f1e4fbdf700000000000000000000000000000000000000000000000000000000815260040161133c9190611d4c565b60405180910390fd5b61134e81611401565b50565b60035481565b600081600001519050600082602001519050611374848383610752565b50505050565b61138261152d565b73ffffffffffffffffffffffffffffffffffffffff166113a0611059565b73ffffffffffffffffffffffffffffffffffffffff16146113ff576113c361152d565b6040517f118cdaa70000000000000000000000000000000000000000000000000000000081526004016113f69190611d4c565b60405180910390fd5b565b6000600160009054906101000a900473ffffffffffffffffffffffffffffffffffffffff16905081600160006101000a81548173ffffffffffffffffffffffffffffffffffffffff021916908373ffffffffffffffffffffffffffffffffffffffff1602179055508173ffffffffffffffffffffffffffffffffffffffff168173ffffffffffffffffffffffffffffffffffffffff167f8be0079c531659141344cd1fd0a4f28419497f9722a3daafe3b4186f6b6457e060405160405180910390a35050565b6114cf61164f565b611525837f000000000000000000000000000000000000000000000000000000000000000060008086815260200190815260200160002060009054906101000a900460e01b84611535909392919063ffffffff16565b905092915050565b600033905090565b61153d61164f565b61154d85608001516101006115e5565b508385600001818152505082856020019073ffffffffffffffffffffffffffffffffffffffff16908173ffffffffffffffffffffffffffffffffffffffff16815250508185604001907bffffffffffffffffffffffffffffffffffffffffffffffffffffffff191690817bffffffffffffffffffffffffffffffffffffffffffffffffffffffff191681525050849050949350505050565b6115ed6116bc565b60006020836115fc919061292c565b146116285760208261160e919061292c565b602061161a919061295d565b826116259190612120565b91505b81836020018181525050604051808452600081528281016020016040525082905092915050565b6040518060a0016040528060008019168152602001600073ffffffffffffffffffffffffffffffffffffffff16815260200160007bffffffffffffffffffffffffffffffffffffffffffffffffffffffff19168152602001600081526020016116b66116bc565b81525090565b604051806040016040528060608152602001600081525090565b6000604051905090565b600080fd5b600080fd5b6000819050919050565b6116fd816116ea565b811461170857600080fd5b50565b60008135905061171a816116f4565b92915050565b600080fd5b6000601f19601f8301169050919050565b7f4e487b7100000000000000000000000000000000000000000000000000000000600052604160045260246000fd5b61176e82611725565b810181811067ffffffffffffffff8211171561178d5761178c611736565b5b80604052505050565b60006117a06116d6565b90506117ac8282611765565b919050565b600080fd5b600080fd5b600080fd5b600067ffffffffffffffff8211156117db576117da611736565b5b6117e482611725565b9050602081019050919050565b82818337600083830152505050565b600061181361180e846117c0565b611796565b90508281526020810184848401111561182f5761182e6117bb565b5b61183a8482856117f1565b509392505050565b600082601f830112611857576118566117b6565b5b8135611867848260208601611800565b91505092915050565b60008115159050919050565b61188581611870565b811461189057600080fd5b50565b6000813590506118a28161187c565b92915050565b6000604082840312156118be576118bd611720565b5b6118c86040611796565b9050600082013567ffffffffffffffff8111156118e8576118e76117b1565b5b6118f484828501611842565b600083015250602061190884828501611893565b60208301525092915050565b6000806040838503121561192b5761192a6116e0565b5b60006119398582860161170b565b925050602083013567ffffffffffffffff81111561195a576119596116e5565b5b611966858286016118a8565b9150509250929050565b600060208284031215611986576119856116e0565b5b60006119948482850161170b565b91505092915050565b600081519050919050565b600082825260208201905092915050565b60005b838110156119d75780820151818401526020810190506119bc565b60008484015250505050565b60006119ee8261199d565b6119f881856119a8565b9350611a088185602086016119b9565b611a1181611725565b840191505092915050565b600073ffffffffffffffffffffffffffffffffffffffff82169050919050565b6000611a4782611a1c565b9050919050565b611a5781611a3c565b82525050565b600060ff82169050919050565b611a7381611a5d565b82525050565b60006060820190508181036000830152611a9381866119e3565b9050611aa26020830185611a4e565b611aaf6040830184611a6a565b949350505050565b6000819050919050565b6000611adc611ad7611ad284611a1c565b611ab7565b611a1c565b9050919050565b6000611aee82611ac1565b9050919050565b6000611b0082611ae3565b9050919050565b611b1081611af5565b82525050565b6000602082019050611b2b6000830184611b07565b92915050565b600080600060608486031215611b4a57611b496116e0565b5b6000611b588682870161170b565b935050602084013567ffffffffffffffff811115611b7957611b786116e5565b5b611b8586828701611842565b9250506040611b9686828701611893565b9150509250925092565b600081519050919050565b600082825260208201905092915050565b6000611bc782611ba0565b611bd18185611bab565b9350611be18185602086016119b9565b611bea81611725565b840191505092915050565b60006020820190508181036000830152611c0f8184611bbc565b905092915050565b6000819050919050565b611c2a81611c17565b8114611c3557600080fd5b50565b600081359050611c4781611c21565b92915050565b600063ffffffff82169050919050565b611c6681611c4d565b8114611c7157600080fd5b50565b600081359050611c8381611c5d565b92915050565b60008060408385031215611ca057611c9f6116e0565b5b6000611cae85828601611c38565b9250506020611cbf85828601611c74565b9150509250929050565b611cd2816116ea565b82525050565b6000602082019050611ced6000830184611cc9565b92915050565b611cfc81611a3c565b8114611d0757600080fd5b50565b600081359050611d1981611cf3565b92915050565b600060208284031215611d3557611d346116e0565b5b6000611d4384828501611d0a565b91505092915050565b6000602082019050611d616000830184611a4e565b92915050565b611d7081611a5d565b8114611d7b57600080fd5b50565b600081359050611d8d81611d67565b92915050565b600080600060608486031215611dac57611dab6116e0565b5b600084013567ffffffffffffffff811115611dca57611dc96116e5565b5b611dd686828701611842565b9350506020611de786828701611d0a565b9250506040611df886828701611d7e565b9150509250925092565b6000611e0d82611ae3565b9050919050565b611e1d81611e02565b82525050565b6000602082019050611e386000830184611e14565b92915050565b6000604082019050611e536000830185611a4e565b611e606020830184611a4e565b9392505050565b7f496e646578206f7574206f6620626f756e647300000000000000000000000000600082015250565b6000611e9d6013836119a8565b9150611ea882611e67565b602082019050919050565b60006020820190508181036000830152611ecc81611e90565b9050919050565b7f4e487b7100000000000000000000000000000000000000000000000000000000600052603260045260246000fd5b7f4e487b7100000000000000000000000000000000000000000000000000000000600052602260045260246000fd5b60006002820490506001821680611f4957607f821691505b602082108103611f5c57611f5b611f02565b5b50919050565b600081905092915050565b60008190508160005260206000209050919050565b60008154611f8f81611f31565b611f998186611f62565b94506001821660008114611fb45760018114611fc957611ffc565b60ff1983168652811515820286019350611ffc565b611fd285611f6d565b60005b83811015611ff457815481890152600182019150602081019050611fd5565b838801955050505b50505092915050565b60006120118284611f82565b915081905092915050565b7f4e487b7100000000000000000000000000000000000000000000000000000000600052601160045260246000fd5b6000612056826116ea565b91507fffffffffffffffffffffffffffffffffffffffffffffffffffffffffffffffff82036120885761208761201c565b5b600182019050919050565b600060208201905081810360008301526120ad81846119e3565b905092915050565b60006040820190506120ca6000830185611a4e565b6120d76020830184611cc9565b9392505050565b6000815190506120ed8161187c565b92915050565b600060208284031215612109576121086116e0565b5b6000612117848285016120de565b91505092915050565b600061212b826116ea565b9150612136836116ea565b925082820190508082111561214e5761214d61201c565b5b92915050565b61215d81611a3c565b82525050565b600062ffffff82169050919050565b61217b81612163565b82525050565b61218a816116ea565b82525050565b61219981611a1c565b82525050565b610100820160008201516121b66000850182612154565b5060208201516121c96020850182612154565b5060408201516121dc6040850182612172565b5060608201516121ef6060850182612154565b5060808201516122026080850182612181565b5060a082015161221560a0850182612181565b5060c082015161222860c0850182612181565b5060e082015161223b60e0850182612190565b50505050565b600061010082019050612257600083018461219f565b92915050565b60008151905061226c816116f4565b92915050565b600060208284031215612288576122876116e0565b5b60006122968482850161225d565b91505092915050565b6122a881611870565b82525050565b60006040820190506122c36000830185611cc9565b6122d0602083018461229f565b9392505050565b60008160011c9050919050565b6000808291508390505b600185111561232e5780860481111561230a5761230961201c565b5b60018516156123195780820291505b8081029050612327856122d7565b94506122ee565b94509492505050565b6000826123475760019050612403565b816123555760009050612403565b816001811461236b5760028114612375576123a4565b6001915050612403565b60ff8411156123875761238661201c565b5b8360020a91508482111561239e5761239d61201c565b5b50612403565b5060208310610133831016604e8410600b84101617156123d95782820a9050838111156123d4576123d361201c565b5b612403565b6123e684848460016122e4565b925090508184048111156123fd576123fc61201c565b5b81810290505b9392505050565b6000612415826116ea565b915061242083611a5d565b925061244d7fffffffffffffffffffffffffffffffffffffffffffffffffffffffffffffffff8484612337565b905092915050565b6000612460826116ea565b915061246b836116ea565b9250828202612479816116ea565b915082820484148315176124905761248f61201c565b5b5092915050565b600081905092915050565b7f737472696e67416e64626f6f6c00000000000000000000000000000000000000600082015250565b60006124d8600d83612497565b91506124e3826124a2565b600d82019050919050565b60006124f9826124cb565b9150819050919050565b61250c81611c4d565b82525050565b61251b81611c17565b82525050565b60007fffffffff0000000000000000000000000000000000000000000000000000000082169050919050565b61255681612521565b82525050565b600082825260208201905092915050565b600061257882611ba0565b612582818561255c565b93506125928185602086016119b9565b61259b81611725565b840191505092915050565b600060408301600083015184820360008601526125c3828261256d565b91505060208301516125d86020860182612181565b508091505092915050565b600060a0830160008301516125fb6000860182612512565b50602083015161260e6020860182612154565b506040830151612621604086018261254d565b5060608301516126346060860182612181565b506080830151848203608086015261264c82826125a6565b9150508091505092915050565b600060408201905061266e6000830185612503565b818103602083015261268081846125e3565b90509392505050565b60008190508160005260206000209050919050565b60006020601f8301049050919050565b600082821b905092915050565b6000600883026126eb7fffffffffffffffffffffffffffffffffffffffffffffffffffffffffffffffff826126ae565b6126f586836126ae565b95508019841693508086168417925050509392505050565b600061272861272361271e846116ea565b611ab7565b6116ea565b9050919050565b6000819050919050565b6127428361270d565b61275661274e8261272f565b8484546126bb565b825550505050565b600090565b61276b61275e565b612776818484612739565b505050565b5b8181101561279a5761278f600082612763565b60018101905061277c565b5050565b601f8211156127df576127b081612689565b6127b98461269e565b810160208510156127c8578190505b6127dc6127d48561269e565b83018261277b565b50505b505050565b600082821c905092915050565b6000612802600019846008026127e4565b1980831691505092915050565b600061281b83836127f1565b9150826002028217905092915050565b6128348261199d565b67ffffffffffffffff81111561284d5761284c611736565b5b6128578254611f31565b61286282828561279e565b600060209050601f8311600181146128955760008415612883578287015190505b61288d858261280f565b8655506128f5565b601f1984166128a386612689565b60005b828110156128cb578489015182556001820191506020850194506020810190506128a6565b868310156128e857848901516128e4601f8916826127f1565b8355505b6001600288020188555050505b505050505050565b7f4e487b7100000000000000000000000000000000000000000000000000000000600052601260045260246000fd5b6000612937826116ea565b9150612942836116ea565b925082612952576129516128fd565b5b828206905092915050565b6000612968826116ea565b9150612973836116ea565b925082820390508181111561298b5761298a61201c565b5b9291505056fea2646970667358221220fa38ecb514d4873ae083efe144ac1819f228e9c8ace977df3e1ad7e1f168d4da64736f6c63430008140033",
  "devdoc": {
    "errors": {
      "OwnableInvalidOwner(address)": [
        {
          "details": "The owner is not a valid owner account. (eg. `address(0)`)"
        }
      ],
      "OwnableUnauthorizedAccount(address)": [
        {
          "details": "The caller account is not authorized to perform an operation."
        }
      ]
    },
    "kind": "dev",
    "methods": {
      "addMemeCoin(string,address,uint8)": {
        "params": {
          "addr": "The contract address of the memecoin",
          "decimals": "The decimals of the memecoin",
          "name": "The name of the memecoin"
        }
      },
      "getMemeCoin(uint256)": {
        "params": {
          "index": "The index in the memecoins array"
        },
        "returns": {
          "addr": "The memecoin contract address",
          "decimals": "The decimals of the memecoin",
          "name": "The memecoin name"
        }
      },
      "getMemeCoinCount()": {
        "returns": {
          "_0": "The length of the memecoins array"
        }
      },
      "owner()": {
        "details": "Returns the address of the current owner."
      },
      "renounceOwnership()": {
        "details": "Leaves the contract without owner. It will not be possible to call `onlyOwner` functions. Can only be called by the current owner. NOTE: Renouncing ownership will leave the contract without an owner, thereby disabling any functionality that is only available to the owner."
      },
      "transferOwnership(address)": {
        "details": "Transfers ownership of the contract to a new account (`newOwner`). Can only be called by the current owner."
      }
    },
    "version": 1
  },
  "userdoc": {
    "kind": "user",
    "methods": {
      "addMemeCoin(string,address,uint8)": {
        "notice": "Add a new memecoin to the list"
      },
      "getMemeCoin(uint256)": {
        "notice": "Get a memecoin by index"
      },
      "getMemeCoinCount()": {
        "notice": "Get the total number of memecoins in the list"
      }
    },
    "version": 1
  },
  "storageLayout": {
    "storage": [
      {
        "astId": 417,
        "contract": "src/mock/MockTradeMemeCoin.sol:MockTradeMemeCoin",
        "label": "sTypeIdToFunctionSelector",
        "offset": 0,
        "slot": "0",
        "type": "t_mapping(t_bytes32,t_bytes4)"
      },
      {
        "astId": 8,
        "contract": "src/mock/MockTradeMemeCoin.sol:MockTradeMemeCoin",
        "label": "_owner",
        "offset": 0,
        "slot": "1",
        "type": "t_address"
      },
      {
        "astId": 2052,
        "contract": "src/mock/MockTradeMemeCoin.sol:MockTradeMemeCoin",
        "label": "lastResponse",
        "offset": 0,
        "slot": "2",
        "type": "t_bytes_storage"
      },
      {
        "astId": 2054,
        "contract": "src/mock/MockTradeMemeCoin.sol:MockTradeMemeCoin",
        "label": "lastRequestId",
        "offset": 0,
        "slot": "3",
        "type": "t_uint256"
      },
      {
        "astId": 2057,
        "contract": "src/mock/MockTradeMemeCoin.sol:MockTradeMemeCoin",
        "label": "wethAmountForTrade",
        "offset": 0,
        "slot": "4",
        "type": "t_uint256"
      },
      {
        "astId": 2060,
        "contract": "src/mock/MockTradeMemeCoin.sol:MockTradeMemeCoin",
        "label": "memeCoinAmount",
        "offset": 0,
        "slot": "5",
        "type": "t_uint256"
      },
      {
        "astId": 2071,
        "contract": "src/mock/MockTradeMemeCoin.sol:MockTradeMemeCoin",
        "label": "memeCoins",
        "offset": 0,
        "slot": "6",
        "type": "t_array(t_struct(MemeCoin)2067_storage)dyn_storage"
      }
    ],
    "types": {
      "t_address": {
        "encoding": "inplace",
        "label": "address",
        "numberOfBytes": "20"
      },
      "t_array(t_struct(MemeCoin)2067_storage)dyn_storage": {
        "base": "t_struct(MemeCoin)2067_storage",
        "encoding": "dynamic_array",
        "label": "struct MockTradeMemeCoin.MemeCoin[]",
        "numberOfBytes": "32"
      },
      "t_bytes32": {
        "encoding": "inplace",
        "label": "bytes32",
        "numberOfBytes": "32"
      },
      "t_bytes4": {
        "encoding": "inplace",
        "label": "bytes4",
        "numberOfBytes": "4"
      },
      "t_bytes_storage": {
        "encoding": "bytes",
        "label": "bytes",
        "numberOfBytes": "32"
      },
      "t_mapping(t_bytes32,t_bytes4)": {
        "encoding": "mapping",
        "key": "t_bytes32",
        "label": "mapping(bytes32 => bytes4)",
        "numberOfBytes": "32",
        "value": "t_bytes4"
      },
      "t_string_storage": {
        "encoding": "bytes",
        "label": "string",
        "numberOfBytes": "32"
      },
      "t_struct(MemeCoin)2067_storage": {
        "encoding": "inplace",
        "label": "struct MockTradeMemeCoin.MemeCoin",
        "members": [
          {
            "astId": 2062,
            "contract": "src/mock/MockTradeMemeCoin.sol:MockTradeMemeCoin",
            "label": "name",
            "offset": 0,
            "slot": "0",
            "type": "t_string_storage"
          },
          {
            "astId": 2064,
            "contract": "src/mock/MockTradeMemeCoin.sol:MockTradeMemeCoin",
            "label": "addr",
            "offset": 0,
            "slot": "1",
            "type": "t_address"
          },
          {
            "astId": 2066,
            "contract": "src/mock/MockTradeMemeCoin.sol:MockTradeMemeCoin",
            "label": "decimals",
            "offset": 20,
            "slot": "1",
            "type": "t_uint8"
          }
        ],
        "numberOfBytes": "64"
      },
      "t_uint256": {
        "encoding": "inplace",
        "label": "uint256",
        "numberOfBytes": "32"
      },
      "t_uint8": {
        "encoding": "inplace",
        "label": "uint8",
        "numberOfBytes": "1"
      }
    }
  }
}