{
  "address": "0x15aE2d3974FB1ceC492Ec1Feba9b3f84CA357B36",
  "abi": [
    {
      "inputs": [
        {
          "internalType": "address",
          "name": "_coordinator",
          "type": "address"
        },
        {
          "internalType": "address",
          "name": "_weth",
          "type": "address"
        },
        {
          "internalType": "address",
          "name": "_swapRouter",
          "type": "address"
        }
      ],
      "stateMutability": "nonpayable",
      "type": "constructor"
    },
    {
      "inputs": [
        {
          "internalType": "address",
          "name": "have",
          "type": "address"
        },
        {
          "internalType": "address",
          "name": "want",
          "type": "address"
        }
      ],
      "name": "OnlyCoordinatorCanFulfill",
      "type": "error"
    },
    {
      "inputs": [
        {
          "internalType": "address",
          "name": "owner",
          "type": "address"
        }
      ],
      "name": "OwnableInvalidOwner",
      "type": "error"
    },
    {
      "inputs": [
        {
          "internalType": "address",
          "name": "account",
          "type": "address"
        }
      ],
      "name": "OwnableUnauthorizedAccount",
      "type": "error"
    },
    {
      "anonymous": false,
      "inputs": [
        {
          "indexed": true,
          "internalType": "uint256",
          "name": "requestId",
          "type": "uint256"
        },
        {
          "indexed": false,
          "internalType": "bytes",
          "name": "response",
          "type": "bytes"
        }
      ],
      "name": "DataFulfilled",
      "type": "event"
    },
    {
      "anonymous": false,
      "inputs": [
        {
          "indexed": true,
          "internalType": "uint256",
          "name": "requestId",
          "type": "uint256"
        }
      ],
      "name": "DataRequested",
      "type": "event"
    },
    {
      "anonymous": false,
      "inputs": [
        {
          "indexed": false,
          "internalType": "string",
          "name": "tokenName",
          "type": "string"
        }
      ],
      "name": "MemecoinNotFound",
      "type": "event"
    },
    {
      "anonymous": false,
      "inputs": [
        {
          "indexed": true,
          "internalType": "address",
          "name": "previousOwner",
          "type": "address"
        },
        {
          "indexed": true,
          "internalType": "address",
          "name": "newOwner",
          "type": "address"
        }
      ],
      "name": "OwnershipTransferred",
      "type": "event"
    },
    {
      "anonymous": false,
      "inputs": [
        {
          "indexed": true,
          "internalType": "uint256",
          "name": "requestId",
          "type": "uint256"
        },
        {
          "indexed": false,
          "internalType": "uint256",
          "name": "amountIn",
          "type": "uint256"
        },
        {
          "indexed": false,
          "internalType": "bool",
          "name": "isBuy",
          "type": "bool"
        }
      ],
      "name": "TradeSuccess",
      "type": "event"
    },
    {
      "inputs": [],
      "name": "COORDINATOR",
      "outputs": [
        {
          "internalType": "contract IADCSCoordinator",
          "name": "",
          "type": "address"
        }
      ],
      "stateMutability": "view",
      "type": "function"
    },
    {
      "inputs": [],
      "name": "WETH",
      "outputs": [
        {
          "internalType": "address",
          "name": "",
          "type": "address"
        }
      ],
      "stateMutability": "view",
      "type": "function"
    },
    {
      "inputs": [
        {
          "internalType": "string",
          "name": "name",
          "type": "string"
        },
        {
          "internalType": "address",
          "name": "addr",
          "type": "address"
        },
        {
          "internalType": "uint8",
          "name": "decimals",
          "type": "uint8"
        }
      ],
      "name": "addMemeCoin",
      "outputs": [],
      "stateMutability": "nonpayable",
      "type": "function"
    },
    {
      "inputs": [
        {
          "internalType": "uint256",
          "name": "index",
          "type": "uint256"
        }
      ],
      "name": "getMemeCoin",
      "outputs": [
        {
          "internalType": "string",
          "name": "name",
          "type": "string"
        },
        {
          "internalType": "address",
          "name": "addr",
          "type": "address"
        },
        {
          "internalType": "uint8",
          "name": "decimals",
          "type": "uint8"
        }
      ],
      "stateMutability": "view",
      "type": "function"
    },
    {
      "inputs": [],
      "name": "getMemeCoinCount",
      "outputs": [
        {
          "internalType": "uint256",
          "name": "",
          "type": "uint256"
        }
      ],
      "stateMutability": "view",
      "type": "function"
    },
    {
      "inputs": [],
      "name": "lastRequestId",
      "outputs": [
        {
          "internalType": "uint256",
          "name": "",
          "type": "uint256"
        }
      ],
      "stateMutability": "view",
      "type": "function"
    },
    {
      "inputs": [],
      "name": "lastResponse",
      "outputs": [
        {
          "internalType": "bytes",
          "name": "",
          "type": "bytes"
        }
      ],
      "stateMutability": "view",
      "type": "function"
    },
    {
      "inputs": [],
      "name": "memeCoinAmount",
      "outputs": [
        {
          "internalType": "uint256",
          "name": "",
          "type": "uint256"
        }
      ],
      "stateMutability": "view",
      "type": "function"
    },
    {
      "inputs": [
        {
          "internalType": "uint256",
          "name": "",
          "type": "uint256"
        }
      ],
      "name": "memeCoins",
      "outputs": [
        {
          "internalType": "string",
          "name": "name",
          "type": "string"
        },
        {
          "internalType": "address",
          "name": "addr",
          "type": "address"
        },
        {
          "internalType": "uint8",
          "name": "decimals",
          "type": "uint8"
        }
      ],
      "stateMutability": "view",
      "type": "function"
    },
    {
      "inputs": [],
      "name": "owner",
      "outputs": [
        {
          "internalType": "address",
          "name": "",
          "type": "address"
        }
      ],
      "stateMutability": "view",
      "type": "function"
    },
    {
      "inputs": [
        {
          "internalType": "uint256",
          "name": "requestId",
          "type": "uint256"
        },
        {
          "components": [
            {
              "internalType": "string",
              "name": "name",
              "type": "string"
            },
            {
              "internalType": "bool",
              "name": "response",
              "type": "bool"
            }
          ],
          "internalType": "struct ADCSConsumerBase.StringAndBool",
          "name": "response",
          "type": "tuple"
        }
      ],
      "name": "rawFulfillDataRequest",
      "outputs": [],
      "stateMutability": "nonpayable",
      "type": "function"
    },
    {
      "inputs": [],
      "name": "renounceOwnership",
      "outputs": [],
      "stateMutability": "nonpayable",
      "type": "function"
    },
    {
      "inputs": [
        {
          "internalType": "bytes32",
          "name": "jobId",
          "type": "bytes32"
        },
        {
          "internalType": "uint256",
          "name": "callbackGasLimit",
          "type": "uint256"
        }
      ],
      "name": "requestTradeMemeCoin",
      "outputs": [
        {
          "internalType": "uint256",
          "name": "requestId",
          "type": "uint256"
        }
      ],
      "stateMutability": "nonpayable",
      "type": "function"
    },
    {
      "inputs": [
        {
          "internalType": "uint256",
          "name": "amount",
          "type": "uint256"
        }
      ],
      "name": "setWethAmountForTrade",
      "outputs": [],
      "stateMutability": "nonpayable",
      "type": "function"
    },
    {
      "inputs": [],
      "name": "swapRouter",
      "outputs": [
        {
          "internalType": "contract ISwapRouter",
          "name": "",
          "type": "address"
        }
      ],
      "stateMutability": "view",
      "type": "function"
    },
    {
      "inputs": [
        {
          "internalType": "address",
          "name": "newOwner",
          "type": "address"
        }
      ],
      "name": "transferOwnership",
      "outputs": [],
      "stateMutability": "nonpayable",
      "type": "function"
    },
    {
      "inputs": [],
      "name": "wethAmountForTrade",
      "outputs": [
        {
          "internalType": "uint256",
          "name": "",
          "type": "uint256"
        }
      ],
      "stateMutability": "view",
      "type": "function"
    },
    {
      "inputs": [],
      "name": "withdraw",
      "outputs": [],
      "stateMutability": "nonpayable",
      "type": "function"
    },
    {
      "inputs": [
        {
          "internalType": "address",
          "name": "token",
          "type": "address"
        }
      ],
      "name": "withdrawToken",
      "outputs": [],
      "stateMutability": "nonpayable",
      "type": "function"
    },
    {
      "stateMutability": "payable",
      "type": "receive"
    }
  ],
  "transactionHash": "0x0af99b3ecd6e7bbd98b94e9b8de71594156613c27483d527243069be07c76a63",
  "args": [
    "0x07811b8B6151db734b8D1568918d3A62607879a7",
    "0x82aF49447D8a07e3bd95BD0d56f35241523fBab1",
    "0xE592427A0AEce92De3Edee1F18E0157C05861564"
  ],
  "numDeployments": 16,
  "solcInputHash": "e27f1b5a4eb53d647997899a34d80247",
  "bytecode": "0x60e060405266038d7ea4c6800060045560646005553480156200002157600080fd5b50604051620030433803806200304383398181016040528101906200004791906200046d565b33838073ffffffffffffffffffffffffffffffffffffffff1660808173ffffffffffffffffffffffffffffffffffffffff168152505063e9d3462860e01b600080604051602001620000999062000524565b60405160208183030381529060405280519060200120815260200190815260200160002060006101000a81548163ffffffff021916908360e01c0217905550634b9c308360e01b600080604051602001620000f4906200058b565b60405160208183030381529060405280519060200120815260200190815260200160002060006101000a81548163ffffffff021916908360e01c0217905550631228cabf60e01b6000806040516020016200014f90620005f2565b60405160208183030381529060405280519060200120815260200190815260200160002060006101000a81548163ffffffff021916908360e01c02179055506329ba70c460e01b600080604051602001620001aa9062000659565b60405160208183030381529060405280519060200120815260200190815260200160002060006101000a81548163ffffffff021916908360e01c0217905550632f44d44960e01b6000806040516020016200020590620006c0565b60405160208183030381529060405280519060200120815260200190815260200160002060006101000a81548163ffffffff021916908360e01c021790555050600073ffffffffffffffffffffffffffffffffffffffff168173ffffffffffffffffffffffffffffffffffffffff1603620002ba5760006040517f1e4fbdf7000000000000000000000000000000000000000000000000000000008152600401620002b19190620006e8565b60405180910390fd5b620002cb816200033d60201b60201c565b508173ffffffffffffffffffffffffffffffffffffffff1660a08173ffffffffffffffffffffffffffffffffffffffff16815250508073ffffffffffffffffffffffffffffffffffffffff1660c08173ffffffffffffffffffffffffffffffffffffffff168152505050505062000705565b6000600160009054906101000a900473ffffffffffffffffffffffffffffffffffffffff16905081600160006101000a81548173ffffffffffffffffffffffffffffffffffffffff021916908373ffffffffffffffffffffffffffffffffffffffff1602179055508173ffffffffffffffffffffffffffffffffffffffff168173ffffffffffffffffffffffffffffffffffffffff167f8be0079c531659141344cd1fd0a4f28419497f9722a3daafe3b4186f6b6457e060405160405180910390a35050565b600080fd5b600073ffffffffffffffffffffffffffffffffffffffff82169050919050565b6000620004358262000408565b9050919050565b620004478162000428565b81146200045357600080fd5b50565b60008151905062000467816200043c565b92915050565b60008060006060848603121562000489576200048862000403565b5b6000620004998682870162000456565b9350506020620004ac8682870162000456565b9250506040620004bf8682870162000456565b9150509250925092565b600081905092915050565b7f75696e7432353600000000000000000000000000000000000000000000000000600082015250565b60006200050c600783620004c9565b91506200051982620004d4565b600782019050919050565b60006200053182620004fd565b9150819050919050565b7f626f6f6c00000000000000000000000000000000000000000000000000000000600082015250565b600062000573600483620004c9565b915062000580826200053b565b600482019050919050565b6000620005988262000564565b9150819050919050565b7f6279746573333200000000000000000000000000000000000000000000000000600082015250565b6000620005da600783620004c9565b9150620005e782620005a2565b600782019050919050565b6000620005ff82620005cb565b9150819050919050565b7f6279746573000000000000000000000000000000000000000000000000000000600082015250565b600062000641600583620004c9565b91506200064e8262000609565b600582019050919050565b6000620006668262000632565b9150819050919050565b7f737472696e67416e64626f6f6c00000000000000000000000000000000000000600082015250565b6000620006a8600d83620004c9565b9150620006b58262000670565b600d82019050919050565b6000620006cd8262000699565b9150819050919050565b620006e28162000428565b82525050565b6000602082019050620006ff6000830184620006d7565b92915050565b60805160a05160c0516128c86200077b60003960008181610b0d01528181611057015281816110dc015281816112be01526113410152600081816108fc0152818161101b0152818161112401526113a5015260008181610461015281816106a401528181610b690152610e5901526128c86000f3fe6080604052600436106101185760003560e01c8063ad5c4648116100a0578063da6868f711610064578063da6868f714610376578063da7f08b8146103b3578063e4f39ccb146103de578063f2fde38b14610409578063fc2a88c3146104325761011f565b8063ad5c46481461028f578063af6c798a146102ba578063b0ff40e7146102f9578063b859b74314610322578063c31c9c071461034b5761011f565b806362747e42116100e757806362747e42146101ce578063715018a6146101f9578063813f0e5a14610210578063894760691461023b5780638da5cb5b146102645761011f565b80630e2c871f1461012457806329c275b61461014d5780633b2bcbf11461018c5780633ccfd60b146101b75761011f565b3661011f57005b600080fd5b34801561013057600080fd5b5061014b600480360381019061014691906118cf565b61045d565b005b34801561015957600080fd5b50610174600480360381019061016f919061192b565b610503565b60405161018393929190611a34565b60405180910390f35b34801561019857600080fd5b506101a16106a2565b6040516101ae9190611ad1565b60405180910390f35b3480156101c357600080fd5b506101cc6106c6565b005b3480156101da57600080fd5b506101e361071e565b6040516101f09190611b41565b60405180910390f35b34801561020557600080fd5b5061020e6107ac565b005b34801561021c57600080fd5b506102256107c0565b6040516102329190611b72565b60405180910390f35b34801561024757600080fd5b50610262600480360381019061025d9190611bb9565b6107c6565b005b34801561027057600080fd5b506102796108d0565b6040516102869190611be6565b60405180910390f35b34801561029b57600080fd5b506102a46108fa565b6040516102b19190611be6565b60405180910390f35b3480156102c657600080fd5b506102e160048036038101906102dc919061192b565b61091e565b6040516102f093929190611a34565b60405180910390f35b34801561030557600080fd5b50610320600480360381019061031b919061192b565b610a0d565b005b34801561032e57600080fd5b5061034960048036038101906103449190611c2d565b610a1f565b005b34801561035757600080fd5b50610360610b0b565b60405161036d9190611cbd565b60405180910390f35b34801561038257600080fd5b5061039d60048036038101906103989190611d0e565b610b2f565b6040516103aa9190611b72565b60405180910390f35b3480156103bf57600080fd5b506103c8610c3c565b6040516103d59190611b72565b60405180910390f35b3480156103ea57600080fd5b506103f3610c49565b6040516104009190611b72565b60405180910390f35b34801561041557600080fd5b50610430600480360381019061042b9190611bb9565b610c4f565b005b34801561043e57600080fd5b50610447610cd5565b6040516104549190611b72565b60405180910390f35b60007f000000000000000000000000000000000000000000000000000000000000000090508073ffffffffffffffffffffffffffffffffffffffff163373ffffffffffffffffffffffffffffffffffffffff16146104f45733816040517f1cf993f40000000000000000000000000000000000000000000000000000000081526004016104eb929190611d4e565b60405180910390fd5b6104fe8383610cdb565b505050565b6060600080600680549050841061054f576040517f08c379a000000000000000000000000000000000000000000000000000000000815260040161054690611dc3565b60405180910390fd5b60006006858154811061056557610564611de3565b5b906000526020600020906002020160405180606001604052908160008201805461058e90611e41565b80601f01602080910402602001604051908101604052809291908181526020018280546105ba90611e41565b80156106075780601f106105dc57610100808354040283529160200191610607565b820191906000526020600020905b8154815290600101906020018083116105ea57829003601f168201915b505050505081526020016001820160009054906101000a900473ffffffffffffffffffffffffffffffffffffffff1673ffffffffffffffffffffffffffffffffffffffff1673ffffffffffffffffffffffffffffffffffffffff1681526020016001820160149054906101000a900460ff1660ff1660ff16815250509050806000015181602001518260400151935093509350509193909250565b7f000000000000000000000000000000000000000000000000000000000000000081565b6106ce610cfe565b6106d66108d0565b73ffffffffffffffffffffffffffffffffffffffff166108fc479081150290604051600060405180830381858888f1935050505015801561071b573d6000803e3d6000fd5b50565b6002805461072b90611e41565b80601f016020809104026020016040519081016040528092919081815260200182805461075790611e41565b80156107a45780601f10610779576101008083540402835291602001916107a4565b820191906000526020600020905b81548152906001019060200180831161078757829003601f168201915b505050505081565b6107b4610cfe565b6107be6000610d85565b565b60055481565b6107ce610cfe565b8073ffffffffffffffffffffffffffffffffffffffff1663a9059cbb6107f26108d0565b8373ffffffffffffffffffffffffffffffffffffffff166370a08231306040518263ffffffff1660e01b815260040161082b9190611be6565b602060405180830381865afa158015610848573d6000803e3d6000fd5b505050506040513d601f19601f8201168201806040525081019061086c9190611e87565b6040518363ffffffff1660e01b8152600401610889929190611eb4565b6020604051808303816000875af11580156108a8573d6000803e3d6000fd5b505050506040513d601f19601f820116820180604052508101906108cc9190611ef2565b5050565b6000600160009054906101000a900473ffffffffffffffffffffffffffffffffffffffff16905090565b7f000000000000000000000000000000000000000000000000000000000000000081565b6006818154811061092e57600080fd5b906000526020600020906002020160009150905080600001805461095190611e41565b80601f016020809104026020016040519081016040528092919081815260200182805461097d90611e41565b80156109ca5780601f1061099f576101008083540402835291602001916109ca565b820191906000526020600020905b8154815290600101906020018083116109ad57829003601f168201915b5050505050908060010160009054906101000a900473ffffffffffffffffffffffffffffffffffffffff16908060010160149054906101000a900460ff16905083565b610a15610cfe565b8060048190555050565b610a27610cfe565b600660405180606001604052808581526020018473ffffffffffffffffffffffffffffffffffffffff1681526020018360ff1681525090806001815401808255809150506001900390600052602060002090600202016000909190919091506000820151816000019081610a9b91906120c1565b5060208201518160010160006101000a81548173ffffffffffffffffffffffffffffffffffffffff021916908373ffffffffffffffffffffffffffffffffffffffff16021790555060408201518160010160146101000a81548160ff021916908360ff1602179055505050505050565b7f000000000000000000000000000000000000000000000000000000000000000081565b600080604051602001610b41906121ea565b6040516020818303038152906040528051906020012090506000610b658583610e4b565b90507f000000000000000000000000000000000000000000000000000000000000000073ffffffffffffffffffffffffffffffffffffffff1663db750a2d85836040518363ffffffff1660e01b8152600401610bc2929190612364565b6020604051808303816000875af1158015610be1573d6000803e3d6000fd5b505050506040513d601f19601f82011682018060405250810190610c059190611e87565b9250827f35627151f04080049c4603628b94879b241dc64b255b7347a7632165d45ee51e60405160405180910390a2505092915050565b6000600680549050905090565b60045481565b610c57610cfe565b600073ffffffffffffffffffffffffffffffffffffffff168173ffffffffffffffffffffffffffffffffffffffff1603610cc95760006040517f1e4fbdf7000000000000000000000000000000000000000000000000000000008152600401610cc09190611be6565b60405180910390fd5b610cd281610d85565b50565b60035481565b600081600001519050600082602001519050610cf8848383610eb1565b50505050565b610d066114e8565b73ffffffffffffffffffffffffffffffffffffffff16610d246108d0565b73ffffffffffffffffffffffffffffffffffffffff1614610d8357610d476114e8565b6040517f118cdaa7000000000000000000000000000000000000000000000000000000008152600401610d7a9190611be6565b60405180910390fd5b565b6000600160009054906101000a900473ffffffffffffffffffffffffffffffffffffffff16905081600160006101000a81548173ffffffffffffffffffffffffffffffffffffffff021916908373ffffffffffffffffffffffffffffffffffffffff1602179055508173ffffffffffffffffffffffffffffffffffffffff168173ffffffffffffffffffffffffffffffffffffffff167f8be0079c531659141344cd1fd0a4f28419497f9722a3daafe3b4186f6b6457e060405160405180910390a35050565b610e5361160a565b610ea9837f000000000000000000000000000000000000000000000000000000000000000060008086815260200190815260200160002060009054906101000a900460e01b846114f0909392919063ffffffff16565b905092915050565b60008060005b600680549050811015610fa057848051906020012060068281548110610ee057610edf611de3565b5b9060005260206000209060020201600001604051610efe9190612437565b604051809103902003610f8d5760068181548110610f1f57610f1e611de3565b5b906000526020600020906002020160010160009054906101000a900473ffffffffffffffffffffffffffffffffffffffff16925060068181548110610f6757610f66611de3565b5b906000526020600020906002020160010160149054906101000a900460ff169150610fa0565b8080610f989061247d565b915050610eb7565b50600073ffffffffffffffffffffffffffffffffffffffff168273ffffffffffffffffffffffffffffffffffffffff1603611013577f563ebd046dc43cc5667717e18c14710259a4632f4366792e5cd6cc73181b07e88460405161100491906124c5565b60405180910390a150506114e3565b8215611282577f000000000000000000000000000000000000000000000000000000000000000073ffffffffffffffffffffffffffffffffffffffff1663095ea7b37f00000000000000000000000000000000000000000000000000000000000000006004546040518363ffffffff1660e01b8152600401611096929190611eb4565b6020604051808303816000875af11580156110b5573d6000803e3d6000fd5b505050506040513d601f19601f820116820180604052508101906110d99190611ef2565b507f000000000000000000000000000000000000000000000000000000000000000073ffffffffffffffffffffffffffffffffffffffff1663414bf3896040518061010001604052807f000000000000000000000000000000000000000000000000000000000000000073ffffffffffffffffffffffffffffffffffffffff1681526020018573ffffffffffffffffffffffffffffffffffffffff168152602001610bb862ffffff1681526020013073ffffffffffffffffffffffffffffffffffffffff168152602001610384426111b191906124e7565b8152602001600454815260200160008152602001600073ffffffffffffffffffffffffffffffffffffffff168152506040518263ffffffff1660e01b81526004016111fc91906125ea565b6020604051808303816000875af115801561121b573d6000803e3d6000fd5b505050506040513d601f19601f8201168201806040525081019061123f9190611e87565b50847ffe937b9910f382875858f98d3eb21489abb83ab3a3c479a2f38f3e22e18a551c6004546001604051611275929190612615565b60405180910390a26114e0565b600081600a6112919190612771565b60055461129e91906127bc565b90508273ffffffffffffffffffffffffffffffffffffffff1663095ea7b37f0000000000000000000000000000000000000000000000000000000000000000836040518363ffffffff1660e01b81526004016112fb929190611eb4565b6020604051808303816000875af115801561131a573d6000803e3d6000fd5b505050506040513d601f19601f8201168201806040525081019061133e9190611ef2565b507f000000000000000000000000000000000000000000000000000000000000000073ffffffffffffffffffffffffffffffffffffffff1663414bf3896040518061010001604052808673ffffffffffffffffffffffffffffffffffffffff1681526020017f000000000000000000000000000000000000000000000000000000000000000073ffffffffffffffffffffffffffffffffffffffff168152602001610bb862ffffff1681526020013073ffffffffffffffffffffffffffffffffffffffff1681526020016103844261141691906124e7565b815260200184815260200160008152602001600073ffffffffffffffffffffffffffffffffffffffff168152506040518263ffffffff1660e01b815260040161145f91906125ea565b6020604051808303816000875af115801561147e573d6000803e3d6000fd5b505050506040513d601f19601f820116820180604052508101906114a29190611e87565b50857ffe937b9910f382875858f98d3eb21489abb83ab3a3c479a2f38f3e22e18a551c8260006040516114d6929190612615565b60405180910390a2505b50505b505050565b600033905090565b6114f861160a565b61150885608001516101006115a0565b508385600001818152505082856020019073ffffffffffffffffffffffffffffffffffffffff16908173ffffffffffffffffffffffffffffffffffffffff16815250508185604001907bffffffffffffffffffffffffffffffffffffffffffffffffffffffff191690817bffffffffffffffffffffffffffffffffffffffffffffffffffffffff191681525050849050949350505050565b6115a8611677565b60006020836115b7919061282d565b146115e3576020826115c9919061282d565b60206115d5919061285e565b826115e091906124e7565b91505b81836020018181525050604051808452600081528281016020016040525082905092915050565b6040518060a0016040528060008019168152602001600073ffffffffffffffffffffffffffffffffffffffff16815260200160007bffffffffffffffffffffffffffffffffffffffffffffffffffffffff1916815260200160008152602001611671611677565b81525090565b604051806040016040528060608152602001600081525090565b6000604051905090565b600080fd5b600080fd5b6000819050919050565b6116b8816116a5565b81146116c357600080fd5b50565b6000813590506116d5816116af565b92915050565b600080fd5b6000601f19601f8301169050919050565b7f4e487b7100000000000000000000000000000000000000000000000000000000600052604160045260246000fd5b611729826116e0565b810181811067ffffffffffffffff82111715611748576117476116f1565b5b80604052505050565b600061175b611691565b90506117678282611720565b919050565b600080fd5b600080fd5b600080fd5b600067ffffffffffffffff821115611796576117956116f1565b5b61179f826116e0565b9050602081019050919050565b82818337600083830152505050565b60006117ce6117c98461177b565b611751565b9050828152602081018484840111156117ea576117e9611776565b5b6117f58482856117ac565b509392505050565b600082601f83011261181257611811611771565b5b81356118228482602086016117bb565b91505092915050565b60008115159050919050565b6118408161182b565b811461184b57600080fd5b50565b60008135905061185d81611837565b92915050565b600060408284031215611879576118786116db565b5b6118836040611751565b9050600082013567ffffffffffffffff8111156118a3576118a261176c565b5b6118af848285016117fd565b60008301525060206118c38482850161184e565b60208301525092915050565b600080604083850312156118e6576118e561169b565b5b60006118f4858286016116c6565b925050602083013567ffffffffffffffff811115611915576119146116a0565b5b61192185828601611863565b9150509250929050565b6000602082840312156119415761194061169b565b5b600061194f848285016116c6565b91505092915050565b600081519050919050565b600082825260208201905092915050565b60005b83811015611992578082015181840152602081019050611977565b60008484015250505050565b60006119a982611958565b6119b38185611963565b93506119c3818560208601611974565b6119cc816116e0565b840191505092915050565b600073ffffffffffffffffffffffffffffffffffffffff82169050919050565b6000611a02826119d7565b9050919050565b611a12816119f7565b82525050565b600060ff82169050919050565b611a2e81611a18565b82525050565b60006060820190508181036000830152611a4e818661199e565b9050611a5d6020830185611a09565b611a6a6040830184611a25565b949350505050565b6000819050919050565b6000611a97611a92611a8d846119d7565b611a72565b6119d7565b9050919050565b6000611aa982611a7c565b9050919050565b6000611abb82611a9e565b9050919050565b611acb81611ab0565b82525050565b6000602082019050611ae66000830184611ac2565b92915050565b600081519050919050565b600082825260208201905092915050565b6000611b1382611aec565b611b1d8185611af7565b9350611b2d818560208601611974565b611b36816116e0565b840191505092915050565b60006020820190508181036000830152611b5b8184611b08565b905092915050565b611b6c816116a5565b82525050565b6000602082019050611b876000830184611b63565b92915050565b611b96816119f7565b8114611ba157600080fd5b50565b600081359050611bb381611b8d565b92915050565b600060208284031215611bcf57611bce61169b565b5b6000611bdd84828501611ba4565b91505092915050565b6000602082019050611bfb6000830184611a09565b92915050565b611c0a81611a18565b8114611c1557600080fd5b50565b600081359050611c2781611c01565b92915050565b600080600060608486031215611c4657611c4561169b565b5b600084013567ffffffffffffffff811115611c6457611c636116a0565b5b611c70868287016117fd565b9350506020611c8186828701611ba4565b9250506040611c9286828701611c18565b9150509250925092565b6000611ca782611a9e565b9050919050565b611cb781611c9c565b82525050565b6000602082019050611cd26000830184611cae565b92915050565b6000819050919050565b611ceb81611cd8565b8114611cf657600080fd5b50565b600081359050611d0881611ce2565b92915050565b60008060408385031215611d2557611d2461169b565b5b6000611d3385828601611cf9565b9250506020611d44858286016116c6565b9150509250929050565b6000604082019050611d636000830185611a09565b611d706020830184611a09565b9392505050565b7f496e646578206f7574206f6620626f756e647300000000000000000000000000600082015250565b6000611dad601383611963565b9150611db882611d77565b602082019050919050565b60006020820190508181036000830152611ddc81611da0565b9050919050565b7f4e487b7100000000000000000000000000000000000000000000000000000000600052603260045260246000fd5b7f4e487b7100000000000000000000000000000000000000000000000000000000600052602260045260246000fd5b60006002820490506001821680611e5957607f821691505b602082108103611e6c57611e6b611e12565b5b50919050565b600081519050611e81816116af565b92915050565b600060208284031215611e9d57611e9c61169b565b5b6000611eab84828501611e72565b91505092915050565b6000604082019050611ec96000830185611a09565b611ed66020830184611b63565b9392505050565b600081519050611eec81611837565b92915050565b600060208284031215611f0857611f0761169b565b5b6000611f1684828501611edd565b91505092915050565b60008190508160005260206000209050919050565b60006020601f8301049050919050565b600082821b905092915050565b600060088302611f817fffffffffffffffffffffffffffffffffffffffffffffffffffffffffffffffff82611f44565b611f8b8683611f44565b95508019841693508086168417925050509392505050565b6000611fbe611fb9611fb4846116a5565b611a72565b6116a5565b9050919050565b6000819050919050565b611fd883611fa3565b611fec611fe482611fc5565b848454611f51565b825550505050565b600090565b612001611ff4565b61200c818484611fcf565b505050565b5b8181101561203057612025600082611ff9565b600181019050612012565b5050565b601f8211156120755761204681611f1f565b61204f84611f34565b8101602085101561205e578190505b61207261206a85611f34565b830182612011565b50505b505050565b600082821c905092915050565b60006120986000198460080261207a565b1980831691505092915050565b60006120b18383612087565b9150826002028217905092915050565b6120ca82611958565b67ffffffffffffffff8111156120e3576120e26116f1565b5b6120ed8254611e41565b6120f8828285612034565b600060209050601f83116001811461212b5760008415612119578287015190505b61212385826120a5565b86555061218b565b601f19841661213986611f1f565b60005b828110156121615784890151825560018201915060208501945060208101905061213c565b8683101561217e578489015161217a601f891682612087565b8355505b6001600288020188555050505b505050505050565b600081905092915050565b7f737472696e67416e64626f6f6c00000000000000000000000000000000000000600082015250565b60006121d4600d83612193565b91506121df8261219e565b600d82019050919050565b60006121f5826121c7565b9150819050919050565b61220881611cd8565b82525050565b612217816119f7565b82525050565b60007fffffffff0000000000000000000000000000000000000000000000000000000082169050919050565b6122528161221d565b82525050565b612261816116a5565b82525050565b600082825260208201905092915050565b600061228382611aec565b61228d8185612267565b935061229d818560208601611974565b6122a6816116e0565b840191505092915050565b600060408301600083015184820360008601526122ce8282612278565b91505060208301516122e36020860182612258565b508091505092915050565b600060a08301600083015161230660008601826121ff565b506020830151612319602086018261220e565b50604083015161232c6040860182612249565b50606083015161233f6060860182612258565b506080830151848203608086015261235782826122b1565b9150508091505092915050565b60006040820190506123796000830185611b63565b818103602083015261238b81846122ee565b90509392505050565b600081905092915050565b60008190508160005260206000209050919050565b600081546123c181611e41565b6123cb8186612394565b945060018216600081146123e657600181146123fb5761242e565b60ff198316865281151582028601935061242e565b6124048561239f565b60005b8381101561242657815481890152600182019150602081019050612407565b838801955050505b50505092915050565b600061244382846123b4565b915081905092915050565b7f4e487b7100000000000000000000000000000000000000000000000000000000600052601160045260246000fd5b6000612488826116a5565b91507fffffffffffffffffffffffffffffffffffffffffffffffffffffffffffffffff82036124ba576124b961244e565b5b600182019050919050565b600060208201905081810360008301526124df818461199e565b905092915050565b60006124f2826116a5565b91506124fd836116a5565b92508282019050808211156125155761251461244e565b5b92915050565b600062ffffff82169050919050565b6125338161251b565b82525050565b612542816119d7565b82525050565b6101008201600082015161255f600085018261220e565b506020820151612572602085018261220e565b506040820151612585604085018261252a565b506060820151612598606085018261220e565b5060808201516125ab6080850182612258565b5060a08201516125be60a0850182612258565b5060c08201516125d160c0850182612258565b5060e08201516125e460e0850182612539565b50505050565b6000610100820190506126006000830184612548565b92915050565b61260f8161182b565b82525050565b600060408201905061262a6000830185611b63565b6126376020830184612606565b9392505050565b60008160011c9050919050565b6000808291508390505b6001851115612695578086048111156126715761267061244e565b5b60018516156126805780820291505b808102905061268e8561263e565b9450612655565b94509492505050565b6000826126ae576001905061276a565b816126bc576000905061276a565b81600181146126d257600281146126dc5761270b565b600191505061276a565b60ff8411156126ee576126ed61244e565b5b8360020a9150848211156127055761270461244e565b5b5061276a565b5060208310610133831016604e8410600b84101617156127405782820a90508381111561273b5761273a61244e565b5b61276a565b61274d848484600161264b565b925090508184048111156127645761276361244e565b5b81810290505b9392505050565b600061277c826116a5565b915061278783611a18565b92506127b47fffffffffffffffffffffffffffffffffffffffffffffffffffffffffffffffff848461269e565b905092915050565b60006127c7826116a5565b91506127d2836116a5565b92508282026127e0816116a5565b915082820484148315176127f7576127f661244e565b5b5092915050565b7f4e487b7100000000000000000000000000000000000000000000000000000000600052601260045260246000fd5b6000612838826116a5565b9150612843836116a5565b925082612853576128526127fe565b5b828206905092915050565b6000612869826116a5565b9150612874836116a5565b925082820390508181111561288c5761288b61244e565b5b9291505056fea264697066735822122088b33273ff0ea0c32a2aa3d903dfbe242f57a75f1e614773f580908fd0021c4b64736f6c63430008140033",
  "devdoc": {
    "errors": {
      "OwnableInvalidOwner(address)": [
        {
          "details": "The owner is not a valid owner account. (eg. `address(0)`)"
        }
      ],
      "OwnableUnauthorizedAccount(address)": [
        {
          "details": "The caller account is not authorized to perform an operation."
        }
      ]
    },
    "kind": "dev",
    "methods": {
      "addMemeCoin(string,address,uint8)": {
        "params": {
          "addr": "The contract address of the memecoin",
          "decimals": "The decimals of the memecoin",
          "name": "The name of the memecoin"
        }
      },
      "getMemeCoin(uint256)": {
        "params": {
          "index": "The index in the memecoins array"
        },
        "returns": {
          "addr": "The memecoin contract address",
          "decimals": "The decimals of the memecoin",
          "name": "The memecoin name"
        }
      },
      "getMemeCoinCount()": {
        "returns": {
          "_0": "The length of the memecoins array"
        }
      },
      "owner()": {
        "details": "Returns the address of the current owner."
      },
      "renounceOwnership()": {
        "details": "Leaves the contract without owner. It will not be possible to call `onlyOwner` functions. Can only be called by the current owner. NOTE: Renouncing ownership will leave the contract without an owner, thereby disabling any functionality that is only available to the owner."
      },
      "transferOwnership(address)": {
        "details": "Transfers ownership of the contract to a new account (`newOwner`). Can only be called by the current owner."
      }
    },
    "version": 1
  },
  "userdoc": {
    "kind": "user",
    "methods": {
      "addMemeCoin(string,address,uint8)": {
        "notice": "Add a new memecoin to the list"
      },
      "getMemeCoin(uint256)": {
        "notice": "Get a memecoin by index"
      },
      "getMemeCoinCount()": {
        "notice": "Get the total number of memecoins in the list"
      }
    },
    "version": 1
  },
  "storageLayout": {
    "storage": [
      {
        "astId": 417,
        "contract": "src/mock/MockTradeMemeCoin.sol:MockTradeMemeCoin",
        "label": "sTypeIdToFunctionSelector",
        "offset": 0,
        "slot": "0",
        "type": "t_mapping(t_bytes32,t_bytes4)"
      },
      {
        "astId": 8,
        "contract": "src/mock/MockTradeMemeCoin.sol:MockTradeMemeCoin",
        "label": "_owner",
        "offset": 0,
        "slot": "1",
        "type": "t_address"
      },
      {
        "astId": 2052,
        "contract": "src/mock/MockTradeMemeCoin.sol:MockTradeMemeCoin",
        "label": "lastResponse",
        "offset": 0,
        "slot": "2",
        "type": "t_bytes_storage"
      },
      {
        "astId": 2054,
        "contract": "src/mock/MockTradeMemeCoin.sol:MockTradeMemeCoin",
        "label": "lastRequestId",
        "offset": 0,
        "slot": "3",
        "type": "t_uint256"
      },
      {
        "astId": 2057,
        "contract": "src/mock/MockTradeMemeCoin.sol:MockTradeMemeCoin",
        "label": "wethAmountForTrade",
        "offset": 0,
        "slot": "4",
        "type": "t_uint256"
      },
      {
        "astId": 2060,
        "contract": "src/mock/MockTradeMemeCoin.sol:MockTradeMemeCoin",
        "label": "memeCoinAmount",
        "offset": 0,
        "slot": "5",
        "type": "t_uint256"
      },
      {
        "astId": 2071,
        "contract": "src/mock/MockTradeMemeCoin.sol:MockTradeMemeCoin",
        "label": "memeCoins",
        "offset": 0,
        "slot": "6",
        "type": "t_array(t_struct(MemeCoin)2067_storage)dyn_storage"
      }
    ],
    "types": {
      "t_address": {
        "encoding": "inplace",
        "label": "address",
        "numberOfBytes": "20"
      },
      "t_array(t_struct(MemeCoin)2067_storage)dyn_storage": {
        "base": "t_struct(MemeCoin)2067_storage",
        "encoding": "dynamic_array",
        "label": "struct MockTradeMemeCoin.MemeCoin[]",
        "numberOfBytes": "32"
      },
      "t_bytes32": {
        "encoding": "inplace",
        "label": "bytes32",
        "numberOfBytes": "32"
      },
      "t_bytes4": {
        "encoding": "inplace",
        "label": "bytes4",
        "numberOfBytes": "4"
      },
      "t_bytes_storage": {
        "encoding": "bytes",
        "label": "bytes",
        "numberOfBytes": "32"
      },
      "t_mapping(t_bytes32,t_bytes4)": {
        "encoding": "mapping",
        "key": "t_bytes32",
        "label": "mapping(bytes32 => bytes4)",
        "numberOfBytes": "32",
        "value": "t_bytes4"
      },
      "t_string_storage": {
        "encoding": "bytes",
        "label": "string",
        "numberOfBytes": "32"
      },
      "t_struct(MemeCoin)2067_storage": {
        "encoding": "inplace",
        "label": "struct MockTradeMemeCoin.MemeCoin",
        "members": [
          {
            "astId": 2062,
            "contract": "src/mock/MockTradeMemeCoin.sol:MockTradeMemeCoin",
            "label": "name",
            "offset": 0,
            "slot": "0",
            "type": "t_string_storage"
          },
          {
            "astId": 2064,
            "contract": "src/mock/MockTradeMemeCoin.sol:MockTradeMemeCoin",
            "label": "addr",
            "offset": 0,
            "slot": "1",
            "type": "t_address"
          },
          {
            "astId": 2066,
            "contract": "src/mock/MockTradeMemeCoin.sol:MockTradeMemeCoin",
            "label": "decimals",
            "offset": 20,
            "slot": "1",
            "type": "t_uint8"
          }
        ],
        "numberOfBytes": "64"
      },
      "t_uint256": {
        "encoding": "inplace",
        "label": "uint256",
        "numberOfBytes": "32"
      },
      "t_uint8": {
        "encoding": "inplace",
        "label": "uint8",
        "numberOfBytes": "1"
      }
    }
  }
}