{
  "address": "0xDD2631147BD866D588aA99E6B06Dc1633b6646D8",
  "abi": [
    {
      "inputs": [],
      "stateMutability": "nonpayable",
      "type": "constructor"
    },
    {
      "anonymous": false,
      "inputs": [
        {
          "indexed": true,
          "internalType": "uint256",
          "name": "requestId",
          "type": "uint256"
        },
        {
          "indexed": false,
          "internalType": "uint256",
          "name": "callbackGasLimit",
          "type": "uint256"
        },
        {
          "indexed": true,
          "internalType": "address",
          "name": "sender",
          "type": "address"
        },
        {
          "indexed": false,
          "internalType": "bytes32",
          "name": "jobId",
          "type": "bytes32"
        },
        {
          "indexed": false,
          "internalType": "uint256",
          "name": "blockNumber",
          "type": "uint256"
        },
        {
          "indexed": false,
          "internalType": "bytes",
          "name": "data",
          "type": "bytes"
        }
      ],
      "name": "DataRequested",
      "type": "event"
    },
    {
      "inputs": [
        {
          "internalType": "uint256",
          "name": "requestId",
          "type": "uint256"
        },
        {
          "internalType": "uint256",
          "name": "callbackGasLimit",
          "type": "uint256"
        },
        {
          "internalType": "bytes32",
          "name": "jobId",
          "type": "bytes32"
        },
        {
          "internalType": "bytes",
          "name": "data",
          "type": "bytes"
        }
      ],
      "name": "requestData",
      "outputs": [],
      "stateMutability": "nonpayable",
      "type": "function"
    }
  ],
  "transactionHash": "0x45dc4a54887ceb8fe3041dd22d2e97ff81007ee5626b5e31d23b9ba0f454b02b",
  "args": [],
  "numDeployments": 1,
  "solcInputHash": "a89dc6128399864e5577450d0f7c9c74",
  "bytecode": "0x608060405234801561001057600080fd5b5061040f806100206000396000f3fe608060405234801561001057600080fd5b506004361061002b5760003560e01c80630710dfb314610030575b600080fd5b61004a6004803603810190610045919061026d565b61004c565b005b3373ffffffffffffffffffffffffffffffffffffffff16847f41ea4966e667f63a7c3fc4d3110cdef809a7d4dd88b1bc66d3a6b679c7fd633d85854386604051610099949392919061038d565b60405180910390a350505050565b6000604051905090565b600080fd5b600080fd5b6000819050919050565b6100ce816100bb565b81146100d957600080fd5b50565b6000813590506100eb816100c5565b92915050565b6000819050919050565b610104816100f1565b811461010f57600080fd5b50565b600081359050610121816100fb565b92915050565b600080fd5b600080fd5b6000601f19601f8301169050919050565b7f4e487b7100000000000000000000000000000000000000000000000000000000600052604160045260246000fd5b61017a82610131565b810181811067ffffffffffffffff8211171561019957610198610142565b5b80604052505050565b60006101ac6100a7565b90506101b88282610171565b919050565b600067ffffffffffffffff8211156101d8576101d7610142565b5b6101e182610131565b9050602081019050919050565b82818337600083830152505050565b600061021061020b846101bd565b6101a2565b90508281526020810184848401111561022c5761022b61012c565b5b6102378482856101ee565b509392505050565b600082601f83011261025457610253610127565b5b81356102648482602086016101fd565b91505092915050565b60008060008060808587031215610287576102866100b1565b5b6000610295878288016100dc565b94505060206102a6878288016100dc565b93505060406102b787828801610112565b925050606085013567ffffffffffffffff8111156102d8576102d76100b6565b5b6102e48782880161023f565b91505092959194509250565b6102f9816100bb565b82525050565b610308816100f1565b82525050565b600081519050919050565b600082825260208201905092915050565b60005b8381101561034857808201518184015260208101905061032d565b60008484015250505050565b600061035f8261030e565b6103698185610319565b935061037981856020860161032a565b61038281610131565b840191505092915050565b60006080820190506103a260008301876102f0565b6103af60208301866102ff565b6103bc60408301856102f0565b81810360608301526103ce8184610354565b90509594505050505056fea2646970667358221220ba6ab9ed51fef404d6c2fde4e6417bbab2a59f5a39a35a81a2a1ea762f3a593e64736f6c63430008140033",
  "devdoc": {
    "kind": "dev",
    "methods": {},
    "version": 1
  },
  "userdoc": {
    "kind": "user",
    "methods": {},
    "version": 1
  },
  "storageLayout": {
    "storage": [],
    "types": null
  }
}