{
  "address": "0x7c9b22E4563E024f7BD8F382c5Edc1D8607B4faf",
  "abi": [
    {
      "inputs": [],
      "stateMutability": "nonpayable",
      "type": "constructor"
    },
    {
      "inputs": [
        {
          "internalType": "uint32",
          "name": "have",
          "type": "uint32"
        },
        {
          "internalType": "uint32",
          "name": "want",
          "type": "uint32"
        }
      ],
      "name": "GasLimitTooBig",
      "type": "error"
    },
    {
      "inputs": [],
      "name": "IncompatibleJobId",
      "type": "error"
    },
    {
      "inputs": [],
      "name": "IncorrectCommitment",
      "type": "error"
    },
    {
      "inputs": [
        {
          "internalType": "uint256",
          "name": "have",
          "type": "uint256"
        },
        {
          "internalType": "uint256",
          "name": "want",
          "type": "uint256"
        }
      ],
      "name": "InsufficientPayment",
      "type": "error"
    },
    {
      "inputs": [
        {
          "internalType": "uint64",
          "name": "accId",
          "type": "uint64"
        },
        {
          "internalType": "address",
          "name": "consumer",
          "type": "address"
        }
      ],
      "name": "InvalidConsumer",
      "type": "error"
    },
    {
      "inputs": [],
      "name": "InvalidJobId",
      "type": "error"
    },
    {
      "inputs": [],
      "name": "InvalidNumSubmission",
      "type": "error"
    },
    {
      "inputs": [],
      "name": "NoCorrespondingRequest",
      "type": "error"
    },
    {
      "inputs": [
        {
          "internalType": "address",
          "name": "oracle",
          "type": "address"
        }
      ],
      "name": "NoSuchOracle",
      "type": "error"
    },
    {
      "inputs": [],
      "name": "NotRequestOwner",
      "type": "error"
    },
    {
      "inputs": [
        {
          "internalType": "address",
          "name": "oracle",
          "type": "address"
        }
      ],
      "name": "OracleAlreadyRegistered",
      "type": "error"
    },
    {
      "inputs": [],
      "name": "OracleAlreadySubmitted",
      "type": "error"
    },
    {
      "inputs": [
        {
          "internalType": "address",
          "name": "owner",
          "type": "address"
        }
      ],
      "name": "OwnableInvalidOwner",
      "type": "error"
    },
    {
      "inputs": [
        {
          "internalType": "address",
          "name": "account",
          "type": "address"
        }
      ],
      "name": "OwnableUnauthorizedAccount",
      "type": "error"
    },
    {
      "inputs": [],
      "name": "Reentrant",
      "type": "error"
    },
    {
      "inputs": [],
      "name": "RefundFailure",
      "type": "error"
    },
    {
      "inputs": [],
      "name": "TooManyOracles",
      "type": "error"
    },
    {
      "inputs": [
        {
          "internalType": "address",
          "name": "oracle",
          "type": "address"
        }
      ],
      "name": "UnregisteredOracleFulfillment",
      "type": "error"
    },
    {
      "anonymous": false,
      "inputs": [
        {
          "indexed": false,
          "internalType": "uint32",
          "name": "maxGasLimit",
          "type": "uint32"
        },
        {
          "indexed": false,
          "internalType": "uint32",
          "name": "gasAfterPaymentCalculation",
          "type": "uint32"
        }
      ],
      "name": "ConfigSet",
      "type": "event"
    },
    {
      "anonymous": false,
      "inputs": [
        {
          "indexed": true,
          "internalType": "uint256",
          "name": "requestId",
          "type": "uint256"
        },
        {
          "indexed": false,
          "internalType": "bool",
          "name": "response",
          "type": "bool"
        },
        {
          "indexed": false,
          "internalType": "bool",
          "name": "success",
          "type": "bool"
        }
      ],
      "name": "DataRequestFulfilledBool",
      "type": "event"
    },
    {
      "anonymous": false,
      "inputs": [
        {
          "indexed": true,
          "internalType": "uint256",
          "name": "requestId",
          "type": "uint256"
        },
        {
          "indexed": false,
          "internalType": "bytes",
          "name": "response",
          "type": "bytes"
        },
        {
          "indexed": false,
          "internalType": "bool",
          "name": "success",
          "type": "bool"
        }
      ],
      "name": "DataRequestFulfilledBytes",
      "type": "event"
    },
    {
      "anonymous": false,
      "inputs": [
        {
          "indexed": true,
          "internalType": "uint256",
          "name": "requestId",
          "type": "uint256"
        },
        {
          "indexed": false,
          "internalType": "bytes32",
          "name": "response",
          "type": "bytes32"
        },
        {
          "indexed": false,
          "internalType": "bool",
          "name": "success",
          "type": "bool"
        }
      ],
      "name": "DataRequestFulfilledBytes32",
      "type": "event"
    },
    {
      "anonymous": false,
      "inputs": [
        {
          "indexed": true,
          "internalType": "uint256",
          "name": "requestId",
          "type": "uint256"
        },
        {
          "indexed": false,
          "internalType": "uint256",
          "name": "response",
          "type": "uint256"
        },
        {
          "indexed": false,
          "internalType": "bool",
          "name": "success",
          "type": "bool"
        }
      ],
      "name": "DataRequestFulfilledUint256",
      "type": "event"
    },
    {
      "anonymous": false,
      "inputs": [
        {
          "indexed": true,
          "internalType": "uint256",
          "name": "requestId",
          "type": "uint256"
        },
        {
          "indexed": false,
          "internalType": "uint32",
          "name": "callbackGasLimit",
          "type": "uint32"
        },
        {
          "indexed": true,
          "internalType": "address",
          "name": "sender",
          "type": "address"
        },
        {
          "indexed": false,
          "internalType": "bytes32",
          "name": "jobId",
          "type": "bytes32"
        },
        {
          "indexed": false,
          "internalType": "uint256",
          "name": "blockNumber",
          "type": "uint256"
        }
      ],
      "name": "DataRequested",
      "type": "event"
    },
    {
      "anonymous": false,
      "inputs": [
        {
          "indexed": false,
          "internalType": "address",
          "name": "oracle",
          "type": "address"
        },
        {
          "indexed": false,
          "internalType": "uint256",
          "name": "requestId",
          "type": "uint256"
        }
      ],
      "name": "DataSubmitted",
      "type": "event"
    },
    {
      "anonymous": false,
      "inputs": [
        {
          "indexed": false,
          "internalType": "address",
          "name": "oracle",
          "type": "address"
        }
      ],
      "name": "OracleDeregistered",
      "type": "event"
    },
    {
      "anonymous": false,
      "inputs": [
        {
          "indexed": false,
          "internalType": "address",
          "name": "oracle",
          "type": "address"
        }
      ],
      "name": "OracleRegistered",
      "type": "event"
    },
    {
      "anonymous": false,
      "inputs": [
        {
          "indexed": true,
          "internalType": "address",
          "name": "previousOwner",
          "type": "address"
        },
        {
          "indexed": true,
          "internalType": "address",
          "name": "newOwner",
          "type": "address"
        }
      ],
      "name": "OwnershipTransferred",
      "type": "event"
    },
    {
      "anonymous": false,
      "inputs": [
        {
          "indexed": false,
          "internalType": "address",
          "name": "prepayment",
          "type": "address"
        }
      ],
      "name": "PrepaymentSet",
      "type": "event"
    },
    {
      "anonymous": false,
      "inputs": [
        {
          "indexed": true,
          "internalType": "uint256",
          "name": "requestId",
          "type": "uint256"
        }
      ],
      "name": "RequestCanceled",
      "type": "event"
    },
    {
      "inputs": [],
      "name": "MAX_ORACLES",
      "outputs": [
        {
          "internalType": "uint8",
          "name": "",
          "type": "uint8"
        }
      ],
      "stateMutability": "view",
      "type": "function"
    },
    {
      "inputs": [
        {
          "internalType": "uint256",
          "name": "requestId",
          "type": "uint256"
        }
      ],
      "name": "cancelRequest",
      "outputs": [],
      "stateMutability": "nonpayable",
      "type": "function"
    },
    {
      "inputs": [
        {
          "internalType": "address",
          "name": "oracle",
          "type": "address"
        }
      ],
      "name": "deregisterOracle",
      "outputs": [],
      "stateMutability": "nonpayable",
      "type": "function"
    },
    {
      "inputs": [
        {
          "internalType": "uint256",
          "name": "requestId",
          "type": "uint256"
        },
        {
          "internalType": "bool",
          "name": "response",
          "type": "bool"
        },
        {
          "components": [
            {
              "internalType": "uint64",
              "name": "blockNum",
              "type": "uint64"
            },
            {
              "internalType": "uint32",
              "name": "callbackGasLimit",
              "type": "uint32"
            },
            {
              "internalType": "address",
              "name": "sender",
              "type": "address"
            },
            {
              "internalType": "bytes32",
              "name": "jobId",
              "type": "bytes32"
            }
          ],
          "internalType": "struct IADCSCoordinatorBase.RequestCommitment",
          "name": "rc",
          "type": "tuple"
        }
      ],
      "name": "fulfillDataRequestBool",
      "outputs": [],
      "stateMutability": "nonpayable",
      "type": "function"
    },
    {
      "inputs": [
        {
          "internalType": "uint256",
          "name": "requestId",
          "type": "uint256"
        },
        {
          "internalType": "bytes",
          "name": "response",
          "type": "bytes"
        },
        {
          "components": [
            {
              "internalType": "uint64",
              "name": "blockNum",
              "type": "uint64"
            },
            {
              "internalType": "uint32",
              "name": "callbackGasLimit",
              "type": "uint32"
            },
            {
              "internalType": "address",
              "name": "sender",
              "type": "address"
            },
            {
              "internalType": "bytes32",
              "name": "jobId",
              "type": "bytes32"
            }
          ],
          "internalType": "struct IADCSCoordinatorBase.RequestCommitment",
          "name": "rc",
          "type": "tuple"
        }
      ],
      "name": "fulfillDataRequestBytes",
      "outputs": [],
      "stateMutability": "nonpayable",
      "type": "function"
    },
    {
      "inputs": [
        {
          "internalType": "uint256",
          "name": "requestId",
          "type": "uint256"
        },
        {
          "internalType": "bytes32",
          "name": "response",
          "type": "bytes32"
        },
        {
          "components": [
            {
              "internalType": "uint64",
              "name": "blockNum",
              "type": "uint64"
            },
            {
              "internalType": "uint32",
              "name": "callbackGasLimit",
              "type": "uint32"
            },
            {
              "internalType": "address",
              "name": "sender",
              "type": "address"
            },
            {
              "internalType": "bytes32",
              "name": "jobId",
              "type": "bytes32"
            }
          ],
          "internalType": "struct IADCSCoordinatorBase.RequestCommitment",
          "name": "rc",
          "type": "tuple"
        }
      ],
      "name": "fulfillDataRequestBytes32",
      "outputs": [],
      "stateMutability": "nonpayable",
      "type": "function"
    },
    {
      "inputs": [
        {
          "internalType": "uint256",
          "name": "requestId",
          "type": "uint256"
        },
        {
          "internalType": "uint256",
          "name": "response",
          "type": "uint256"
        },
        {
          "components": [
            {
              "internalType": "uint64",
              "name": "blockNum",
              "type": "uint64"
            },
            {
              "internalType": "uint32",
              "name": "callbackGasLimit",
              "type": "uint32"
            },
            {
              "internalType": "address",
              "name": "sender",
              "type": "address"
            },
            {
              "internalType": "bytes32",
              "name": "jobId",
              "type": "bytes32"
            }
          ],
          "internalType": "struct IADCSCoordinatorBase.RequestCommitment",
          "name": "rc",
          "type": "tuple"
        }
      ],
      "name": "fulfillDataRequestUint256",
      "outputs": [],
      "stateMutability": "nonpayable",
      "type": "function"
    },
    {
      "inputs": [
        {
          "internalType": "uint256",
          "name": "requestId",
          "type": "uint256"
        }
      ],
      "name": "getCommitment",
      "outputs": [
        {
          "internalType": "bytes32",
          "name": "",
          "type": "bytes32"
        }
      ],
      "stateMutability": "view",
      "type": "function"
    },
    {
      "inputs": [],
      "name": "getConfig",
      "outputs": [
        {
          "internalType": "uint32",
          "name": "maxGasLimit",
          "type": "uint32"
        },
        {
          "internalType": "uint32",
          "name": "gasAfterPaymentCalculation",
          "type": "uint32"
        }
      ],
      "stateMutability": "view",
      "type": "function"
    },
    {
      "inputs": [
        {
          "internalType": "address",
          "name": "oracle",
          "type": "address"
        }
      ],
      "name": "isOracleRegistered",
      "outputs": [
        {
          "internalType": "bool",
          "name": "",
          "type": "bool"
        }
      ],
      "stateMutability": "view",
      "type": "function"
    },
    {
      "inputs": [],
      "name": "owner",
      "outputs": [
        {
          "internalType": "address",
          "name": "",
          "type": "address"
        }
      ],
      "stateMutability": "view",
      "type": "function"
    },
    {
      "inputs": [
        {
          "internalType": "address",
          "name": "consumer",
          "type": "address"
        },
        {
          "internalType": "uint64",
          "name": "nonce",
          "type": "uint64"
        }
      ],
      "name": "pendingRequestExists",
      "outputs": [
        {
          "internalType": "bool",
          "name": "",
          "type": "bool"
        }
      ],
      "stateMutability": "view",
      "type": "function"
    },
    {
      "inputs": [
        {
          "internalType": "address",
          "name": "oracle",
          "type": "address"
        }
      ],
      "name": "registerOracle",
      "outputs": [],
      "stateMutability": "nonpayable",
      "type": "function"
    },
    {
      "inputs": [],
      "name": "renounceOwnership",
      "outputs": [],
      "stateMutability": "nonpayable",
      "type": "function"
    },
    {
      "inputs": [
        {
          "internalType": "uint32",
          "name": "callbackGasLimit",
          "type": "uint32"
        },
        {
          "components": [
            {
              "internalType": "bytes32",
              "name": "id",
              "type": "bytes32"
            },
            {
              "internalType": "address",
              "name": "callbackAddr",
              "type": "address"
            },
            {
              "internalType": "bytes4",
              "name": "callbackFunc",
              "type": "bytes4"
            },
            {
              "internalType": "uint256",
              "name": "nonce",
              "type": "uint256"
            },
            {
              "components": [
                {
                  "internalType": "bytes",
                  "name": "buf",
                  "type": "bytes"
                },
                {
                  "internalType": "uint256",
                  "name": "capacity",
                  "type": "uint256"
                }
              ],
              "internalType": "struct Buffer.buffer",
              "name": "buf",
              "type": "tuple"
            }
          ],
          "internalType": "struct ADCS.Request",
          "name": "req",
          "type": "tuple"
        }
      ],
      "name": "requestData",
      "outputs": [
        {
          "internalType": "uint256",
          "name": "",
          "type": "uint256"
        }
      ],
      "stateMutability": "nonpayable",
      "type": "function"
    },
    {
      "inputs": [
        {
          "internalType": "uint256",
          "name": "",
          "type": "uint256"
        }
      ],
      "name": "sOracles",
      "outputs": [
        {
          "internalType": "address",
          "name": "",
          "type": "address"
        }
      ],
      "stateMutability": "view",
      "type": "function"
    },
    {
      "inputs": [
        {
          "internalType": "uint32",
          "name": "maxGasLimit",
          "type": "uint32"
        },
        {
          "internalType": "uint32",
          "name": "gasAfterPaymentCalculation",
          "type": "uint32"
        }
      ],
      "name": "setConfig",
      "outputs": [],
      "stateMutability": "nonpayable",
      "type": "function"
    },
    {
      "inputs": [
        {
          "internalType": "address",
          "name": "newOwner",
          "type": "address"
        }
      ],
      "name": "transferOwnership",
      "outputs": [],
      "stateMutability": "nonpayable",
      "type": "function"
    },
    {
      "inputs": [],
      "name": "typeAndVersion",
      "outputs": [
        {
          "internalType": "string",
          "name": "",
          "type": "string"
        }
      ],
      "stateMutability": "pure",
      "type": "function"
    }
  ],
  "transactionHash": "0xe39d1a8cf1eff2f89b74548172b55dd61a22c6f0ec709e3e8768b6bf1ad58cb3",
  "args": [],
  "numDeployments": 1,
  "solcInputHash": "d83265d79839106526d0e47e9035c9a6",
  "bytecode": "0x60806040523480156200001157600080fd5b5062000022620000af60201b60201c565b600073ffffffffffffffffffffffffffffffffffffffff168173ffffffffffffffffffffffffffffffffffffffff1603620000975760006040517f1e4fbdf70000000000000000000000000000000000000000000000000000000081526004016200008e9190620001c0565b60405180910390fd5b620000a881620000b760201b60201c565b50620001dd565b600033905090565b60008060009054906101000a900473ffffffffffffffffffffffffffffffffffffffff169050816000806101000a81548173ffffffffffffffffffffffffffffffffffffffff021916908373ffffffffffffffffffffffffffffffffffffffff1602179055508173ffffffffffffffffffffffffffffffffffffffff168173ffffffffffffffffffffffffffffffffffffffff167f8be0079c531659141344cd1fd0a4f28419497f9722a3daafe3b4186f6b6457e060405160405180910390a35050565b600073ffffffffffffffffffffffffffffffffffffffff82169050919050565b6000620001a8826200017b565b9050919050565b620001ba816200019b565b82525050565b6000602082019050620001d76000830184620001af565b92915050565b612a5280620001ed6000396000f3fe608060405234801561001057600080fd5b50600436106101215760003560e01c80638df4e3e2116100ad578063c3f909d411610071578063c3f909d4146102f2578063d98196b314610311578063e9babaec14610341578063f2fde38b1461035d578063f8795e101461037957610121565b80638df4e3e21461023c578063a4e92aa714610258578063b9b55c9a14610288578063ba9ecc97146102b8578063bfedbfa0146102d457610121565b806369bcdb7d116100f457806369bcdb7d146101985780636ccec818146101c8578063715018a6146101e457806378cb441f146101ee5780638da5cb5b1461021e57610121565b806313ab866314610126578063181f5a77146101425780633015394c1461016057806364d98f361461017c575b600080fd5b610140600480360381019061013b9190611f63565b610395565b005b61014a61055d565b6040516101579190612035565b60405180910390f35b61017a60048036038101906101759190612057565b61059a565b005b6101966004803603810190610191919061213e565b6106ee565b005b6101b260048036038101906101ad9190612057565b6108b6565b6040516101bf91906121bc565b60405180910390f35b6101e260048036038101906101dd91906121d7565b6108d3565b005b6101ec6109b5565b005b61020860048036038101906102039190612383565b6109c9565b60405161021591906123ee565b60405180910390f35b610226610b45565b6040516102339190612418565b60405180910390f35b61025660048036038101906102519190612433565b610b6e565b005b610272600480360381019061026d9190612460565b610e1e565b60405161027f91906124bb565b60405180910390f35b6102a2600480360381019061029d9190612433565b610e7b565b6040516102af91906124bb565b60405180910390f35b6102d260048036038101906102cd91906124d6565b610ed1565b005b6102dc6110e3565b6040516102e99190612545565b60405180910390f35b6102fa6110e8565b60405161030892919061256f565b60405180910390f35b61032b60048036038101906103269190612057565b61111f565b6040516103389190612418565b60405180910390f35b61035b60048036038101906103569190612433565b61115e565b005b61037760048036038101906103729190612433565b61132b565b005b610393600480360381019061038e91906125c4565b6113b1565b005b61039f8184611579565b60016005600085815260200190815260200160002060010160003373ffffffffffffffffffffffffffffffffffffffff1673ffffffffffffffffffffffffffffffffffffffff16815260200190815260200160002060006101000a81548160ff021916908315150217905550600060056000858152602001908152602001600020600001905080339080600181540180825580915050600190039060005260206000200160009091909190916101000a81548173ffffffffffffffffffffffffffffffffffffffff021916908373ffffffffffffffffffffffffffffffffffffffff160217905550600063f40b4def60e01b85856040516024016104a4929190612617565b604051602081830303815290604052907bffffffffffffffffffffffffffffffffffffffffffffffffffffffff19166020820180517bffffffffffffffffffffffffffffffffffffffffffffffffffffffff83818316178352505050509050600061050f8285611757565b905061051a866117bc565b50857f68ab2090cae4446c41a4252a58251ac07f2ac3277747f0f2431ce7d80fdb6437868360405161054d929190612640565b60405180910390a2505050505050565b60606040518060400160405280601481526020017f41444353436f6f7264696e61746f722076302e31000000000000000000000000815250905090565b6105a38161197a565b6105d9576040517f3688124a00000000000000000000000000000000000000000000000000000000815260040160405180910390fd5b3373ffffffffffffffffffffffffffffffffffffffff166003600083815260200190815260200160002060009054906101000a900473ffffffffffffffffffffffffffffffffffffffff1673ffffffffffffffffffffffffffffffffffffffff1614610671576040517f517907dd00000000000000000000000000000000000000000000000000000000815260040160405180910390fd5b60026000828152602001908152602001600020600090556003600082815260200190815260200160002060006101000a81549073ffffffffffffffffffffffffffffffffffffffff0219169055807f6187bf55f2675dbecee951f81c92ecac87f54ed5bf888d31b09e634749b848ef60405160405180910390a250565b6106f88184611579565b60016005600085815260200190815260200160002060010160003373ffffffffffffffffffffffffffffffffffffffff1673ffffffffffffffffffffffffffffffffffffffff16815260200190815260200160002060006101000a81548160ff021916908315150217905550600060056000858152602001908152602001600020600001905080339080600181540180825580915050600190039060005260206000200160009091909190916101000a81548173ffffffffffffffffffffffffffffffffffffffff021916908373ffffffffffffffffffffffffffffffffffffffff16021790555060006319e2cd2f60e01b85856040516024016107fd9291906126be565b604051602081830303815290604052907bffffffffffffffffffffffffffffffffffffffffffffffffffffffff19166020820180517bffffffffffffffffffffffffffffffffffffffffffffffffffffffff8381831617835250505050905060006108688285611757565b9050610873866117bc565b50857fb6727cffbd4cbe4365522df08e3a8fbcf75662b5e1c5ffb1db39c936250abf7786836040516108a69291906126ee565b60405180910390a2505050505050565b600060026000838152602001908152602001600020549050919050565b6108db6119ac565b60405180606001604052808363ffffffff1681526020016000151581526020018263ffffffff16815250600460008201518160000160006101000a81548163ffffffff021916908363ffffffff16021790555060208201518160000160046101000a81548160ff02191690831515021790555060408201518160000160056101000a81548163ffffffff021916908363ffffffff1602179055509050507ff264aae70bf6a9d90e68e0f9b393f4e7fbea67b063b0f336e0b36c158170365182826040516109a992919061256f565b60405180910390a15050565b6109bd6119ac565b6109c76000611a33565b565b6000600460000160009054906101000a900463ffffffff1663ffffffff168363ffffffff161115610a485782600460000160009054906101000a900463ffffffff166040517ff5d7e01e000000000000000000000000000000000000000000000000000000008152600401610a3f92919061256f565b60405180910390fd5b6000610a5333611af7565b90506000610a613383611bcb565b90506000439050610a79828288338960000151611c01565b6002600084815260200190815260200160002081905550336003600084815260200190815260200160002060006101000a81548173ffffffffffffffffffffffffffffffffffffffff021916908373ffffffffffffffffffffffffffffffffffffffff1602179055503373ffffffffffffffffffffffffffffffffffffffff16827f3af5ade23c929178f22703d8ddee147ee2022cbe355fafc83146407c67f5a4dd88886000015185604051610b319392919061271e565b60405180910390a381935050505092915050565b60008060009054906101000a900473ffffffffffffffffffffffffffffffffffffffff16905090565b610b766119ac565b600660008273ffffffffffffffffffffffffffffffffffffffff1673ffffffffffffffffffffffffffffffffffffffff16815260200190815260200160002060009054906101000a900460ff16610c0457806040517ff9a0ffdf000000000000000000000000000000000000000000000000000000008152600401610bfb9190612418565b60405180910390fd5b600660008273ffffffffffffffffffffffffffffffffffffffff1673ffffffffffffffffffffffffffffffffffffffff16815260200190815260200160002060006101000a81549060ff02191690556000600180549050905060005b81811015610de2578273ffffffffffffffffffffffffffffffffffffffff1660018281548110610c9357610c92612755565b5b9060005260206000200160009054906101000a900473ffffffffffffffffffffffffffffffffffffffff1673ffffffffffffffffffffffffffffffffffffffff1603610dd157600060018084610ce991906127b3565b81548110610cfa57610cf9612755565b5b9060005260206000200160009054906101000a900473ffffffffffffffffffffffffffffffffffffffff1690508060018381548110610d3c57610d3b612755565b5b9060005260206000200160006101000a81548173ffffffffffffffffffffffffffffffffffffffff021916908373ffffffffffffffffffffffffffffffffffffffff1602179055506001805480610d9657610d956127e7565b5b6001900381819060005260206000200160006101000a81549073ffffffffffffffffffffffffffffffffffffffff0219169055905550610de2565b80610ddb90612816565b9050610c60565b507f5406c1f2d9ece2027a923f317fb5f2370221e330db898c037c10acc0c20495b382604051610e129190612418565b60405180910390a15050565b600080600180549050905060005b81811015610e6e576000610e408686611bcb565b9050610e4b8161197a565b15610e5c5760019350505050610e75565b5080610e6790612816565b9050610e2c565b5060009150505b92915050565b6000600660008373ffffffffffffffffffffffffffffffffffffffff1673ffffffffffffffffffffffffffffffffffffffff16815260200190815260200160002060009054906101000a900460ff169050919050565b600460000160049054906101000a900460ff1615610f1b576040517fed3ba6a600000000000000000000000000000000000000000000000000000000815260040160405180910390fd5b610f258184611579565b60016005600085815260200190815260200160002060010160003373ffffffffffffffffffffffffffffffffffffffff1673ffffffffffffffffffffffffffffffffffffffff16815260200190815260200160002060006101000a81548160ff021916908315150217905550600060056000858152602001908152602001600020600001905080339080600181540180825580915050600190039060005260206000200160009091909190916101000a81548173ffffffffffffffffffffffffffffffffffffffff021916908373ffffffffffffffffffffffffffffffffffffffff16021790555060006377f262ea60e01b858560405160240161102a92919061285e565b604051602081830303815290604052907bffffffffffffffffffffffffffffffffffffffffffffffffffffffff19166020820180517bffffffffffffffffffffffffffffffffffffffffffffffffffffffff8381831617835250505050905060006110958285611757565b90506110a0866117bc565b50857fc321dd2edb70648970d947727983978c1fb4f15aef68acb1663c00d7f105a75586836040516110d3929190612887565b60405180910390a2505050505050565b60ff81565b600080600460000160009054906101000a900463ffffffff16600460000160059054906101000a900463ffffffff16915091509091565b6001818154811061112f57600080fd5b906000526020600020016000915054906101000a900473ffffffffffffffffffffffffffffffffffffffff1681565b6111666119ac565b60ff8016600180549050106111a7576040517f25d0209c00000000000000000000000000000000000000000000000000000000815260040160405180910390fd5b600660008273ffffffffffffffffffffffffffffffffffffffff1673ffffffffffffffffffffffffffffffffffffffff16815260200190815260200160002060009054906101000a900460ff161561123657806040517f6ff7406a00000000000000000000000000000000000000000000000000000000815260040161122d9190612418565b60405180910390fd5b6001819080600181540180825580915050600190039060005260206000200160009091909190916101000a81548173ffffffffffffffffffffffffffffffffffffffff021916908373ffffffffffffffffffffffffffffffffffffffff1602179055506001600660008373ffffffffffffffffffffffffffffffffffffffff1673ffffffffffffffffffffffffffffffffffffffff16815260200190815260200160002060006101000a81548160ff0219169083151502179055507fd9d9fdcc9f936c76b5aafe54fc3db5dcec0c6583c9ccc4abe91d17575c5145a5816040516113209190612418565b60405180910390a150565b6113336119ac565b600073ffffffffffffffffffffffffffffffffffffffff168173ffffffffffffffffffffffffffffffffffffffff16036113a55760006040517f1e4fbdf700000000000000000000000000000000000000000000000000000000815260040161139c9190612418565b60405180910390fd5b6113ae81611a33565b50565b6113bb8184611579565b60016005600085815260200190815260200160002060010160003373ffffffffffffffffffffffffffffffffffffffff1673ffffffffffffffffffffffffffffffffffffffff16815260200190815260200160002060006101000a81548160ff021916908315150217905550600060056000858152602001908152602001600020600001905080339080600181540180825580915050600190039060005260206000200160009091909190916101000a81548173ffffffffffffffffffffffffffffffffffffffff021916908373ffffffffffffffffffffffffffffffffffffffff16021790555060006390d95efc60e01b85856040516024016114c0929190612887565b604051602081830303815290604052907bffffffffffffffffffffffffffffffffffffffffffffffffffffffff19166020820180517bffffffffffffffffffffffffffffffffffffffffffffffffffffffff83818316178352505050509050600061152b8285611757565b9050611536866117bc565b50857f1642c1857f43a2e6a38067a7503bdbff46b114bdedb9684838fef1a2e830fbc186836040516115699291906128b0565b60405180910390a2505050505050565b600660003373ffffffffffffffffffffffffffffffffffffffff1673ffffffffffffffffffffffffffffffffffffffff16815260200190815260200160002060009054906101000a900460ff1661160757336040517fd6c337480000000000000000000000000000000000000000000000000000000081526004016115fe9190612418565b60405180910390fd5b6005600082815260200190815260200160002060010160003373ffffffffffffffffffffffffffffffffffffffff1673ffffffffffffffffffffffffffffffffffffffff16815260200190815260200160002060009054906101000a900460ff161561169f576040517f9f17b6ef00000000000000000000000000000000000000000000000000000000815260040160405180910390fd5b6000600260008381526020019081526020016000205490506000801b81036116f3576040517f3688124a00000000000000000000000000000000000000000000000000000000815260040160405180910390fd5b61171a82846000015167ffffffffffffffff16856020015186604001518760600151611c01565b8114611752576040517fd529142c00000000000000000000000000000000000000000000000000000000815260040160405180910390fd5b505050565b60006001600460000160046101000a81548160ff0219169083151502179055506000611792836020015163ffffffff16846040015186611c3d565b90506000600460000160046101000a81548160ff0219169083151502179055508091505092915050565b606060006005600084815260200190815260200160002060000180548060200260200160405190810160405280929190818152602001828054801561185657602002820191906000526020600020905b8160009054906101000a900473ffffffffffffffffffffffffffffffffffffffff1673ffffffffffffffffffffffffffffffffffffffff168152602001906001019080831161180c575b5050505050905060005b81518160ff1610156118fd57600560008581526020019081526020016000206001016000838360ff168151811061189a57611899612755565b5b602002602001015173ffffffffffffffffffffffffffffffffffffffff1673ffffffffffffffffffffffffffffffffffffffff16815260200190815260200160002060006101000a81549060ff0219169055806118f6906128d9565b9050611860565b5060056000848152602001908152602001600020600080820160006119229190611cbd565b505060026000848152602001908152602001600020600090556003600084815260200190815260200160002060006101000a81549073ffffffffffffffffffffffffffffffffffffffff021916905580915050919050565b60008060001b6002600084815260200190815260200160002054146119a257600190506119a7565b600090505b919050565b6119b4611cb5565b73ffffffffffffffffffffffffffffffffffffffff166119d2610b45565b73ffffffffffffffffffffffffffffffffffffffff1614611a31576119f5611cb5565b6040517f118cdaa7000000000000000000000000000000000000000000000000000000008152600401611a289190612418565b60405180910390fd5b565b60008060009054906101000a900473ffffffffffffffffffffffffffffffffffffffff169050816000806101000a81548173ffffffffffffffffffffffffffffffffffffffff021916908373ffffffffffffffffffffffffffffffffffffffff1602179055508173ffffffffffffffffffffffffffffffffffffffff168173ffffffffffffffffffffffffffffffffffffffff167f8be0079c531659141344cd1fd0a4f28419497f9722a3daafe3b4186f6b6457e060405160405180910390a35050565b6000806001600760008573ffffffffffffffffffffffffffffffffffffffff1673ffffffffffffffffffffffffffffffffffffffff16815260200190815260200160002060009054906101000a900467ffffffffffffffff16611b5a9190612902565b905080600760008573ffffffffffffffffffffffffffffffffffffffff1673ffffffffffffffffffffffffffffffffffffffff16815260200190815260200160002060006101000a81548167ffffffffffffffff021916908367ffffffffffffffff16021790555080915050919050565b60008282604051602001611be092919061294d565b6040516020818303038152906040528051906020012060001c905092915050565b60008585858585604051602001611c1c959493929190612976565b60405160208183030381529060405280519060200120905095945050505050565b60008273ffffffffffffffffffffffffffffffffffffffff168483604051611c659190612a05565b60006040518083038160008787f1925050503d8060008114611ca3576040519150601f19603f3d011682016040523d82523d6000602084013e611ca8565b606091505b5050809150509392505050565b600033905090565b5080546000825590600052602060002090810190611cdb9190611cde565b50565b5b80821115611cf7576000816000905550600101611cdf565b5090565b6000604051905090565b600080fd5b600080fd5b6000819050919050565b611d2281611d0f565b8114611d2d57600080fd5b50565b600081359050611d3f81611d19565b92915050565b6000819050919050565b611d5881611d45565b8114611d6357600080fd5b50565b600081359050611d7581611d4f565b92915050565b600080fd5b6000601f19601f8301169050919050565b7f4e487b7100000000000000000000000000000000000000000000000000000000600052604160045260246000fd5b611dc982611d80565b810181811067ffffffffffffffff82111715611de857611de7611d91565b5b80604052505050565b6000611dfb611cfb565b9050611e078282611dc0565b919050565b600080fd5b600067ffffffffffffffff82169050919050565b611e2e81611e11565b8114611e3957600080fd5b50565b600081359050611e4b81611e25565b92915050565b600063ffffffff82169050919050565b611e6a81611e51565b8114611e7557600080fd5b50565b600081359050611e8781611e61565b92915050565b600073ffffffffffffffffffffffffffffffffffffffff82169050919050565b6000611eb882611e8d565b9050919050565b611ec881611ead565b8114611ed357600080fd5b50565b600081359050611ee581611ebf565b92915050565b600060808284031215611f0157611f00611d7b565b5b611f0b6080611df1565b90506000611f1b84828501611e3c565b6000830152506020611f2f84828501611e78565b6020830152506040611f4384828501611ed6565b6040830152506060611f5784828501611d66565b60608301525092915050565b600080600060c08486031215611f7c57611f7b611d05565b5b6000611f8a86828701611d30565b9350506020611f9b86828701611d66565b9250506040611fac86828701611eeb565b9150509250925092565b600081519050919050565b600082825260208201905092915050565b60005b83811015611ff0578082015181840152602081019050611fd5565b60008484015250505050565b600061200782611fb6565b6120118185611fc1565b9350612021818560208601611fd2565b61202a81611d80565b840191505092915050565b6000602082019050818103600083015261204f8184611ffc565b905092915050565b60006020828403121561206d5761206c611d05565b5b600061207b84828501611d30565b91505092915050565b600080fd5b600080fd5b600067ffffffffffffffff8211156120a9576120a8611d91565b5b6120b282611d80565b9050602081019050919050565b82818337600083830152505050565b60006120e16120dc8461208e565b611df1565b9050828152602081018484840111156120fd576120fc612089565b5b6121088482856120bf565b509392505050565b600082601f83011261212557612124612084565b5b81356121358482602086016120ce565b91505092915050565b600080600060c0848603121561215757612156611d05565b5b600061216586828701611d30565b935050602084013567ffffffffffffffff81111561218657612185611d0a565b5b61219286828701612110565b92505060406121a386828701611eeb565b9150509250925092565b6121b681611d45565b82525050565b60006020820190506121d160008301846121ad565b92915050565b600080604083850312156121ee576121ed611d05565b5b60006121fc85828601611e78565b925050602061220d85828601611e78565b9150509250929050565b60007fffffffff0000000000000000000000000000000000000000000000000000000082169050919050565b61224c81612217565b811461225757600080fd5b50565b60008135905061226981612243565b92915050565b60006040828403121561228557612284611d7b565b5b61228f6040611df1565b9050600082013567ffffffffffffffff8111156122af576122ae611e0c565b5b6122bb84828501612110565b60008301525060206122cf84828501611d30565b60208301525092915050565b600060a082840312156122f1576122f0611d7b565b5b6122fb60a0611df1565b9050600061230b84828501611d66565b600083015250602061231f84828501611ed6565b60208301525060406123338482850161225a565b604083015250606061234784828501611d30565b606083015250608082013567ffffffffffffffff81111561236b5761236a611e0c565b5b6123778482850161226f565b60808301525092915050565b6000806040838503121561239a57612399611d05565b5b60006123a885828601611e78565b925050602083013567ffffffffffffffff8111156123c9576123c8611d0a565b5b6123d5858286016122db565b9150509250929050565b6123e881611d0f565b82525050565b600060208201905061240360008301846123df565b92915050565b61241281611ead565b82525050565b600060208201905061242d6000830184612409565b92915050565b60006020828403121561244957612448611d05565b5b600061245784828501611ed6565b91505092915050565b6000806040838503121561247757612476611d05565b5b600061248585828601611ed6565b925050602061249685828601611e3c565b9150509250929050565b60008115159050919050565b6124b5816124a0565b82525050565b60006020820190506124d060008301846124ac565b92915050565b600080600060c084860312156124ef576124ee611d05565b5b60006124fd86828701611d30565b935050602061250e86828701611d30565b925050604061251f86828701611eeb565b9150509250925092565b600060ff82169050919050565b61253f81612529565b82525050565b600060208201905061255a6000830184612536565b92915050565b61256981611e51565b82525050565b60006040820190506125846000830185612560565b6125916020830184612560565b9392505050565b6125a1816124a0565b81146125ac57600080fd5b50565b6000813590506125be81612598565b92915050565b600080600060c084860312156125dd576125dc611d05565b5b60006125eb86828701611d30565b93505060206125fc868287016125af565b925050604061260d86828701611eeb565b9150509250925092565b600060408201905061262c60008301856123df565b61263960208301846121ad565b9392505050565b600060408201905061265560008301856121ad565b61266260208301846124ac565b9392505050565b600081519050919050565b600082825260208201905092915050565b600061269082612669565b61269a8185612674565b93506126aa818560208601611fd2565b6126b381611d80565b840191505092915050565b60006040820190506126d360008301856123df565b81810360208301526126e58184612685565b90509392505050565b600060408201905081810360008301526127088185612685565b905061271760208301846124ac565b9392505050565b60006060820190506127336000830186612560565b61274060208301856121ad565b61274d60408301846123df565b949350505050565b7f4e487b7100000000000000000000000000000000000000000000000000000000600052603260045260246000fd5b7f4e487b7100000000000000000000000000000000000000000000000000000000600052601160045260246000fd5b60006127be82611d0f565b91506127c983611d0f565b92508282039050818111156127e1576127e0612784565b5b92915050565b7f4e487b7100000000000000000000000000000000000000000000000000000000600052603160045260246000fd5b600061282182611d0f565b91507fffffffffffffffffffffffffffffffffffffffffffffffffffffffffffffffff820361285357612852612784565b5b600182019050919050565b600060408201905061287360008301856123df565b61288060208301846123df565b9392505050565b600060408201905061289c60008301856123df565b6128a960208301846124ac565b9392505050565b60006040820190506128c560008301856124ac565b6128d260208301846124ac565b9392505050565b60006128e482612529565b915060ff82036128f7576128f6612784565b5b600182019050919050565b600061290d82611e11565b915061291883611e11565b9250828201905067ffffffffffffffff81111561293857612937612784565b5b92915050565b61294781611e11565b82525050565b60006040820190506129626000830185612409565b61296f602083018461293e565b9392505050565b600060a08201905061298b60008301886123df565b61299860208301876123df565b6129a56040830186612560565b6129b26060830185612409565b6129bf60808301846121ad565b9695505050505050565b600081905092915050565b60006129df82612669565b6129e981856129c9565b93506129f9818560208601611fd2565b80840191505092915050565b6000612a1182846129d4565b91508190509291505056fea26469706673582212209287a39f845d7a3cfe5941351c367b97697968630207069630274a189a4a97f364736f6c63430008140033",
  "devdoc": {
    "errors": {
      "OwnableInvalidOwner(address)": [
        {
          "details": "The owner is not a valid owner account. (eg. `address(0)`)"
        }
      ],
      "OwnableUnauthorizedAccount(address)": [
        {
          "details": "The caller account is not authorized to perform an operation."
        }
      ]
    },
    "kind": "dev",
    "methods": {
      "cancelRequest(uint256)": {
        "params": {
          "requestId": "- ID of the Oracle Request"
        }
      },
      "deregisterOracle(address)": {
        "params": {
          "oracle": "address of the oracle"
        }
      },
      "getCommitment(uint256)": {
        "params": {
          "requestId": "id of request"
        },
        "returns": {
          "_0": "commmitment value that can be used to determine whether a request is fulfilled or not. If `requestId` is valid and commitment equals to bytes32(0), the request was fulfilled."
        }
      },
      "isOracleRegistered(address)": {
        "returns": {
          "_0": "true when oracle address registered, otherwise false"
        }
      },
      "owner()": {
        "details": "Returns the address of the current owner."
      },
      "registerOracle(address)": {
        "params": {
          "oracle": "address of the oracle"
        }
      },
      "renounceOwnership()": {
        "details": "Leaves the contract without owner. It will not be possible to call `onlyOwner` functions. Can only be called by the current owner. NOTE: Renouncing ownership will leave the contract without an owner, thereby disabling any functionality that is only available to the owner."
      },
      "setConfig(uint32,uint32)": {
        "params": {
          "gasAfterPaymentCalculation": "gas used in doing accounting after completing the gas measurement",
          "maxGasLimit": "global max for request gas limit"
        }
      },
      "transferOwnership(address)": {
        "details": "Transfers ownership of the contract to a new account (`newOwner`). Can only be called by the current owner."
      },
      "typeAndVersion()": {
        "returns": {
          "_0": "Type and version string"
        }
      }
    },
    "version": 1
  },
  "userdoc": {
    "kind": "user",
    "methods": {
      "cancelRequest(uint256)": {
        "notice": "Canceling oracle request"
      },
      "deregisterOracle(address)": {
        "notice": "Deregister an oracle"
      },
      "getCommitment(uint256)": {
        "notice": "Get request commitment."
      },
      "isOracleRegistered(address)": {
        "notice": "Find out whether given oracle address was registered."
      },
      "registerOracle(address)": {
        "notice": "Register an oracle"
      },
      "setConfig(uint32,uint32)": {
        "notice": "Sets the configuration of the VRF coordinator"
      },
      "typeAndVersion()": {
        "notice": "The type and version of this contract"
      }
    },
    "version": 1
  },
  "storageLayout": {
    "storage": [
      {
        "astId": 8,
        "contract": "src/ADCSCoordinator.sol:ADCSCoordinator",
        "label": "_owner",
        "offset": 0,
        "slot": "0",
        "type": "t_address"
      },
      {
        "astId": 1377,
        "contract": "src/ADCSCoordinator.sol:ADCSCoordinator",
        "label": "sOracles",
        "offset": 0,
        "slot": "1",
        "type": "t_array(t_address)dyn_storage"
      },
      {
        "astId": 1381,
        "contract": "src/ADCSCoordinator.sol:ADCSCoordinator",
        "label": "sRequestIdToCommitment",
        "offset": 0,
        "slot": "2",
        "type": "t_mapping(t_uint256,t_bytes32)"
      },
      {
        "astId": 1385,
        "contract": "src/ADCSCoordinator.sol:ADCSCoordinator",
        "label": "sRequestOwner",
        "offset": 0,
        "slot": "3",
        "type": "t_mapping(t_uint256,t_address)"
      },
      {
        "astId": 1395,
        "contract": "src/ADCSCoordinator.sol:ADCSCoordinator",
        "label": "sConfig",
        "offset": 0,
        "slot": "4",
        "type": "t_struct(Config)1392_storage"
      },
      {
        "astId": 446,
        "contract": "src/ADCSCoordinator.sol:ADCSCoordinator",
        "label": "sSubmission",
        "offset": 0,
        "slot": "5",
        "type": "t_mapping(t_uint256,t_struct(Submission)441_storage)"
      },
      {
        "astId": 450,
        "contract": "src/ADCSCoordinator.sol:ADCSCoordinator",
        "label": "sIsOracleRegistered",
        "offset": 0,
        "slot": "6",
        "type": "t_mapping(t_address,t_bool)"
      },
      {
        "astId": 454,
        "contract": "src/ADCSCoordinator.sol:ADCSCoordinator",
        "label": "sConsumerToNonce",
        "offset": 0,
        "slot": "7",
        "type": "t_mapping(t_address,t_uint64)"
      }
    ],
    "types": {
      "t_address": {
        "encoding": "inplace",
        "label": "address",
        "numberOfBytes": "20"
      },
      "t_array(t_address)dyn_storage": {
        "base": "t_address",
        "encoding": "dynamic_array",
        "label": "address[]",
        "numberOfBytes": "32"
      },
      "t_bool": {
        "encoding": "inplace",
        "label": "bool",
        "numberOfBytes": "1"
      },
      "t_bytes32": {
        "encoding": "inplace",
        "label": "bytes32",
        "numberOfBytes": "32"
      },
      "t_mapping(t_address,t_bool)": {
        "encoding": "mapping",
        "key": "t_address",
        "label": "mapping(address => bool)",
        "numberOfBytes": "32",
        "value": "t_bool"
      },
      "t_mapping(t_address,t_uint64)": {
        "encoding": "mapping",
        "key": "t_address",
        "label": "mapping(address => uint64)",
        "numberOfBytes": "32",
        "value": "t_uint64"
      },
      "t_mapping(t_uint256,t_address)": {
        "encoding": "mapping",
        "key": "t_uint256",
        "label": "mapping(uint256 => address)",
        "numberOfBytes": "32",
        "value": "t_address"
      },
      "t_mapping(t_uint256,t_bytes32)": {
        "encoding": "mapping",
        "key": "t_uint256",
        "label": "mapping(uint256 => bytes32)",
        "numberOfBytes": "32",
        "value": "t_bytes32"
      },
      "t_mapping(t_uint256,t_struct(Submission)441_storage)": {
        "encoding": "mapping",
        "key": "t_uint256",
        "label": "mapping(uint256 => struct ADCSCoordinator.Submission)",
        "numberOfBytes": "32",
        "value": "t_struct(Submission)441_storage"
      },
      "t_struct(Config)1392_storage": {
        "encoding": "inplace",
        "label": "struct CoordinatorBase.Config",
        "members": [
          {
            "astId": 1387,
            "contract": "src/ADCSCoordinator.sol:ADCSCoordinator",
            "label": "maxGasLimit",
            "offset": 0,
            "slot": "0",
            "type": "t_uint32"
          },
          {
            "astId": 1389,
            "contract": "src/ADCSCoordinator.sol:ADCSCoordinator",
            "label": "reentrancyLock",
            "offset": 4,
            "slot": "0",
            "type": "t_bool"
          },
          {
            "astId": 1391,
            "contract": "src/ADCSCoordinator.sol:ADCSCoordinator",
            "label": "gasAfterPaymentCalculation",
            "offset": 5,
            "slot": "0",
            "type": "t_uint32"
          }
        ],
        "numberOfBytes": "32"
      },
      "t_struct(Submission)441_storage": {
        "encoding": "inplace",
        "label": "struct ADCSCoordinator.Submission",
        "members": [
          {
            "astId": 436,
            "contract": "src/ADCSCoordinator.sol:ADCSCoordinator",
            "label": "oracles",
            "offset": 0,
            "slot": "0",
            "type": "t_array(t_address)dyn_storage"
          },
          {
            "astId": 440,
            "contract": "src/ADCSCoordinator.sol:ADCSCoordinator",
            "label": "submitted",
            "offset": 0,
            "slot": "1",
            "type": "t_mapping(t_address,t_bool)"
          }
        ],
        "numberOfBytes": "64"
      },
      "t_uint256": {
        "encoding": "inplace",
        "label": "uint256",
        "numberOfBytes": "32"
      },
      "t_uint32": {
        "encoding": "inplace",
        "label": "uint32",
        "numberOfBytes": "4"
      },
      "t_uint64": {
        "encoding": "inplace",
        "label": "uint64",
        "numberOfBytes": "8"
      }
    }
  }
}