{
  "address": "0xf6443A416D3984257F85e76d2295E777fbE01DdC",
  "abi": [
    {
      "inputs": [],
      "stateMutability": "nonpayable",
      "type": "constructor"
    },
    {
      "inputs": [
        {
          "internalType": "uint32",
          "name": "have",
          "type": "uint32"
        },
        {
          "internalType": "uint32",
          "name": "want",
          "type": "uint32"
        }
      ],
      "name": "GasLimitTooBig",
      "type": "error"
    },
    {
      "inputs": [],
      "name": "IncompatibleJobId",
      "type": "error"
    },
    {
      "inputs": [],
      "name": "IncorrectCommitment",
      "type": "error"
    },
    {
      "inputs": [
        {
          "internalType": "uint256",
          "name": "have",
          "type": "uint256"
        },
        {
          "internalType": "uint256",
          "name": "want",
          "type": "uint256"
        }
      ],
      "name": "InsufficientPayment",
      "type": "error"
    },
    {
      "inputs": [
        {
          "internalType": "uint64",
          "name": "accId",
          "type": "uint64"
        },
        {
          "internalType": "address",
          "name": "consumer",
          "type": "address"
        }
      ],
      "name": "InvalidConsumer",
      "type": "error"
    },
    {
      "inputs": [],
      "name": "InvalidJobId",
      "type": "error"
    },
    {
      "inputs": [],
      "name": "InvalidNumSubmission",
      "type": "error"
    },
    {
      "inputs": [],
      "name": "NoCorrespondingRequest",
      "type": "error"
    },
    {
      "inputs": [
        {
          "internalType": "address",
          "name": "oracle",
          "type": "address"
        }
      ],
      "name": "NoSuchOracle",
      "type": "error"
    },
    {
      "inputs": [],
      "name": "NotRequestOwner",
      "type": "error"
    },
    {
      "inputs": [
        {
          "internalType": "address",
          "name": "oracle",
          "type": "address"
        }
      ],
      "name": "OracleAlreadyRegistered",
      "type": "error"
    },
    {
      "inputs": [],
      "name": "OracleAlreadySubmitted",
      "type": "error"
    },
    {
      "inputs": [
        {
          "internalType": "address",
          "name": "owner",
          "type": "address"
        }
      ],
      "name": "OwnableInvalidOwner",
      "type": "error"
    },
    {
      "inputs": [
        {
          "internalType": "address",
          "name": "account",
          "type": "address"
        }
      ],
      "name": "OwnableUnauthorizedAccount",
      "type": "error"
    },
    {
      "inputs": [],
      "name": "Reentrant",
      "type": "error"
    },
    {
      "inputs": [],
      "name": "RefundFailure",
      "type": "error"
    },
    {
      "inputs": [],
      "name": "TooManyOracles",
      "type": "error"
    },
    {
      "inputs": [
        {
          "internalType": "address",
          "name": "oracle",
          "type": "address"
        }
      ],
      "name": "UnregisteredOracleFulfillment",
      "type": "error"
    },
    {
      "anonymous": false,
      "inputs": [
        {
          "indexed": false,
          "internalType": "uint32",
          "name": "maxGasLimit",
          "type": "uint32"
        },
        {
          "indexed": false,
          "internalType": "uint32",
          "name": "gasAfterPaymentCalculation",
          "type": "uint32"
        }
      ],
      "name": "ConfigSet",
      "type": "event"
    },
    {
      "anonymous": false,
      "inputs": [
        {
          "indexed": true,
          "internalType": "uint256",
          "name": "requestId",
          "type": "uint256"
        },
        {
          "indexed": false,
          "internalType": "bool",
          "name": "response",
          "type": "bool"
        },
        {
          "indexed": false,
          "internalType": "bool",
          "name": "success",
          "type": "bool"
        }
      ],
      "name": "DataRequestFulfilledBool",
      "type": "event"
    },
    {
      "anonymous": false,
      "inputs": [
        {
          "indexed": true,
          "internalType": "uint256",
          "name": "requestId",
          "type": "uint256"
        },
        {
          "indexed": false,
          "internalType": "bytes",
          "name": "response",
          "type": "bytes"
        },
        {
          "indexed": false,
          "internalType": "bool",
          "name": "success",
          "type": "bool"
        }
      ],
      "name": "DataRequestFulfilledBytes",
      "type": "event"
    },
    {
      "anonymous": false,
      "inputs": [
        {
          "indexed": true,
          "internalType": "uint256",
          "name": "requestId",
          "type": "uint256"
        },
        {
          "indexed": false,
          "internalType": "bytes32",
          "name": "response",
          "type": "bytes32"
        },
        {
          "indexed": false,
          "internalType": "bool",
          "name": "success",
          "type": "bool"
        }
      ],
      "name": "DataRequestFulfilledBytes32",
      "type": "event"
    },
    {
      "anonymous": false,
      "inputs": [
        {
          "indexed": true,
          "internalType": "uint256",
          "name": "requestId",
          "type": "uint256"
        },
        {
          "indexed": false,
          "internalType": "uint256",
          "name": "response",
          "type": "uint256"
        },
        {
          "indexed": false,
          "internalType": "bool",
          "name": "success",
          "type": "bool"
        }
      ],
      "name": "DataRequestFulfilledUint256",
      "type": "event"
    },
    {
      "anonymous": false,
      "inputs": [
        {
          "indexed": true,
          "internalType": "uint256",
          "name": "requestId",
          "type": "uint256"
        },
        {
          "indexed": false,
          "internalType": "uint32",
          "name": "callbackGasLimit",
          "type": "uint32"
        },
        {
          "indexed": true,
          "internalType": "address",
          "name": "sender",
          "type": "address"
        },
        {
          "indexed": false,
          "internalType": "bytes32",
          "name": "jobId",
          "type": "bytes32"
        },
        {
          "indexed": false,
          "internalType": "uint256",
          "name": "blockNumber",
          "type": "uint256"
        },
        {
          "indexed": false,
          "internalType": "bytes",
          "name": "data",
          "type": "bytes"
        }
      ],
      "name": "DataRequested",
      "type": "event"
    },
    {
      "anonymous": false,
      "inputs": [
        {
          "indexed": false,
          "internalType": "address",
          "name": "oracle",
          "type": "address"
        },
        {
          "indexed": false,
          "internalType": "uint256",
          "name": "requestId",
          "type": "uint256"
        }
      ],
      "name": "DataSubmitted",
      "type": "event"
    },
    {
      "anonymous": false,
      "inputs": [
        {
          "indexed": false,
          "internalType": "address",
          "name": "oracle",
          "type": "address"
        }
      ],
      "name": "OracleDeregistered",
      "type": "event"
    },
    {
      "anonymous": false,
      "inputs": [
        {
          "indexed": false,
          "internalType": "address",
          "name": "oracle",
          "type": "address"
        }
      ],
      "name": "OracleRegistered",
      "type": "event"
    },
    {
      "anonymous": false,
      "inputs": [
        {
          "indexed": true,
          "internalType": "address",
          "name": "previousOwner",
          "type": "address"
        },
        {
          "indexed": true,
          "internalType": "address",
          "name": "newOwner",
          "type": "address"
        }
      ],
      "name": "OwnershipTransferred",
      "type": "event"
    },
    {
      "anonymous": false,
      "inputs": [
        {
          "indexed": false,
          "internalType": "address",
          "name": "prepayment",
          "type": "address"
        }
      ],
      "name": "PrepaymentSet",
      "type": "event"
    },
    {
      "anonymous": false,
      "inputs": [
        {
          "indexed": true,
          "internalType": "uint256",
          "name": "requestId",
          "type": "uint256"
        }
      ],
      "name": "RequestCanceled",
      "type": "event"
    },
    {
      "inputs": [],
      "name": "MAX_ORACLES",
      "outputs": [
        {
          "internalType": "uint8",
          "name": "",
          "type": "uint8"
        }
      ],
      "stateMutability": "view",
      "type": "function"
    },
    {
      "inputs": [
        {
          "internalType": "uint256",
          "name": "requestId",
          "type": "uint256"
        }
      ],
      "name": "cancelRequest",
      "outputs": [],
      "stateMutability": "nonpayable",
      "type": "function"
    },
    {
      "inputs": [
        {
          "internalType": "address",
          "name": "oracle",
          "type": "address"
        }
      ],
      "name": "deregisterOracle",
      "outputs": [],
      "stateMutability": "nonpayable",
      "type": "function"
    },
    {
      "inputs": [
        {
          "internalType": "uint256",
          "name": "requestId",
          "type": "uint256"
        },
        {
          "internalType": "bool",
          "name": "response",
          "type": "bool"
        },
        {
          "components": [
            {
              "internalType": "uint64",
              "name": "blockNum",
              "type": "uint64"
            },
            {
              "internalType": "uint32",
              "name": "callbackGasLimit",
              "type": "uint32"
            },
            {
              "internalType": "address",
              "name": "sender",
              "type": "address"
            },
            {
              "internalType": "bytes32",
              "name": "jobId",
              "type": "bytes32"
            }
          ],
          "internalType": "struct IADCSCoordinatorBase.RequestCommitment",
          "name": "rc",
          "type": "tuple"
        }
      ],
      "name": "fulfillDataRequestBool",
      "outputs": [],
      "stateMutability": "nonpayable",
      "type": "function"
    },
    {
      "inputs": [
        {
          "internalType": "uint256",
          "name": "requestId",
          "type": "uint256"
        },
        {
          "internalType": "bytes",
          "name": "response",
          "type": "bytes"
        },
        {
          "components": [
            {
              "internalType": "uint64",
              "name": "blockNum",
              "type": "uint64"
            },
            {
              "internalType": "uint32",
              "name": "callbackGasLimit",
              "type": "uint32"
            },
            {
              "internalType": "address",
              "name": "sender",
              "type": "address"
            },
            {
              "internalType": "bytes32",
              "name": "jobId",
              "type": "bytes32"
            }
          ],
          "internalType": "struct IADCSCoordinatorBase.RequestCommitment",
          "name": "rc",
          "type": "tuple"
        }
      ],
      "name": "fulfillDataRequestBytes",
      "outputs": [],
      "stateMutability": "nonpayable",
      "type": "function"
    },
    {
      "inputs": [
        {
          "internalType": "uint256",
          "name": "requestId",
          "type": "uint256"
        },
        {
          "internalType": "bytes32",
          "name": "response",
          "type": "bytes32"
        },
        {
          "components": [
            {
              "internalType": "uint64",
              "name": "blockNum",
              "type": "uint64"
            },
            {
              "internalType": "uint32",
              "name": "callbackGasLimit",
              "type": "uint32"
            },
            {
              "internalType": "address",
              "name": "sender",
              "type": "address"
            },
            {
              "internalType": "bytes32",
              "name": "jobId",
              "type": "bytes32"
            }
          ],
          "internalType": "struct IADCSCoordinatorBase.RequestCommitment",
          "name": "rc",
          "type": "tuple"
        }
      ],
      "name": "fulfillDataRequestBytes32",
      "outputs": [],
      "stateMutability": "nonpayable",
      "type": "function"
    },
    {
      "inputs": [
        {
          "internalType": "uint256",
          "name": "requestId",
          "type": "uint256"
        },
        {
          "internalType": "uint256",
          "name": "response",
          "type": "uint256"
        },
        {
          "components": [
            {
              "internalType": "uint64",
              "name": "blockNum",
              "type": "uint64"
            },
            {
              "internalType": "uint32",
              "name": "callbackGasLimit",
              "type": "uint32"
            },
            {
              "internalType": "address",
              "name": "sender",
              "type": "address"
            },
            {
              "internalType": "bytes32",
              "name": "jobId",
              "type": "bytes32"
            }
          ],
          "internalType": "struct IADCSCoordinatorBase.RequestCommitment",
          "name": "rc",
          "type": "tuple"
        }
      ],
      "name": "fulfillDataRequestUint256",
      "outputs": [],
      "stateMutability": "nonpayable",
      "type": "function"
    },
    {
      "inputs": [
        {
          "internalType": "uint256",
          "name": "requestId",
          "type": "uint256"
        }
      ],
      "name": "getCommitment",
      "outputs": [
        {
          "internalType": "bytes32",
          "name": "",
          "type": "bytes32"
        }
      ],
      "stateMutability": "view",
      "type": "function"
    },
    {
      "inputs": [],
      "name": "getConfig",
      "outputs": [
        {
          "internalType": "uint32",
          "name": "maxGasLimit",
          "type": "uint32"
        },
        {
          "internalType": "uint32",
          "name": "gasAfterPaymentCalculation",
          "type": "uint32"
        }
      ],
      "stateMutability": "view",
      "type": "function"
    },
    {
      "inputs": [
        {
          "internalType": "address",
          "name": "oracle",
          "type": "address"
        }
      ],
      "name": "isOracleRegistered",
      "outputs": [
        {
          "internalType": "bool",
          "name": "",
          "type": "bool"
        }
      ],
      "stateMutability": "view",
      "type": "function"
    },
    {
      "inputs": [],
      "name": "owner",
      "outputs": [
        {
          "internalType": "address",
          "name": "",
          "type": "address"
        }
      ],
      "stateMutability": "view",
      "type": "function"
    },
    {
      "inputs": [
        {
          "internalType": "address",
          "name": "consumer",
          "type": "address"
        },
        {
          "internalType": "uint64",
          "name": "nonce",
          "type": "uint64"
        }
      ],
      "name": "pendingRequestExists",
      "outputs": [
        {
          "internalType": "bool",
          "name": "",
          "type": "bool"
        }
      ],
      "stateMutability": "view",
      "type": "function"
    },
    {
      "inputs": [
        {
          "internalType": "address",
          "name": "oracle",
          "type": "address"
        }
      ],
      "name": "registerOracle",
      "outputs": [],
      "stateMutability": "nonpayable",
      "type": "function"
    },
    {
      "inputs": [],
      "name": "renounceOwnership",
      "outputs": [],
      "stateMutability": "nonpayable",
      "type": "function"
    },
    {
      "inputs": [
        {
          "internalType": "uint32",
          "name": "callbackGasLimit",
          "type": "uint32"
        },
        {
          "components": [
            {
              "internalType": "bytes32",
              "name": "id",
              "type": "bytes32"
            },
            {
              "internalType": "address",
              "name": "callbackAddr",
              "type": "address"
            },
            {
              "internalType": "bytes4",
              "name": "callbackFunc",
              "type": "bytes4"
            },
            {
              "internalType": "uint256",
              "name": "nonce",
              "type": "uint256"
            },
            {
              "components": [
                {
                  "internalType": "bytes",
                  "name": "buf",
                  "type": "bytes"
                },
                {
                  "internalType": "uint256",
                  "name": "capacity",
                  "type": "uint256"
                }
              ],
              "internalType": "struct Buffer.buffer",
              "name": "buf",
              "type": "tuple"
            }
          ],
          "internalType": "struct ADCS.Request",
          "name": "req",
          "type": "tuple"
        }
      ],
      "name": "requestData",
      "outputs": [
        {
          "internalType": "uint256",
          "name": "",
          "type": "uint256"
        }
      ],
      "stateMutability": "nonpayable",
      "type": "function"
    },
    {
      "inputs": [
        {
          "internalType": "uint256",
          "name": "",
          "type": "uint256"
        }
      ],
      "name": "sOracles",
      "outputs": [
        {
          "internalType": "address",
          "name": "",
          "type": "address"
        }
      ],
      "stateMutability": "view",
      "type": "function"
    },
    {
      "inputs": [
        {
          "internalType": "uint32",
          "name": "maxGasLimit",
          "type": "uint32"
        },
        {
          "internalType": "uint32",
          "name": "gasAfterPaymentCalculation",
          "type": "uint32"
        }
      ],
      "name": "setConfig",
      "outputs": [],
      "stateMutability": "nonpayable",
      "type": "function"
    },
    {
      "inputs": [
        {
          "internalType": "address",
          "name": "newOwner",
          "type": "address"
        }
      ],
      "name": "transferOwnership",
      "outputs": [],
      "stateMutability": "nonpayable",
      "type": "function"
    },
    {
      "inputs": [],
      "name": "typeAndVersion",
      "outputs": [
        {
          "internalType": "string",
          "name": "",
          "type": "string"
        }
      ],
      "stateMutability": "pure",
      "type": "function"
    }
  ],
  "transactionHash": "0xaa3acc1fdcfdf5eeca20ae16444dd6db8e4349f0f219e39a3413e3bb87dfd934",
  "args": [],
  "numDeployments": 4,
  "solcInputHash": "215b1f0f88a64f7fe138ac07920485ec",
  "bytecode": "0x60806040523480156200001157600080fd5b5062000022620000af60201b60201c565b600073ffffffffffffffffffffffffffffffffffffffff168173ffffffffffffffffffffffffffffffffffffffff1603620000975760006040517f1e4fbdf70000000000000000000000000000000000000000000000000000000081526004016200008e9190620001c0565b60405180910390fd5b620000a881620000b760201b60201c565b50620001dd565b600033905090565b60008060009054906101000a900473ffffffffffffffffffffffffffffffffffffffff169050816000806101000a81548173ffffffffffffffffffffffffffffffffffffffff021916908373ffffffffffffffffffffffffffffffffffffffff1602179055508173ffffffffffffffffffffffffffffffffffffffff168173ffffffffffffffffffffffffffffffffffffffff167f8be0079c531659141344cd1fd0a4f28419497f9722a3daafe3b4186f6b6457e060405160405180910390a35050565b600073ffffffffffffffffffffffffffffffffffffffff82169050919050565b6000620001a8826200017b565b9050919050565b620001ba816200019b565b82525050565b6000602082019050620001d76000830184620001af565b92915050565b612a7180620001ed6000396000f3fe608060405234801561001057600080fd5b50600436106101215760003560e01c80638df4e3e2116100ad578063c3f909d411610071578063c3f909d4146102f2578063d98196b314610311578063e9babaec14610341578063f2fde38b1461035d578063f8795e101461037957610121565b80638df4e3e21461023c578063a4e92aa714610258578063b9b55c9a14610288578063ba9ecc97146102b8578063bfedbfa0146102d457610121565b806369bcdb7d116100f457806369bcdb7d146101985780636ccec818146101c8578063715018a6146101e457806378cb441f146101ee5780638da5cb5b1461021e57610121565b806313ab866314610126578063181f5a77146101425780633015394c1461016057806364d98f361461017c575b600080fd5b610140600480360381019061013b9190611f6d565b610395565b005b61014a61055d565b604051610157919061203f565b60405180910390f35b61017a60048036038101906101759190612061565b61059a565b005b61019660048036038101906101919190612148565b6106ee565b005b6101b260048036038101906101ad9190612061565b6108b6565b6040516101bf91906121c6565b60405180910390f35b6101e260048036038101906101dd91906121e1565b6108d3565b005b6101ec6109b5565b005b6102086004803603810190610203919061238d565b6109c9565b60405161021591906123f8565b60405180910390f35b610226610b4f565b6040516102339190612422565b60405180910390f35b6102566004803603810190610251919061243d565b610b78565b005b610272600480360381019061026d919061246a565b610e28565b60405161027f91906124c5565b60405180910390f35b6102a2600480360381019061029d919061243d565b610e85565b6040516102af91906124c5565b60405180910390f35b6102d260048036038101906102cd91906124e0565b610edb565b005b6102dc6110ed565b6040516102e9919061254f565b60405180910390f35b6102fa6110f2565b604051610308929190612579565b60405180910390f35b61032b60048036038101906103269190612061565b611129565b6040516103389190612422565b60405180910390f35b61035b6004803603810190610356919061243d565b611168565b005b6103776004803603810190610372919061243d565b611335565b005b610393600480360381019061038e91906125ce565b6113bb565b005b61039f8184611583565b60016005600085815260200190815260200160002060010160003373ffffffffffffffffffffffffffffffffffffffff1673ffffffffffffffffffffffffffffffffffffffff16815260200190815260200160002060006101000a81548160ff021916908315150217905550600060056000858152602001908152602001600020600001905080339080600181540180825580915050600190039060005260206000200160009091909190916101000a81548173ffffffffffffffffffffffffffffffffffffffff021916908373ffffffffffffffffffffffffffffffffffffffff160217905550600063f40b4def60e01b85856040516024016104a4929190612621565b604051602081830303815290604052907bffffffffffffffffffffffffffffffffffffffffffffffffffffffff19166020820180517bffffffffffffffffffffffffffffffffffffffffffffffffffffffff83818316178352505050509050600061050f8285611761565b905061051a866117c6565b50857f68ab2090cae4446c41a4252a58251ac07f2ac3277747f0f2431ce7d80fdb6437868360405161054d92919061264a565b60405180910390a2505050505050565b60606040518060400160405280601481526020017f41444353436f6f7264696e61746f722076302e31000000000000000000000000815250905090565b6105a381611984565b6105d9576040517f3688124a00000000000000000000000000000000000000000000000000000000815260040160405180910390fd5b3373ffffffffffffffffffffffffffffffffffffffff166003600083815260200190815260200160002060009054906101000a900473ffffffffffffffffffffffffffffffffffffffff1673ffffffffffffffffffffffffffffffffffffffff1614610671576040517f517907dd00000000000000000000000000000000000000000000000000000000815260040160405180910390fd5b60026000828152602001908152602001600020600090556003600082815260200190815260200160002060006101000a81549073ffffffffffffffffffffffffffffffffffffffff0219169055807f6187bf55f2675dbecee951f81c92ecac87f54ed5bf888d31b09e634749b848ef60405160405180910390a250565b6106f88184611583565b60016005600085815260200190815260200160002060010160003373ffffffffffffffffffffffffffffffffffffffff1673ffffffffffffffffffffffffffffffffffffffff16815260200190815260200160002060006101000a81548160ff021916908315150217905550600060056000858152602001908152602001600020600001905080339080600181540180825580915050600190039060005260206000200160009091909190916101000a81548173ffffffffffffffffffffffffffffffffffffffff021916908373ffffffffffffffffffffffffffffffffffffffff16021790555060006319e2cd2f60e01b85856040516024016107fd9291906126c8565b604051602081830303815290604052907bffffffffffffffffffffffffffffffffffffffffffffffffffffffff19166020820180517bffffffffffffffffffffffffffffffffffffffffffffffffffffffff8381831617835250505050905060006108688285611761565b9050610873866117c6565b50857fb6727cffbd4cbe4365522df08e3a8fbcf75662b5e1c5ffb1db39c936250abf7786836040516108a69291906126f8565b60405180910390a2505050505050565b600060026000838152602001908152602001600020549050919050565b6108db6119b6565b60405180606001604052808363ffffffff1681526020016000151581526020018263ffffffff16815250600460008201518160000160006101000a81548163ffffffff021916908363ffffffff16021790555060208201518160000160046101000a81548160ff02191690831515021790555060408201518160000160056101000a81548163ffffffff021916908363ffffffff1602179055509050507ff264aae70bf6a9d90e68e0f9b393f4e7fbea67b063b0f336e0b36c158170365182826040516109a9929190612579565b60405180910390a15050565b6109bd6119b6565b6109c76000611a3d565b565b6000600460000160009054906101000a900463ffffffff1663ffffffff168363ffffffff161115610a485782600460000160009054906101000a900463ffffffff166040517ff5d7e01e000000000000000000000000000000000000000000000000000000008152600401610a3f929190612579565b60405180910390fd5b6000610a5333611b01565b90506000610a613383611bd5565b90506000439050610a79828288338960000151611c0b565b6002600084815260200190815260200160002081905550336003600084815260200190815260200160002060006101000a81548173ffffffffffffffffffffffffffffffffffffffff021916908373ffffffffffffffffffffffffffffffffffffffff1602179055503373ffffffffffffffffffffffffffffffffffffffff16827f3f8d486ff859ee47dadad065db3de85176c9f4ec6e3187450f1c592d4a94ef62888860000151858a6080015160000151604051610b3b9493929190612728565b60405180910390a381935050505092915050565b60008060009054906101000a900473ffffffffffffffffffffffffffffffffffffffff16905090565b610b806119b6565b600660008273ffffffffffffffffffffffffffffffffffffffff1673ffffffffffffffffffffffffffffffffffffffff16815260200190815260200160002060009054906101000a900460ff16610c0e57806040517ff9a0ffdf000000000000000000000000000000000000000000000000000000008152600401610c059190612422565b60405180910390fd5b600660008273ffffffffffffffffffffffffffffffffffffffff1673ffffffffffffffffffffffffffffffffffffffff16815260200190815260200160002060006101000a81549060ff02191690556000600180549050905060005b81811015610dec578273ffffffffffffffffffffffffffffffffffffffff1660018281548110610c9d57610c9c612774565b5b9060005260206000200160009054906101000a900473ffffffffffffffffffffffffffffffffffffffff1673ffffffffffffffffffffffffffffffffffffffff1603610ddb57600060018084610cf391906127d2565b81548110610d0457610d03612774565b5b9060005260206000200160009054906101000a900473ffffffffffffffffffffffffffffffffffffffff1690508060018381548110610d4657610d45612774565b5b9060005260206000200160006101000a81548173ffffffffffffffffffffffffffffffffffffffff021916908373ffffffffffffffffffffffffffffffffffffffff1602179055506001805480610da057610d9f612806565b5b6001900381819060005260206000200160006101000a81549073ffffffffffffffffffffffffffffffffffffffff0219169055905550610dec565b80610de590612835565b9050610c6a565b507f5406c1f2d9ece2027a923f317fb5f2370221e330db898c037c10acc0c20495b382604051610e1c9190612422565b60405180910390a15050565b600080600180549050905060005b81811015610e78576000610e4a8686611bd5565b9050610e5581611984565b15610e665760019350505050610e7f565b5080610e7190612835565b9050610e36565b5060009150505b92915050565b6000600660008373ffffffffffffffffffffffffffffffffffffffff1673ffffffffffffffffffffffffffffffffffffffff16815260200190815260200160002060009054906101000a900460ff169050919050565b600460000160049054906101000a900460ff1615610f25576040517fed3ba6a600000000000000000000000000000000000000000000000000000000815260040160405180910390fd5b610f2f8184611583565b60016005600085815260200190815260200160002060010160003373ffffffffffffffffffffffffffffffffffffffff1673ffffffffffffffffffffffffffffffffffffffff16815260200190815260200160002060006101000a81548160ff021916908315150217905550600060056000858152602001908152602001600020600001905080339080600181540180825580915050600190039060005260206000200160009091909190916101000a81548173ffffffffffffffffffffffffffffffffffffffff021916908373ffffffffffffffffffffffffffffffffffffffff16021790555060006377f262ea60e01b858560405160240161103492919061287d565b604051602081830303815290604052907bffffffffffffffffffffffffffffffffffffffffffffffffffffffff19166020820180517bffffffffffffffffffffffffffffffffffffffffffffffffffffffff83818316178352505050509050600061109f8285611761565b90506110aa866117c6565b50857fc321dd2edb70648970d947727983978c1fb4f15aef68acb1663c00d7f105a75586836040516110dd9291906128a6565b60405180910390a2505050505050565b60ff81565b600080600460000160009054906101000a900463ffffffff16600460000160059054906101000a900463ffffffff16915091509091565b6001818154811061113957600080fd5b906000526020600020016000915054906101000a900473ffffffffffffffffffffffffffffffffffffffff1681565b6111706119b6565b60ff8016600180549050106111b1576040517f25d0209c00000000000000000000000000000000000000000000000000000000815260040160405180910390fd5b600660008273ffffffffffffffffffffffffffffffffffffffff1673ffffffffffffffffffffffffffffffffffffffff16815260200190815260200160002060009054906101000a900460ff161561124057806040517f6ff7406a0000000000000000000000000000000000000000000000000000000081526004016112379190612422565b60405180910390fd5b6001819080600181540180825580915050600190039060005260206000200160009091909190916101000a81548173ffffffffffffffffffffffffffffffffffffffff021916908373ffffffffffffffffffffffffffffffffffffffff1602179055506001600660008373ffffffffffffffffffffffffffffffffffffffff1673ffffffffffffffffffffffffffffffffffffffff16815260200190815260200160002060006101000a81548160ff0219169083151502179055507fd9d9fdcc9f936c76b5aafe54fc3db5dcec0c6583c9ccc4abe91d17575c5145a58160405161132a9190612422565b60405180910390a150565b61133d6119b6565b600073ffffffffffffffffffffffffffffffffffffffff168173ffffffffffffffffffffffffffffffffffffffff16036113af5760006040517f1e4fbdf70000000000000000000000000000000000000000000000000000000081526004016113a69190612422565b60405180910390fd5b6113b881611a3d565b50565b6113c58184611583565b60016005600085815260200190815260200160002060010160003373ffffffffffffffffffffffffffffffffffffffff1673ffffffffffffffffffffffffffffffffffffffff16815260200190815260200160002060006101000a81548160ff021916908315150217905550600060056000858152602001908152602001600020600001905080339080600181540180825580915050600190039060005260206000200160009091909190916101000a81548173ffffffffffffffffffffffffffffffffffffffff021916908373ffffffffffffffffffffffffffffffffffffffff16021790555060006390d95efc60e01b85856040516024016114ca9291906128a6565b604051602081830303815290604052907bffffffffffffffffffffffffffffffffffffffffffffffffffffffff19166020820180517bffffffffffffffffffffffffffffffffffffffffffffffffffffffff8381831617835250505050905060006115358285611761565b9050611540866117c6565b50857f1642c1857f43a2e6a38067a7503bdbff46b114bdedb9684838fef1a2e830fbc186836040516115739291906128cf565b60405180910390a2505050505050565b600660003373ffffffffffffffffffffffffffffffffffffffff1673ffffffffffffffffffffffffffffffffffffffff16815260200190815260200160002060009054906101000a900460ff1661161157336040517fd6c337480000000000000000000000000000000000000000000000000000000081526004016116089190612422565b60405180910390fd5b6005600082815260200190815260200160002060010160003373ffffffffffffffffffffffffffffffffffffffff1673ffffffffffffffffffffffffffffffffffffffff16815260200190815260200160002060009054906101000a900460ff16156116a9576040517f9f17b6ef00000000000000000000000000000000000000000000000000000000815260040160405180910390fd5b6000600260008381526020019081526020016000205490506000801b81036116fd576040517f3688124a00000000000000000000000000000000000000000000000000000000815260040160405180910390fd5b61172482846000015167ffffffffffffffff16856020015186604001518760600151611c0b565b811461175c576040517fd529142c00000000000000000000000000000000000000000000000000000000815260040160405180910390fd5b505050565b60006001600460000160046101000a81548160ff021916908315150217905550600061179c836020015163ffffffff16846040015186611c47565b90506000600460000160046101000a81548160ff0219169083151502179055508091505092915050565b606060006005600084815260200190815260200160002060000180548060200260200160405190810160405280929190818152602001828054801561186057602002820191906000526020600020905b8160009054906101000a900473ffffffffffffffffffffffffffffffffffffffff1673ffffffffffffffffffffffffffffffffffffffff1681526020019060010190808311611816575b5050505050905060005b81518160ff16101561190757600560008581526020019081526020016000206001016000838360ff16815181106118a4576118a3612774565b5b602002602001015173ffffffffffffffffffffffffffffffffffffffff1673ffffffffffffffffffffffffffffffffffffffff16815260200190815260200160002060006101000a81549060ff021916905580611900906128f8565b905061186a565b50600560008481526020019081526020016000206000808201600061192c9190611cc7565b505060026000848152602001908152602001600020600090556003600084815260200190815260200160002060006101000a81549073ffffffffffffffffffffffffffffffffffffffff021916905580915050919050565b60008060001b6002600084815260200190815260200160002054146119ac57600190506119b1565b600090505b919050565b6119be611cbf565b73ffffffffffffffffffffffffffffffffffffffff166119dc610b4f565b73ffffffffffffffffffffffffffffffffffffffff1614611a3b576119ff611cbf565b6040517f118cdaa7000000000000000000000000000000000000000000000000000000008152600401611a329190612422565b60405180910390fd5b565b60008060009054906101000a900473ffffffffffffffffffffffffffffffffffffffff169050816000806101000a81548173ffffffffffffffffffffffffffffffffffffffff021916908373ffffffffffffffffffffffffffffffffffffffff1602179055508173ffffffffffffffffffffffffffffffffffffffff168173ffffffffffffffffffffffffffffffffffffffff167f8be0079c531659141344cd1fd0a4f28419497f9722a3daafe3b4186f6b6457e060405160405180910390a35050565b6000806001600760008573ffffffffffffffffffffffffffffffffffffffff1673ffffffffffffffffffffffffffffffffffffffff16815260200190815260200160002060009054906101000a900467ffffffffffffffff16611b649190612921565b905080600760008573ffffffffffffffffffffffffffffffffffffffff1673ffffffffffffffffffffffffffffffffffffffff16815260200190815260200160002060006101000a81548167ffffffffffffffff021916908367ffffffffffffffff16021790555080915050919050565b60008282604051602001611bea92919061296c565b6040516020818303038152906040528051906020012060001c905092915050565b60008585858585604051602001611c26959493929190612995565b60405160208183030381529060405280519060200120905095945050505050565b60008273ffffffffffffffffffffffffffffffffffffffff168483604051611c6f9190612a24565b60006040518083038160008787f1925050503d8060008114611cad576040519150601f19603f3d011682016040523d82523d6000602084013e611cb2565b606091505b5050809150509392505050565b600033905090565b5080546000825590600052602060002090810190611ce59190611ce8565b50565b5b80821115611d01576000816000905550600101611ce9565b5090565b6000604051905090565b600080fd5b600080fd5b6000819050919050565b611d2c81611d19565b8114611d3757600080fd5b50565b600081359050611d4981611d23565b92915050565b6000819050919050565b611d6281611d4f565b8114611d6d57600080fd5b50565b600081359050611d7f81611d59565b92915050565b600080fd5b6000601f19601f8301169050919050565b7f4e487b7100000000000000000000000000000000000000000000000000000000600052604160045260246000fd5b611dd382611d8a565b810181811067ffffffffffffffff82111715611df257611df1611d9b565b5b80604052505050565b6000611e05611d05565b9050611e118282611dca565b919050565b600080fd5b600067ffffffffffffffff82169050919050565b611e3881611e1b565b8114611e4357600080fd5b50565b600081359050611e5581611e2f565b92915050565b600063ffffffff82169050919050565b611e7481611e5b565b8114611e7f57600080fd5b50565b600081359050611e9181611e6b565b92915050565b600073ffffffffffffffffffffffffffffffffffffffff82169050919050565b6000611ec282611e97565b9050919050565b611ed281611eb7565b8114611edd57600080fd5b50565b600081359050611eef81611ec9565b92915050565b600060808284031215611f0b57611f0a611d85565b5b611f156080611dfb565b90506000611f2584828501611e46565b6000830152506020611f3984828501611e82565b6020830152506040611f4d84828501611ee0565b6040830152506060611f6184828501611d70565b60608301525092915050565b600080600060c08486031215611f8657611f85611d0f565b5b6000611f9486828701611d3a565b9350506020611fa586828701611d70565b9250506040611fb686828701611ef5565b9150509250925092565b600081519050919050565b600082825260208201905092915050565b60005b83811015611ffa578082015181840152602081019050611fdf565b60008484015250505050565b600061201182611fc0565b61201b8185611fcb565b935061202b818560208601611fdc565b61203481611d8a565b840191505092915050565b600060208201905081810360008301526120598184612006565b905092915050565b60006020828403121561207757612076611d0f565b5b600061208584828501611d3a565b91505092915050565b600080fd5b600080fd5b600067ffffffffffffffff8211156120b3576120b2611d9b565b5b6120bc82611d8a565b9050602081019050919050565b82818337600083830152505050565b60006120eb6120e684612098565b611dfb565b90508281526020810184848401111561210757612106612093565b5b6121128482856120c9565b509392505050565b600082601f83011261212f5761212e61208e565b5b813561213f8482602086016120d8565b91505092915050565b600080600060c0848603121561216157612160611d0f565b5b600061216f86828701611d3a565b935050602084013567ffffffffffffffff8111156121905761218f611d14565b5b61219c8682870161211a565b92505060406121ad86828701611ef5565b9150509250925092565b6121c081611d4f565b82525050565b60006020820190506121db60008301846121b7565b92915050565b600080604083850312156121f8576121f7611d0f565b5b600061220685828601611e82565b925050602061221785828601611e82565b9150509250929050565b60007fffffffff0000000000000000000000000000000000000000000000000000000082169050919050565b61225681612221565b811461226157600080fd5b50565b6000813590506122738161224d565b92915050565b60006040828403121561228f5761228e611d85565b5b6122996040611dfb565b9050600082013567ffffffffffffffff8111156122b9576122b8611e16565b5b6122c58482850161211a565b60008301525060206122d984828501611d3a565b60208301525092915050565b600060a082840312156122fb576122fa611d85565b5b61230560a0611dfb565b9050600061231584828501611d70565b600083015250602061232984828501611ee0565b602083015250604061233d84828501612264565b604083015250606061235184828501611d3a565b606083015250608082013567ffffffffffffffff81111561237557612374611e16565b5b61238184828501612279565b60808301525092915050565b600080604083850312156123a4576123a3611d0f565b5b60006123b285828601611e82565b925050602083013567ffffffffffffffff8111156123d3576123d2611d14565b5b6123df858286016122e5565b9150509250929050565b6123f281611d19565b82525050565b600060208201905061240d60008301846123e9565b92915050565b61241c81611eb7565b82525050565b60006020820190506124376000830184612413565b92915050565b60006020828403121561245357612452611d0f565b5b600061246184828501611ee0565b91505092915050565b6000806040838503121561248157612480611d0f565b5b600061248f85828601611ee0565b92505060206124a085828601611e46565b9150509250929050565b60008115159050919050565b6124bf816124aa565b82525050565b60006020820190506124da60008301846124b6565b92915050565b600080600060c084860312156124f9576124f8611d0f565b5b600061250786828701611d3a565b935050602061251886828701611d3a565b925050604061252986828701611ef5565b9150509250925092565b600060ff82169050919050565b61254981612533565b82525050565b60006020820190506125646000830184612540565b92915050565b61257381611e5b565b82525050565b600060408201905061258e600083018561256a565b61259b602083018461256a565b9392505050565b6125ab816124aa565b81146125b657600080fd5b50565b6000813590506125c8816125a2565b92915050565b600080600060c084860312156125e7576125e6611d0f565b5b60006125f586828701611d3a565b9350506020612606868287016125b9565b925050604061261786828701611ef5565b9150509250925092565b600060408201905061263660008301856123e9565b61264360208301846121b7565b9392505050565b600060408201905061265f60008301856121b7565b61266c60208301846124b6565b9392505050565b600081519050919050565b600082825260208201905092915050565b600061269a82612673565b6126a4818561267e565b93506126b4818560208601611fdc565b6126bd81611d8a565b840191505092915050565b60006040820190506126dd60008301856123e9565b81810360208301526126ef818461268f565b90509392505050565b60006040820190508181036000830152612712818561268f565b905061272160208301846124b6565b9392505050565b600060808201905061273d600083018761256a565b61274a60208301866121b7565b61275760408301856123e9565b8181036060830152612769818461268f565b905095945050505050565b7f4e487b7100000000000000000000000000000000000000000000000000000000600052603260045260246000fd5b7f4e487b7100000000000000000000000000000000000000000000000000000000600052601160045260246000fd5b60006127dd82611d19565b91506127e883611d19565b9250828203905081811115612800576127ff6127a3565b5b92915050565b7f4e487b7100000000000000000000000000000000000000000000000000000000600052603160045260246000fd5b600061284082611d19565b91507fffffffffffffffffffffffffffffffffffffffffffffffffffffffffffffffff8203612872576128716127a3565b5b600182019050919050565b600060408201905061289260008301856123e9565b61289f60208301846123e9565b9392505050565b60006040820190506128bb60008301856123e9565b6128c860208301846124b6565b9392505050565b60006040820190506128e460008301856124b6565b6128f160208301846124b6565b9392505050565b600061290382612533565b915060ff8203612916576129156127a3565b5b600182019050919050565b600061292c82611e1b565b915061293783611e1b565b9250828201905067ffffffffffffffff811115612957576129566127a3565b5b92915050565b61296681611e1b565b82525050565b60006040820190506129816000830185612413565b61298e602083018461295d565b9392505050565b600060a0820190506129aa60008301886123e9565b6129b760208301876123e9565b6129c4604083018661256a565b6129d16060830185612413565b6129de60808301846121b7565b9695505050505050565b600081905092915050565b60006129fe82612673565b612a0881856129e8565b9350612a18818560208601611fdc565b80840191505092915050565b6000612a3082846129f3565b91508190509291505056fea2646970667358221220f7b681e15f3dd96a4a01d1edf2191fecd6a055a1446b5c77db03b2c29e18d27764736f6c63430008140033",
  "devdoc": {
    "errors": {
      "OwnableInvalidOwner(address)": [
        {
          "details": "The owner is not a valid owner account. (eg. `address(0)`)"
        }
      ],
      "OwnableUnauthorizedAccount(address)": [
        {
          "details": "The caller account is not authorized to perform an operation."
        }
      ]
    },
    "kind": "dev",
    "methods": {
      "cancelRequest(uint256)": {
        "params": {
          "requestId": "- ID of the Oracle Request"
        }
      },
      "deregisterOracle(address)": {
        "params": {
          "oracle": "address of the oracle"
        }
      },
      "getCommitment(uint256)": {
        "params": {
          "requestId": "id of request"
        },
        "returns": {
          "_0": "commmitment value that can be used to determine whether a request is fulfilled or not. If `requestId` is valid and commitment equals to bytes32(0), the request was fulfilled."
        }
      },
      "isOracleRegistered(address)": {
        "returns": {
          "_0": "true when oracle address registered, otherwise false"
        }
      },
      "owner()": {
        "details": "Returns the address of the current owner."
      },
      "registerOracle(address)": {
        "params": {
          "oracle": "address of the oracle"
        }
      },
      "renounceOwnership()": {
        "details": "Leaves the contract without owner. It will not be possible to call `onlyOwner` functions. Can only be called by the current owner. NOTE: Renouncing ownership will leave the contract without an owner, thereby disabling any functionality that is only available to the owner."
      },
      "setConfig(uint32,uint32)": {
        "params": {
          "gasAfterPaymentCalculation": "gas used in doing accounting after completing the gas measurement",
          "maxGasLimit": "global max for request gas limit"
        }
      },
      "transferOwnership(address)": {
        "details": "Transfers ownership of the contract to a new account (`newOwner`). Can only be called by the current owner."
      },
      "typeAndVersion()": {
        "returns": {
          "_0": "Type and version string"
        }
      }
    },
    "version": 1
  },
  "userdoc": {
    "kind": "user",
    "methods": {
      "cancelRequest(uint256)": {
        "notice": "Canceling oracle request"
      },
      "deregisterOracle(address)": {
        "notice": "Deregister an oracle"
      },
      "getCommitment(uint256)": {
        "notice": "Get request commitment."
      },
      "isOracleRegistered(address)": {
        "notice": "Find out whether given oracle address was registered."
      },
      "registerOracle(address)": {
        "notice": "Register an oracle"
      },
      "setConfig(uint32,uint32)": {
        "notice": "Sets the configuration of the VRF coordinator"
      },
      "typeAndVersion()": {
        "notice": "The type and version of this contract"
      }
    },
    "version": 1
  },
  "storageLayout": {
    "storage": [
      {
        "astId": 8,
        "contract": "src/ADCSCoordinator.sol:ADCSCoordinator",
        "label": "_owner",
        "offset": 0,
        "slot": "0",
        "type": "t_address"
      },
      {
        "astId": 1382,
        "contract": "src/ADCSCoordinator.sol:ADCSCoordinator",
        "label": "sOracles",
        "offset": 0,
        "slot": "1",
        "type": "t_array(t_address)dyn_storage"
      },
      {
        "astId": 1386,
        "contract": "src/ADCSCoordinator.sol:ADCSCoordinator",
        "label": "sRequestIdToCommitment",
        "offset": 0,
        "slot": "2",
        "type": "t_mapping(t_uint256,t_bytes32)"
      },
      {
        "astId": 1390,
        "contract": "src/ADCSCoordinator.sol:ADCSCoordinator",
        "label": "sRequestOwner",
        "offset": 0,
        "slot": "3",
        "type": "t_mapping(t_uint256,t_address)"
      },
      {
        "astId": 1400,
        "contract": "src/ADCSCoordinator.sol:ADCSCoordinator",
        "label": "sConfig",
        "offset": 0,
        "slot": "4",
        "type": "t_struct(Config)1397_storage"
      },
      {
        "astId": 446,
        "contract": "src/ADCSCoordinator.sol:ADCSCoordinator",
        "label": "sSubmission",
        "offset": 0,
        "slot": "5",
        "type": "t_mapping(t_uint256,t_struct(Submission)441_storage)"
      },
      {
        "astId": 450,
        "contract": "src/ADCSCoordinator.sol:ADCSCoordinator",
        "label": "sIsOracleRegistered",
        "offset": 0,
        "slot": "6",
        "type": "t_mapping(t_address,t_bool)"
      },
      {
        "astId": 454,
        "contract": "src/ADCSCoordinator.sol:ADCSCoordinator",
        "label": "sConsumerToNonce",
        "offset": 0,
        "slot": "7",
        "type": "t_mapping(t_address,t_uint64)"
      }
    ],
    "types": {
      "t_address": {
        "encoding": "inplace",
        "label": "address",
        "numberOfBytes": "20"
      },
      "t_array(t_address)dyn_storage": {
        "base": "t_address",
        "encoding": "dynamic_array",
        "label": "address[]",
        "numberOfBytes": "32"
      },
      "t_bool": {
        "encoding": "inplace",
        "label": "bool",
        "numberOfBytes": "1"
      },
      "t_bytes32": {
        "encoding": "inplace",
        "label": "bytes32",
        "numberOfBytes": "32"
      },
      "t_mapping(t_address,t_bool)": {
        "encoding": "mapping",
        "key": "t_address",
        "label": "mapping(address => bool)",
        "numberOfBytes": "32",
        "value": "t_bool"
      },
      "t_mapping(t_address,t_uint64)": {
        "encoding": "mapping",
        "key": "t_address",
        "label": "mapping(address => uint64)",
        "numberOfBytes": "32",
        "value": "t_uint64"
      },
      "t_mapping(t_uint256,t_address)": {
        "encoding": "mapping",
        "key": "t_uint256",
        "label": "mapping(uint256 => address)",
        "numberOfBytes": "32",
        "value": "t_address"
      },
      "t_mapping(t_uint256,t_bytes32)": {
        "encoding": "mapping",
        "key": "t_uint256",
        "label": "mapping(uint256 => bytes32)",
        "numberOfBytes": "32",
        "value": "t_bytes32"
      },
      "t_mapping(t_uint256,t_struct(Submission)441_storage)": {
        "encoding": "mapping",
        "key": "t_uint256",
        "label": "mapping(uint256 => struct ADCSCoordinator.Submission)",
        "numberOfBytes": "32",
        "value": "t_struct(Submission)441_storage"
      },
      "t_struct(Config)1397_storage": {
        "encoding": "inplace",
        "label": "struct CoordinatorBase.Config",
        "members": [
          {
            "astId": 1392,
            "contract": "src/ADCSCoordinator.sol:ADCSCoordinator",
            "label": "maxGasLimit",
            "offset": 0,
            "slot": "0",
            "type": "t_uint32"
          },
          {
            "astId": 1394,
            "contract": "src/ADCSCoordinator.sol:ADCSCoordinator",
            "label": "reentrancyLock",
            "offset": 4,
            "slot": "0",
            "type": "t_bool"
          },
          {
            "astId": 1396,
            "contract": "src/ADCSCoordinator.sol:ADCSCoordinator",
            "label": "gasAfterPaymentCalculation",
            "offset": 5,
            "slot": "0",
            "type": "t_uint32"
          }
        ],
        "numberOfBytes": "32"
      },
      "t_struct(Submission)441_storage": {
        "encoding": "inplace",
        "label": "struct ADCSCoordinator.Submission",
        "members": [
          {
            "astId": 436,
            "contract": "src/ADCSCoordinator.sol:ADCSCoordinator",
            "label": "oracles",
            "offset": 0,
            "slot": "0",
            "type": "t_array(t_address)dyn_storage"
          },
          {
            "astId": 440,
            "contract": "src/ADCSCoordinator.sol:ADCSCoordinator",
            "label": "submitted",
            "offset": 0,
            "slot": "1",
            "type": "t_mapping(t_address,t_bool)"
          }
        ],
        "numberOfBytes": "64"
      },
      "t_uint256": {
        "encoding": "inplace",
        "label": "uint256",
        "numberOfBytes": "32"
      },
      "t_uint32": {
        "encoding": "inplace",
        "label": "uint32",
        "numberOfBytes": "4"
      },
      "t_uint64": {
        "encoding": "inplace",
        "label": "uint64",
        "numberOfBytes": "8"
      }
    }
  }
}