{
  "address": "0x07bbC170f188a307161e7d0cD4Eb0CF0Cae39405",
  "abi": [
    {
      "inputs": [],
      "stateMutability": "nonpayable",
      "type": "constructor"
    },
    {
      "inputs": [
        {
          "internalType": "uint256",
          "name": "have",
          "type": "uint256"
        },
        {
          "internalType": "uint256",
          "name": "want",
          "type": "uint256"
        }
      ],
      "name": "GasLimitTooBig",
      "type": "error"
    },
    {
      "inputs": [],
      "name": "IncompatibleJobId",
      "type": "error"
    },
    {
      "inputs": [],
      "name": "IncorrectCommitment",
      "type": "error"
    },
    {
      "inputs": [
        {
          "internalType": "uint256",
          "name": "have",
          "type": "uint256"
        },
        {
          "internalType": "uint256",
          "name": "want",
          "type": "uint256"
        }
      ],
      "name": "InsufficientPayment",
      "type": "error"
    },
    {
      "inputs": [
        {
          "internalType": "uint64",
          "name": "accId",
          "type": "uint64"
        },
        {
          "internalType": "address",
          "name": "consumer",
          "type": "address"
        }
      ],
      "name": "InvalidConsumer",
      "type": "error"
    },
    {
      "inputs": [],
      "name": "InvalidJobId",
      "type": "error"
    },
    {
      "inputs": [],
      "name": "InvalidNumSubmission",
      "type": "error"
    },
    {
      "inputs": [],
      "name": "NoCorrespondingRequest",
      "type": "error"
    },
    {
      "inputs": [
        {
          "internalType": "address",
          "name": "oracle",
          "type": "address"
        }
      ],
      "name": "NoSuchOracle",
      "type": "error"
    },
    {
      "inputs": [],
      "name": "NotRequestOwner",
      "type": "error"
    },
    {
      "inputs": [
        {
          "internalType": "address",
          "name": "oracle",
          "type": "address"
        }
      ],
      "name": "OracleAlreadyRegistered",
      "type": "error"
    },
    {
      "inputs": [],
      "name": "OracleAlreadySubmitted",
      "type": "error"
    },
    {
      "inputs": [
        {
          "internalType": "address",
          "name": "owner",
          "type": "address"
        }
      ],
      "name": "OwnableInvalidOwner",
      "type": "error"
    },
    {
      "inputs": [
        {
          "internalType": "address",
          "name": "account",
          "type": "address"
        }
      ],
      "name": "OwnableUnauthorizedAccount",
      "type": "error"
    },
    {
      "inputs": [],
      "name": "Reentrant",
      "type": "error"
    },
    {
      "inputs": [],
      "name": "RefundFailure",
      "type": "error"
    },
    {
      "inputs": [],
      "name": "TooManyOracles",
      "type": "error"
    },
    {
      "inputs": [
        {
          "internalType": "address",
          "name": "oracle",
          "type": "address"
        }
      ],
      "name": "UnregisteredOracleFulfillment",
      "type": "error"
    },
    {
      "anonymous": false,
      "inputs": [
        {
          "indexed": false,
          "internalType": "uint256",
          "name": "maxGasLimit",
          "type": "uint256"
        },
        {
          "indexed": false,
          "internalType": "uint256",
          "name": "gasAfterPaymentCalculation",
          "type": "uint256"
        }
      ],
      "name": "ConfigSet",
      "type": "event"
    },
    {
      "anonymous": false,
      "inputs": [
        {
          "indexed": true,
          "internalType": "uint256",
          "name": "requestId",
          "type": "uint256"
        },
        {
          "indexed": false,
          "internalType": "bytes",
          "name": "response",
          "type": "bytes"
        },
        {
          "indexed": false,
          "internalType": "bool",
          "name": "success",
          "type": "bool"
        }
      ],
      "name": "DataRequestFulfilled",
      "type": "event"
    },
    {
      "anonymous": false,
      "inputs": [
        {
          "indexed": true,
          "internalType": "uint256",
          "name": "requestId",
          "type": "uint256"
        },
        {
          "indexed": false,
          "internalType": "bool",
          "name": "response",
          "type": "bool"
        },
        {
          "indexed": false,
          "internalType": "bool",
          "name": "success",
          "type": "bool"
        }
      ],
      "name": "DataRequestFulfilledBool",
      "type": "event"
    },
    {
      "anonymous": false,
      "inputs": [
        {
          "indexed": true,
          "internalType": "uint256",
          "name": "requestId",
          "type": "uint256"
        },
        {
          "indexed": false,
          "internalType": "bytes",
          "name": "response",
          "type": "bytes"
        },
        {
          "indexed": false,
          "internalType": "bool",
          "name": "success",
          "type": "bool"
        }
      ],
      "name": "DataRequestFulfilledBytes",
      "type": "event"
    },
    {
      "anonymous": false,
      "inputs": [
        {
          "indexed": true,
          "internalType": "uint256",
          "name": "requestId",
          "type": "uint256"
        },
        {
          "indexed": false,
          "internalType": "bytes32",
          "name": "response",
          "type": "bytes32"
        },
        {
          "indexed": false,
          "internalType": "bool",
          "name": "success",
          "type": "bool"
        }
      ],
      "name": "DataRequestFulfilledBytes32",
      "type": "event"
    },
    {
      "anonymous": false,
      "inputs": [
        {
          "indexed": true,
          "internalType": "uint256",
          "name": "requestId",
          "type": "uint256"
        },
        {
          "components": [
            {
              "internalType": "string",
              "name": "name",
              "type": "string"
            },
            {
              "internalType": "bool",
              "name": "response",
              "type": "bool"
            }
          ],
          "indexed": false,
          "internalType": "struct IADCSCoordinatorBase.StringAndBool",
          "name": "response",
          "type": "tuple"
        },
        {
          "indexed": false,
          "internalType": "bool",
          "name": "success",
          "type": "bool"
        }
      ],
      "name": "DataRequestFulfilledStringAndBool",
      "type": "event"
    },
    {
      "anonymous": false,
      "inputs": [
        {
          "indexed": true,
          "internalType": "uint256",
          "name": "requestId",
          "type": "uint256"
        },
        {
          "indexed": false,
          "internalType": "uint256",
          "name": "response",
          "type": "uint256"
        },
        {
          "indexed": false,
          "internalType": "bool",
          "name": "success",
          "type": "bool"
        }
      ],
      "name": "DataRequestFulfilledUint256",
      "type": "event"
    },
    {
      "anonymous": false,
      "inputs": [
        {
          "indexed": true,
          "internalType": "uint256",
          "name": "requestId",
          "type": "uint256"
        },
        {
          "indexed": false,
          "internalType": "uint256",
          "name": "callbackGasLimit",
          "type": "uint256"
        },
        {
          "indexed": true,
          "internalType": "address",
          "name": "sender",
          "type": "address"
        },
        {
          "indexed": false,
          "internalType": "bytes32",
          "name": "jobId",
          "type": "bytes32"
        },
        {
          "indexed": false,
          "internalType": "uint256",
          "name": "blockNumber",
          "type": "uint256"
        },
        {
          "indexed": false,
          "internalType": "bytes",
          "name": "data",
          "type": "bytes"
        }
      ],
      "name": "DataRequested",
      "type": "event"
    },
    {
      "anonymous": false,
      "inputs": [
        {
          "indexed": false,
          "internalType": "address",
          "name": "oracle",
          "type": "address"
        },
        {
          "indexed": false,
          "internalType": "uint256",
          "name": "requestId",
          "type": "uint256"
        }
      ],
      "name": "DataSubmitted",
      "type": "event"
    },
    {
      "anonymous": false,
      "inputs": [
        {
          "indexed": false,
          "internalType": "address",
          "name": "oracle",
          "type": "address"
        }
      ],
      "name": "OracleDeregistered",
      "type": "event"
    },
    {
      "anonymous": false,
      "inputs": [
        {
          "indexed": false,
          "internalType": "address",
          "name": "oracle",
          "type": "address"
        }
      ],
      "name": "OracleRegistered",
      "type": "event"
    },
    {
      "anonymous": false,
      "inputs": [
        {
          "indexed": true,
          "internalType": "address",
          "name": "previousOwner",
          "type": "address"
        },
        {
          "indexed": true,
          "internalType": "address",
          "name": "newOwner",
          "type": "address"
        }
      ],
      "name": "OwnershipTransferred",
      "type": "event"
    },
    {
      "anonymous": false,
      "inputs": [
        {
          "indexed": false,
          "internalType": "address",
          "name": "prepayment",
          "type": "address"
        }
      ],
      "name": "PrepaymentSet",
      "type": "event"
    },
    {
      "anonymous": false,
      "inputs": [
        {
          "indexed": true,
          "internalType": "uint256",
          "name": "requestId",
          "type": "uint256"
        }
      ],
      "name": "RequestCanceled",
      "type": "event"
    },
    {
      "inputs": [],
      "name": "MAX_ORACLES",
      "outputs": [
        {
          "internalType": "uint8",
          "name": "",
          "type": "uint8"
        }
      ],
      "stateMutability": "view",
      "type": "function"
    },
    {
      "inputs": [
        {
          "internalType": "uint256",
          "name": "requestId",
          "type": "uint256"
        }
      ],
      "name": "cancelRequest",
      "outputs": [],
      "stateMutability": "nonpayable",
      "type": "function"
    },
    {
      "inputs": [
        {
          "internalType": "address",
          "name": "oracle",
          "type": "address"
        }
      ],
      "name": "deregisterOracle",
      "outputs": [],
      "stateMutability": "nonpayable",
      "type": "function"
    },
    {
      "inputs": [
        {
          "internalType": "uint256",
          "name": "requestId",
          "type": "uint256"
        },
        {
          "internalType": "bool",
          "name": "response",
          "type": "bool"
        },
        {
          "components": [
            {
              "internalType": "uint64",
              "name": "blockNum",
              "type": "uint64"
            },
            {
              "internalType": "uint256",
              "name": "callbackGasLimit",
              "type": "uint256"
            },
            {
              "internalType": "address",
              "name": "sender",
              "type": "address"
            },
            {
              "internalType": "bytes32",
              "name": "jobId",
              "type": "bytes32"
            }
          ],
          "internalType": "struct IADCSCoordinatorBase.RequestCommitment",
          "name": "rc",
          "type": "tuple"
        }
      ],
      "name": "fulfillDataRequestBool",
      "outputs": [],
      "stateMutability": "nonpayable",
      "type": "function"
    },
    {
      "inputs": [
        {
          "internalType": "uint256",
          "name": "requestId",
          "type": "uint256"
        },
        {
          "internalType": "bytes",
          "name": "response",
          "type": "bytes"
        },
        {
          "components": [
            {
              "internalType": "uint64",
              "name": "blockNum",
              "type": "uint64"
            },
            {
              "internalType": "uint256",
              "name": "callbackGasLimit",
              "type": "uint256"
            },
            {
              "internalType": "address",
              "name": "sender",
              "type": "address"
            },
            {
              "internalType": "bytes32",
              "name": "jobId",
              "type": "bytes32"
            }
          ],
          "internalType": "struct IADCSCoordinatorBase.RequestCommitment",
          "name": "rc",
          "type": "tuple"
        }
      ],
      "name": "fulfillDataRequestBytes",
      "outputs": [],
      "stateMutability": "nonpayable",
      "type": "function"
    },
    {
      "inputs": [
        {
          "internalType": "uint256",
          "name": "requestId",
          "type": "uint256"
        },
        {
          "internalType": "bytes32",
          "name": "response",
          "type": "bytes32"
        },
        {
          "components": [
            {
              "internalType": "uint64",
              "name": "blockNum",
              "type": "uint64"
            },
            {
              "internalType": "uint256",
              "name": "callbackGasLimit",
              "type": "uint256"
            },
            {
              "internalType": "address",
              "name": "sender",
              "type": "address"
            },
            {
              "internalType": "bytes32",
              "name": "jobId",
              "type": "bytes32"
            }
          ],
          "internalType": "struct IADCSCoordinatorBase.RequestCommitment",
          "name": "rc",
          "type": "tuple"
        }
      ],
      "name": "fulfillDataRequestBytes32",
      "outputs": [],
      "stateMutability": "nonpayable",
      "type": "function"
    },
    {
      "inputs": [
        {
          "internalType": "uint256",
          "name": "requestId",
          "type": "uint256"
        },
        {
          "components": [
            {
              "internalType": "string",
              "name": "name",
              "type": "string"
            },
            {
              "internalType": "bool",
              "name": "response",
              "type": "bool"
            }
          ],
          "internalType": "struct IADCSCoordinatorBase.StringAndBool",
          "name": "response",
          "type": "tuple"
        },
        {
          "components": [
            {
              "internalType": "uint64",
              "name": "blockNum",
              "type": "uint64"
            },
            {
              "internalType": "uint256",
              "name": "callbackGasLimit",
              "type": "uint256"
            },
            {
              "internalType": "address",
              "name": "sender",
              "type": "address"
            },
            {
              "internalType": "bytes32",
              "name": "jobId",
              "type": "bytes32"
            }
          ],
          "internalType": "struct IADCSCoordinatorBase.RequestCommitment",
          "name": "rc",
          "type": "tuple"
        }
      ],
      "name": "fulfillDataRequestStringAndBool",
      "outputs": [],
      "stateMutability": "nonpayable",
      "type": "function"
    },
    {
      "inputs": [
        {
          "internalType": "uint256",
          "name": "requestId",
          "type": "uint256"
        },
        {
          "internalType": "uint256",
          "name": "response",
          "type": "uint256"
        },
        {
          "components": [
            {
              "internalType": "uint64",
              "name": "blockNum",
              "type": "uint64"
            },
            {
              "internalType": "uint256",
              "name": "callbackGasLimit",
              "type": "uint256"
            },
            {
              "internalType": "address",
              "name": "sender",
              "type": "address"
            },
            {
              "internalType": "bytes32",
              "name": "jobId",
              "type": "bytes32"
            }
          ],
          "internalType": "struct IADCSCoordinatorBase.RequestCommitment",
          "name": "rc",
          "type": "tuple"
        }
      ],
      "name": "fulfillDataRequestUint256",
      "outputs": [],
      "stateMutability": "nonpayable",
      "type": "function"
    },
    {
      "inputs": [
        {
          "internalType": "uint256",
          "name": "requestId",
          "type": "uint256"
        }
      ],
      "name": "getCommitment",
      "outputs": [
        {
          "internalType": "bytes32",
          "name": "",
          "type": "bytes32"
        }
      ],
      "stateMutability": "view",
      "type": "function"
    },
    {
      "inputs": [],
      "name": "getConfig",
      "outputs": [
        {
          "internalType": "uint256",
          "name": "maxGasLimit",
          "type": "uint256"
        },
        {
          "internalType": "uint256",
          "name": "gasAfterPaymentCalculation",
          "type": "uint256"
        }
      ],
      "stateMutability": "view",
      "type": "function"
    },
    {
      "inputs": [
        {
          "internalType": "address",
          "name": "oracle",
          "type": "address"
        }
      ],
      "name": "isOracleRegistered",
      "outputs": [
        {
          "internalType": "bool",
          "name": "",
          "type": "bool"
        }
      ],
      "stateMutability": "view",
      "type": "function"
    },
    {
      "inputs": [],
      "name": "owner",
      "outputs": [
        {
          "internalType": "address",
          "name": "",
          "type": "address"
        }
      ],
      "stateMutability": "view",
      "type": "function"
    },
    {
      "inputs": [
        {
          "internalType": "address",
          "name": "consumer",
          "type": "address"
        },
        {
          "internalType": "uint64",
          "name": "nonce",
          "type": "uint64"
        }
      ],
      "name": "pendingRequestExists",
      "outputs": [
        {
          "internalType": "bool",
          "name": "",
          "type": "bool"
        }
      ],
      "stateMutability": "view",
      "type": "function"
    },
    {
      "inputs": [
        {
          "internalType": "address",
          "name": "oracle",
          "type": "address"
        }
      ],
      "name": "registerOracle",
      "outputs": [],
      "stateMutability": "nonpayable",
      "type": "function"
    },
    {
      "inputs": [],
      "name": "renounceOwnership",
      "outputs": [],
      "stateMutability": "nonpayable",
      "type": "function"
    },
    {
      "inputs": [
        {
          "internalType": "uint256",
          "name": "callbackGasLimit",
          "type": "uint256"
        },
        {
          "components": [
            {
              "internalType": "bytes32",
              "name": "id",
              "type": "bytes32"
            },
            {
              "internalType": "address",
              "name": "callbackAddr",
              "type": "address"
            },
            {
              "internalType": "bytes4",
              "name": "callbackFunc",
              "type": "bytes4"
            },
            {
              "internalType": "uint256",
              "name": "nonce",
              "type": "uint256"
            },
            {
              "components": [
                {
                  "internalType": "bytes",
                  "name": "buf",
                  "type": "bytes"
                },
                {
                  "internalType": "uint256",
                  "name": "capacity",
                  "type": "uint256"
                }
              ],
              "internalType": "struct Buffer.buffer",
              "name": "buf",
              "type": "tuple"
            }
          ],
          "internalType": "struct ADCS.Request",
          "name": "req",
          "type": "tuple"
        }
      ],
      "name": "requestData",
      "outputs": [
        {
          "internalType": "uint256",
          "name": "",
          "type": "uint256"
        }
      ],
      "stateMutability": "nonpayable",
      "type": "function"
    },
    {
      "inputs": [
        {
          "internalType": "uint256",
          "name": "",
          "type": "uint256"
        }
      ],
      "name": "sOracles",
      "outputs": [
        {
          "internalType": "address",
          "name": "",
          "type": "address"
        }
      ],
      "stateMutability": "view",
      "type": "function"
    },
    {
      "inputs": [
        {
          "internalType": "uint256",
          "name": "maxGasLimit",
          "type": "uint256"
        },
        {
          "internalType": "uint256",
          "name": "gasAfterPaymentCalculation",
          "type": "uint256"
        }
      ],
      "name": "setConfig",
      "outputs": [],
      "stateMutability": "nonpayable",
      "type": "function"
    },
    {
      "inputs": [
        {
          "internalType": "address",
          "name": "newOwner",
          "type": "address"
        }
      ],
      "name": "transferOwnership",
      "outputs": [],
      "stateMutability": "nonpayable",
      "type": "function"
    },
    {
      "inputs": [],
      "name": "typeAndVersion",
      "outputs": [
        {
          "internalType": "string",
          "name": "",
          "type": "string"
        }
      ],
      "stateMutability": "pure",
      "type": "function"
    }
  ],
  "transactionHash": "0x5ff5cd601c2598efd86b955b81f94f584660dc14e97d4003e0b79b043841385e",
  "args": [],
  "numDeployments": 1,
  "solcInputHash": "d88ba7c07a0d3cfb50b65100446ada58",
  "bytecode": "0x60806040523480156200001157600080fd5b5062000022620000af60201b60201c565b600073ffffffffffffffffffffffffffffffffffffffff168173ffffffffffffffffffffffffffffffffffffffff1603620000975760006040517f1e4fbdf70000000000000000000000000000000000000000000000000000000081526004016200008e9190620001c0565b60405180910390fd5b620000a881620000b760201b60201c565b50620001dd565b600033905090565b60008060009054906101000a900473ffffffffffffffffffffffffffffffffffffffff169050816000806101000a81548173ffffffffffffffffffffffffffffffffffffffff021916908373ffffffffffffffffffffffffffffffffffffffff1602179055508173ffffffffffffffffffffffffffffffffffffffff168173ffffffffffffffffffffffffffffffffffffffff167f8be0079c531659141344cd1fd0a4f28419497f9722a3daafe3b4186f6b6457e060405160405180910390a35050565b600073ffffffffffffffffffffffffffffffffffffffff82169050919050565b6000620001a8826200017b565b9050919050565b620001ba816200019b565b82525050565b6000602082019050620001d76000830184620001af565b92915050565b612da880620001ed6000396000f3fe608060405234801561001057600080fd5b506004361061012c5760003560e01c80638df4e3e2116100ad578063d98196b311610071578063d98196b314610308578063db750a2d14610338578063e9babaec14610368578063e9d3462814610384578063f2fde38b146103a05761012c565b80638df4e3e21461024f578063a4e92aa71461026b578063b9b55c9a1461029b578063bfedbfa0146102cb578063c3f909d4146102e95761012c565b80633015394c116100f45780633015394c146101bf5780634b9c3083146101db57806369bcdb7d146101f7578063715018a6146102275780638da5cb5b146102315761012c565b80631228cabf14610131578063181f5a771461014d5780631e34c5851461016b57806329ba70c4146101875780632f44d449146101a3575b600080fd5b61014b6004803603810190610146919061206a565b6103bc565b005b610155610584565b604051610162919061213c565b60405180910390f35b6101856004803603810190610180919061215e565b6105c1565b005b6101a1600480360381019061019c9190612258565b61065d565b005b6101bd60048036038101906101b8919061240c565b610825565b005b6101d960048036038101906101d4919061247b565b6109ed565b005b6101f560048036038101906101f091906124a8565b610b41565b005b610211600480360381019061020c919061247b565b610d09565b60405161021e919061250a565b60405180910390f35b61022f610d26565b005b610239610d3a565b6040516102469190612534565b60405180910390f35b6102696004803603810190610264919061254f565b610d63565b005b6102856004803603810190610280919061257c565b611013565b60405161029291906125cb565b60405180910390f35b6102b560048036038101906102b0919061254f565b611070565b6040516102c291906125cb565b60405180910390f35b6102d36110c6565b6040516102e09190612602565b60405180910390f35b6102f16110cb565b6040516102ff92919061262c565b60405180910390f35b610322600480360381019061031d919061247b565b6110e2565b60405161032f9190612534565b60405180910390f35b610352600480360381019061034d91906127c1565b611121565b60405161035f919061281d565b60405180910390f35b610382600480360381019061037d919061254f565b61127b565b005b61039e60048036038101906103999190612838565b611448565b005b6103ba60048036038101906103b5919061254f565b61165a565b005b6103c681846116e0565b60016007600085815260200190815260200160002060010160003373ffffffffffffffffffffffffffffffffffffffff1673ffffffffffffffffffffffffffffffffffffffff16815260200190815260200160002060006101000a81548160ff021916908315150217905550600060076000858152602001908152602001600020600001905080339080600181540180825580915050600190039060005260206000200160009091909190916101000a81548173ffffffffffffffffffffffffffffffffffffffff021916908373ffffffffffffffffffffffffffffffffffffffff160217905550600063f40b4def60e01b85856040516024016104cb92919061288b565b604051602081830303815290604052907bffffffffffffffffffffffffffffffffffffffffffffffffffffffff19166020820180517bffffffffffffffffffffffffffffffffffffffffffffffffffffffff83818316178352505050509050600061053682856118be565b905061054186611977565b50857f68ab2090cae4446c41a4252a58251ac07f2ac3277747f0f2431ce7d80fdb643786836040516105749291906128b4565b60405180910390a2505050505050565b60606040518060400160405280601481526020017f41444353436f6f7264696e61746f722076302e31000000000000000000000000815250905090565b6105c9611b35565b60405180606001604052808381526020016000151581526020018281525060046000820151816000015560208201518160010160006101000a81548160ff021916908315150217905550604082015181600201559050507f150110afd46e9924086bf85c855aae25722518b293155bf0ae689dd99a2e88cc828260405161065192919061262c565b60405180910390a15050565b61066781846116e0565b60016007600085815260200190815260200160002060010160003373ffffffffffffffffffffffffffffffffffffffff1673ffffffffffffffffffffffffffffffffffffffff16815260200190815260200160002060006101000a81548160ff021916908315150217905550600060076000858152602001908152602001600020600001905080339080600181540180825580915050600190039060005260206000200160009091909190916101000a81548173ffffffffffffffffffffffffffffffffffffffff021916908373ffffffffffffffffffffffffffffffffffffffff16021790555060006319e2cd2f60e01b858560405160240161076c929190612932565b604051602081830303815290604052907bffffffffffffffffffffffffffffffffffffffffffffffffffffffff19166020820180517bffffffffffffffffffffffffffffffffffffffffffffffffffffffff8381831617835250505050905060006107d782856118be565b90506107e286611977565b50857fb6727cffbd4cbe4365522df08e3a8fbcf75662b5e1c5ffb1db39c936250abf778683604051610815929190612962565b60405180910390a2505050505050565b61082f81846116e0565b60016007600085815260200190815260200160002060010160003373ffffffffffffffffffffffffffffffffffffffff1673ffffffffffffffffffffffffffffffffffffffff16815260200190815260200160002060006101000a81548160ff021916908315150217905550600060076000858152602001908152602001600020600001905080339080600181540180825580915050600190039060005260206000200160009091909190916101000a81548173ffffffffffffffffffffffffffffffffffffffff021916908373ffffffffffffffffffffffffffffffffffffffff1602179055506000630e2c871f60e01b8585604051602401610934929190612a28565b604051602081830303815290604052907bffffffffffffffffffffffffffffffffffffffffffffffffffffffff19166020820180517bffffffffffffffffffffffffffffffffffffffffffffffffffffffff83818316178352505050509050600061099f82856118be565b90506109aa86611977565b50857fe20c9d2af5010a05cb2c250f3fd7d56b813d69e8e8a129edca6267cdd7f2eb0386836040516109dd929190612a58565b60405180910390a2505050505050565b6109f681611bbc565b610a2c576040517f3688124a00000000000000000000000000000000000000000000000000000000815260040160405180910390fd5b3373ffffffffffffffffffffffffffffffffffffffff166003600083815260200190815260200160002060009054906101000a900473ffffffffffffffffffffffffffffffffffffffff1673ffffffffffffffffffffffffffffffffffffffff1614610ac4576040517f517907dd00000000000000000000000000000000000000000000000000000000815260040160405180910390fd5b60026000828152602001908152602001600020600090556003600082815260200190815260200160002060006101000a81549073ffffffffffffffffffffffffffffffffffffffff0219169055807f6187bf55f2675dbecee951f81c92ecac87f54ed5bf888d31b09e634749b848ef60405160405180910390a250565b610b4b81846116e0565b60016007600085815260200190815260200160002060010160003373ffffffffffffffffffffffffffffffffffffffff1673ffffffffffffffffffffffffffffffffffffffff16815260200190815260200160002060006101000a81548160ff021916908315150217905550600060076000858152602001908152602001600020600001905080339080600181540180825580915050600190039060005260206000200160009091909190916101000a81548173ffffffffffffffffffffffffffffffffffffffff021916908373ffffffffffffffffffffffffffffffffffffffff16021790555060006390d95efc60e01b8585604051602401610c50929190612a88565b604051602081830303815290604052907bffffffffffffffffffffffffffffffffffffffffffffffffffffffff19166020820180517bffffffffffffffffffffffffffffffffffffffffffffffffffffffff838183161783525050505090506000610cbb82856118be565b9050610cc686611977565b50857f1642c1857f43a2e6a38067a7503bdbff46b114bdedb9684838fef1a2e830fbc18683604051610cf9929190612ab1565b60405180910390a2505050505050565b600060026000838152602001908152602001600020549050919050565b610d2e611b35565b610d386000611bee565b565b60008060009054906101000a900473ffffffffffffffffffffffffffffffffffffffff16905090565b610d6b611b35565b600860008273ffffffffffffffffffffffffffffffffffffffff1673ffffffffffffffffffffffffffffffffffffffff16815260200190815260200160002060009054906101000a900460ff16610df957806040517ff9a0ffdf000000000000000000000000000000000000000000000000000000008152600401610df09190612534565b60405180910390fd5b600860008273ffffffffffffffffffffffffffffffffffffffff1673ffffffffffffffffffffffffffffffffffffffff16815260200190815260200160002060006101000a81549060ff02191690556000600180549050905060005b81811015610fd7578273ffffffffffffffffffffffffffffffffffffffff1660018281548110610e8857610e87612ada565b5b9060005260206000200160009054906101000a900473ffffffffffffffffffffffffffffffffffffffff1673ffffffffffffffffffffffffffffffffffffffff1603610fc657600060018084610ede9190612b38565b81548110610eef57610eee612ada565b5b9060005260206000200160009054906101000a900473ffffffffffffffffffffffffffffffffffffffff1690508060018381548110610f3157610f30612ada565b5b9060005260206000200160006101000a81548173ffffffffffffffffffffffffffffffffffffffff021916908373ffffffffffffffffffffffffffffffffffffffff1602179055506001805480610f8b57610f8a612b6c565b5b6001900381819060005260206000200160006101000a81549073ffffffffffffffffffffffffffffffffffffffff0219169055905550610fd7565b80610fd090612b9b565b9050610e55565b507f5406c1f2d9ece2027a923f317fb5f2370221e330db898c037c10acc0c20495b3826040516110079190612534565b60405180910390a15050565b600080600180549050905060005b818110156110635760006110358686611cb2565b905061104081611bbc565b15611051576001935050505061106a565b508061105c90612b9b565b9050611021565b5060009150505b92915050565b6000600860008373ffffffffffffffffffffffffffffffffffffffff1673ffffffffffffffffffffffffffffffffffffffff16815260200190815260200160002060009054906101000a900460ff169050919050565b60ff81565b600080600460000154600460020154915091509091565b600181815481106110f257600080fd5b906000526020600020016000915054906101000a900473ffffffffffffffffffffffffffffffffffffffff1681565b600060046000015483111561117457826004600001546040517f227449c900000000000000000000000000000000000000000000000000000000815260040161116b92919061262c565b60405180910390fd5b600061117f33611ce8565b9050600061118d3383611cb2565b905060004390506111a5828288338960000151611dbc565b6002600084815260200190815260200160002081905550336003600084815260200190815260200160002060006101000a81548173ffffffffffffffffffffffffffffffffffffffff021916908373ffffffffffffffffffffffffffffffffffffffff1602179055503373ffffffffffffffffffffffffffffffffffffffff16827f41ea4966e667f63a7c3fc4d3110cdef809a7d4dd88b1bc66d3a6b679c7fd633d888860000151858a60800151600001516040516112679493929190612be3565b60405180910390a381935050505092915050565b611283611b35565b60ff8016600180549050106112c4576040517f25d0209c00000000000000000000000000000000000000000000000000000000815260040160405180910390fd5b600860008273ffffffffffffffffffffffffffffffffffffffff1673ffffffffffffffffffffffffffffffffffffffff16815260200190815260200160002060009054906101000a900460ff161561135357806040517f6ff7406a00000000000000000000000000000000000000000000000000000000815260040161134a9190612534565b60405180910390fd5b6001819080600181540180825580915050600190039060005260206000200160009091909190916101000a81548173ffffffffffffffffffffffffffffffffffffffff021916908373ffffffffffffffffffffffffffffffffffffffff1602179055506001600860008373ffffffffffffffffffffffffffffffffffffffff1673ffffffffffffffffffffffffffffffffffffffff16815260200190815260200160002060006101000a81548160ff0219169083151502179055507fd9d9fdcc9f936c76b5aafe54fc3db5dcec0c6583c9ccc4abe91d17575c5145a58160405161143d9190612534565b60405180910390a150565b600460010160009054906101000a900460ff1615611492576040517fed3ba6a600000000000000000000000000000000000000000000000000000000815260040160405180910390fd5b61149c81846116e0565b60016007600085815260200190815260200160002060010160003373ffffffffffffffffffffffffffffffffffffffff1673ffffffffffffffffffffffffffffffffffffffff16815260200190815260200160002060006101000a81548160ff021916908315150217905550600060076000858152602001908152602001600020600001905080339080600181540180825580915050600190039060005260206000200160009091909190916101000a81548173ffffffffffffffffffffffffffffffffffffffff021916908373ffffffffffffffffffffffffffffffffffffffff16021790555060006377f262ea60e01b85856040516024016115a192919061262c565b604051602081830303815290604052907bffffffffffffffffffffffffffffffffffffffffffffffffffffffff19166020820180517bffffffffffffffffffffffffffffffffffffffffffffffffffffffff83818316178352505050509050600061160c82856118be565b905061161786611977565b50857fc321dd2edb70648970d947727983978c1fb4f15aef68acb1663c00d7f105a755868360405161164a929190612a88565b60405180910390a2505050505050565b611662611b35565b600073ffffffffffffffffffffffffffffffffffffffff168173ffffffffffffffffffffffffffffffffffffffff16036116d45760006040517f1e4fbdf70000000000000000000000000000000000000000000000000000000081526004016116cb9190612534565b60405180910390fd5b6116dd81611bee565b50565b600860003373ffffffffffffffffffffffffffffffffffffffff1673ffffffffffffffffffffffffffffffffffffffff16815260200190815260200160002060009054906101000a900460ff1661176e57336040517fd6c337480000000000000000000000000000000000000000000000000000000081526004016117659190612534565b60405180910390fd5b6007600082815260200190815260200160002060010160003373ffffffffffffffffffffffffffffffffffffffff1673ffffffffffffffffffffffffffffffffffffffff16815260200190815260200160002060009054906101000a900460ff1615611806576040517f9f17b6ef00000000000000000000000000000000000000000000000000000000815260040160405180910390fd5b6000600260008381526020019081526020016000205490506000801b810361185a576040517f3688124a00000000000000000000000000000000000000000000000000000000815260040160405180910390fd5b61188182846000015167ffffffffffffffff16856020015186604001518760600151611dbc565b81146118b9576040517fd529142c00000000000000000000000000000000000000000000000000000000815260040160405180910390fd5b505050565b60006001600460010160006101000a81548160ff0219169083151502179055506000826040015173ffffffffffffffffffffffffffffffffffffffff16846040516119099190612c6b565b6000604051808303816000865af19150503d8060008114611946576040519150601f19603f3d011682016040523d82523d6000602084013e61194b565b606091505b505090506000600460010160006101000a81548160ff0219169083151502179055508091505092915050565b6060600060076000848152602001908152602001600020600001805480602002602001604051908101604052809291908181526020018280548015611a1157602002820191906000526020600020905b8160009054906101000a900473ffffffffffffffffffffffffffffffffffffffff1673ffffffffffffffffffffffffffffffffffffffff16815260200190600101908083116119c7575b5050505050905060005b81518160ff161015611ab857600760008581526020019081526020016000206001016000838360ff1681518110611a5557611a54612ada565b5b602002602001015173ffffffffffffffffffffffffffffffffffffffff1673ffffffffffffffffffffffffffffffffffffffff16815260200190815260200160002060006101000a81549060ff021916905580611ab190612c82565b9050611a1b565b506007600084815260200190815260200160002060008082016000611add9190611e00565b505060026000848152602001908152602001600020600090556003600084815260200190815260200160002060006101000a81549073ffffffffffffffffffffffffffffffffffffffff021916905580915050919050565b611b3d611df8565b73ffffffffffffffffffffffffffffffffffffffff16611b5b610d3a565b73ffffffffffffffffffffffffffffffffffffffff1614611bba57611b7e611df8565b6040517f118cdaa7000000000000000000000000000000000000000000000000000000008152600401611bb19190612534565b60405180910390fd5b565b60008060001b600260008481526020019081526020016000205414611be45760019050611be9565b600090505b919050565b60008060009054906101000a900473ffffffffffffffffffffffffffffffffffffffff169050816000806101000a81548173ffffffffffffffffffffffffffffffffffffffff021916908373ffffffffffffffffffffffffffffffffffffffff1602179055508173ffffffffffffffffffffffffffffffffffffffff168173ffffffffffffffffffffffffffffffffffffffff167f8be0079c531659141344cd1fd0a4f28419497f9722a3daafe3b4186f6b6457e060405160405180910390a35050565b60008282604051602001611cc7929190612cba565b6040516020818303038152906040528051906020012060001c905092915050565b6000806001600960008573ffffffffffffffffffffffffffffffffffffffff1673ffffffffffffffffffffffffffffffffffffffff16815260200190815260200160002060009054906101000a900467ffffffffffffffff16611d4b9190612ce3565b905080600960008573ffffffffffffffffffffffffffffffffffffffff1673ffffffffffffffffffffffffffffffffffffffff16815260200190815260200160002060006101000a81548167ffffffffffffffff021916908367ffffffffffffffff16021790555080915050919050565b60008585858585604051602001611dd7959493929190612d1f565b60405160208183030381529060405280519060200120905095945050505050565b600033905090565b5080546000825590600052602060002090810190611e1e9190611e21565b50565b5b80821115611e3a576000816000905550600101611e22565b5090565b6000604051905090565b600080fd5b600080fd5b6000819050919050565b611e6581611e52565b8114611e7057600080fd5b50565b600081359050611e8281611e5c565b92915050565b6000819050919050565b611e9b81611e88565b8114611ea657600080fd5b50565b600081359050611eb881611e92565b92915050565b600080fd5b6000601f19601f8301169050919050565b7f4e487b7100000000000000000000000000000000000000000000000000000000600052604160045260246000fd5b611f0c82611ec3565b810181811067ffffffffffffffff82111715611f2b57611f2a611ed4565b5b80604052505050565b6000611f3e611e3e565b9050611f4a8282611f03565b919050565b600080fd5b600067ffffffffffffffff82169050919050565b611f7181611f54565b8114611f7c57600080fd5b50565b600081359050611f8e81611f68565b92915050565b600073ffffffffffffffffffffffffffffffffffffffff82169050919050565b6000611fbf82611f94565b9050919050565b611fcf81611fb4565b8114611fda57600080fd5b50565b600081359050611fec81611fc6565b92915050565b60006080828403121561200857612007611ebe565b5b6120126080611f34565b9050600061202284828501611f7f565b600083015250602061203684828501611e73565b602083015250604061204a84828501611fdd565b604083015250606061205e84828501611ea9565b60608301525092915050565b600080600060c0848603121561208357612082611e48565b5b600061209186828701611e73565b93505060206120a286828701611ea9565b92505060406120b386828701611ff2565b9150509250925092565b600081519050919050565b600082825260208201905092915050565b60005b838110156120f75780820151818401526020810190506120dc565b60008484015250505050565b600061210e826120bd565b61211881856120c8565b93506121288185602086016120d9565b61213181611ec3565b840191505092915050565b600060208201905081810360008301526121568184612103565b905092915050565b6000806040838503121561217557612174611e48565b5b600061218385828601611e73565b925050602061219485828601611e73565b9150509250929050565b600080fd5b600080fd5b600067ffffffffffffffff8211156121c3576121c2611ed4565b5b6121cc82611ec3565b9050602081019050919050565b82818337600083830152505050565b60006121fb6121f6846121a8565b611f34565b905082815260208101848484011115612217576122166121a3565b5b6122228482856121d9565b509392505050565b600082601f83011261223f5761223e61219e565b5b813561224f8482602086016121e8565b91505092915050565b600080600060c0848603121561227157612270611e48565b5b600061227f86828701611e73565b935050602084013567ffffffffffffffff8111156122a05761229f611e4d565b5b6122ac8682870161222a565b92505060406122bd86828701611ff2565b9150509250925092565b600067ffffffffffffffff8211156122e2576122e1611ed4565b5b6122eb82611ec3565b9050602081019050919050565b600061230b612306846122c7565b611f34565b905082815260208101848484011115612327576123266121a3565b5b6123328482856121d9565b509392505050565b600082601f83011261234f5761234e61219e565b5b813561235f8482602086016122f8565b91505092915050565b60008115159050919050565b61237d81612368565b811461238857600080fd5b50565b60008135905061239a81612374565b92915050565b6000604082840312156123b6576123b5611ebe565b5b6123c06040611f34565b9050600082013567ffffffffffffffff8111156123e0576123df611f4f565b5b6123ec8482850161233a565b60008301525060206124008482850161238b565b60208301525092915050565b600080600060c0848603121561242557612424611e48565b5b600061243386828701611e73565b935050602084013567ffffffffffffffff81111561245457612453611e4d565b5b612460868287016123a0565b925050604061247186828701611ff2565b9150509250925092565b60006020828403121561249157612490611e48565b5b600061249f84828501611e73565b91505092915050565b600080600060c084860312156124c1576124c0611e48565b5b60006124cf86828701611e73565b93505060206124e08682870161238b565b92505060406124f186828701611ff2565b9150509250925092565b61250481611e88565b82525050565b600060208201905061251f60008301846124fb565b92915050565b61252e81611fb4565b82525050565b60006020820190506125496000830184612525565b92915050565b60006020828403121561256557612564611e48565b5b600061257384828501611fdd565b91505092915050565b6000806040838503121561259357612592611e48565b5b60006125a185828601611fdd565b92505060206125b285828601611f7f565b9150509250929050565b6125c581612368565b82525050565b60006020820190506125e060008301846125bc565b92915050565b600060ff82169050919050565b6125fc816125e6565b82525050565b600060208201905061261760008301846125f3565b92915050565b61262681611e52565b82525050565b6000604082019050612641600083018561261d565b61264e602083018461261d565b9392505050565b60007fffffffff0000000000000000000000000000000000000000000000000000000082169050919050565b61268a81612655565b811461269557600080fd5b50565b6000813590506126a781612681565b92915050565b6000604082840312156126c3576126c2611ebe565b5b6126cd6040611f34565b9050600082013567ffffffffffffffff8111156126ed576126ec611f4f565b5b6126f98482850161222a565b600083015250602061270d84828501611e73565b60208301525092915050565b600060a0828403121561272f5761272e611ebe565b5b61273960a0611f34565b9050600061274984828501611ea9565b600083015250602061275d84828501611fdd565b602083015250604061277184828501612698565b604083015250606061278584828501611e73565b606083015250608082013567ffffffffffffffff8111156127a9576127a8611f4f565b5b6127b5848285016126ad565b60808301525092915050565b600080604083850312156127d8576127d7611e48565b5b60006127e685828601611e73565b925050602083013567ffffffffffffffff81111561280757612806611e4d565b5b61281385828601612719565b9150509250929050565b6000602082019050612832600083018461261d565b92915050565b600080600060c0848603121561285157612850611e48565b5b600061285f86828701611e73565b935050602061287086828701611e73565b925050604061288186828701611ff2565b9150509250925092565b60006040820190506128a0600083018561261d565b6128ad60208301846124fb565b9392505050565b60006040820190506128c960008301856124fb565b6128d660208301846125bc565b9392505050565b600081519050919050565b600082825260208201905092915050565b6000612904826128dd565b61290e81856128e8565b935061291e8185602086016120d9565b61292781611ec3565b840191505092915050565b6000604082019050612947600083018561261d565b818103602083015261295981846128f9565b90509392505050565b6000604082019050818103600083015261297c81856128f9565b905061298b60208301846125bc565b9392505050565b600082825260208201905092915050565b60006129ae826120bd565b6129b88185612992565b93506129c88185602086016120d9565b6129d181611ec3565b840191505092915050565b6129e581612368565b82525050565b60006040830160008301518482036000860152612a0882826129a3565b9150506020830151612a1d60208601826129dc565b508091505092915050565b6000604082019050612a3d600083018561261d565b8181036020830152612a4f81846129eb565b90509392505050565b60006040820190508181036000830152612a7281856129eb565b9050612a8160208301846125bc565b9392505050565b6000604082019050612a9d600083018561261d565b612aaa60208301846125bc565b9392505050565b6000604082019050612ac660008301856125bc565b612ad360208301846125bc565b9392505050565b7f4e487b7100000000000000000000000000000000000000000000000000000000600052603260045260246000fd5b7f4e487b7100000000000000000000000000000000000000000000000000000000600052601160045260246000fd5b6000612b4382611e52565b9150612b4e83611e52565b9250828203905081811115612b6657612b65612b09565b5b92915050565b7f4e487b7100000000000000000000000000000000000000000000000000000000600052603160045260246000fd5b6000612ba682611e52565b91507fffffffffffffffffffffffffffffffffffffffffffffffffffffffffffffffff8203612bd857612bd7612b09565b5b600182019050919050565b6000608082019050612bf8600083018761261d565b612c0560208301866124fb565b612c12604083018561261d565b8181036060830152612c2481846128f9565b905095945050505050565b600081905092915050565b6000612c45826128dd565b612c4f8185612c2f565b9350612c5f8185602086016120d9565b80840191505092915050565b6000612c778284612c3a565b915081905092915050565b6000612c8d826125e6565b915060ff8203612ca057612c9f612b09565b5b600182019050919050565b612cb481611f54565b82525050565b6000604082019050612ccf6000830185612525565b612cdc6020830184612cab565b9392505050565b6000612cee82611f54565b9150612cf983611f54565b9250828201905067ffffffffffffffff811115612d1957612d18612b09565b5b92915050565b600060a082019050612d34600083018861261d565b612d41602083018761261d565b612d4e604083018661261d565b612d5b6060830185612525565b612d6860808301846124fb565b969550505050505056fea26469706673582212204516b3f7f8a6871aa6f33add20dc91f5ca8a04c7ad49dbb5c5f315f6c475dea264736f6c63430008140033",
  "devdoc": {
    "errors": {
      "OwnableInvalidOwner(address)": [
        {
          "details": "The owner is not a valid owner account. (eg. `address(0)`)"
        }
      ],
      "OwnableUnauthorizedAccount(address)": [
        {
          "details": "The caller account is not authorized to perform an operation."
        }
      ]
    },
    "kind": "dev",
    "methods": {
      "cancelRequest(uint256)": {
        "params": {
          "requestId": "- ID of the Oracle Request"
        }
      },
      "deregisterOracle(address)": {
        "params": {
          "oracle": "address of the oracle"
        }
      },
      "getCommitment(uint256)": {
        "params": {
          "requestId": "id of request"
        },
        "returns": {
          "_0": "commmitment value that can be used to determine whether a request is fulfilled or not. If `requestId` is valid and commitment equals to bytes32(0), the request was fulfilled."
        }
      },
      "isOracleRegistered(address)": {
        "returns": {
          "_0": "true when oracle address registered, otherwise false"
        }
      },
      "owner()": {
        "details": "Returns the address of the current owner."
      },
      "registerOracle(address)": {
        "params": {
          "oracle": "address of the oracle"
        }
      },
      "renounceOwnership()": {
        "details": "Leaves the contract without owner. It will not be possible to call `onlyOwner` functions. Can only be called by the current owner. NOTE: Renouncing ownership will leave the contract without an owner, thereby disabling any functionality that is only available to the owner."
      },
      "setConfig(uint256,uint256)": {
        "params": {
          "gasAfterPaymentCalculation": "gas used in doing accounting after completing the gas measurement",
          "maxGasLimit": "global max for request gas limit"
        }
      },
      "transferOwnership(address)": {
        "details": "Transfers ownership of the contract to a new account (`newOwner`). Can only be called by the current owner."
      },
      "typeAndVersion()": {
        "returns": {
          "_0": "Type and version string"
        }
      }
    },
    "version": 1
  },
  "userdoc": {
    "kind": "user",
    "methods": {
      "cancelRequest(uint256)": {
        "notice": "Canceling oracle request"
      },
      "deregisterOracle(address)": {
        "notice": "Deregister an oracle"
      },
      "getCommitment(uint256)": {
        "notice": "Get request commitment."
      },
      "isOracleRegistered(address)": {
        "notice": "Find out whether given oracle address was registered."
      },
      "registerOracle(address)": {
        "notice": "Register an oracle"
      },
      "setConfig(uint256,uint256)": {
        "notice": "Sets the configuration of the VRF coordinator"
      },
      "typeAndVersion()": {
        "notice": "The type and version of this contract"
      }
    },
    "version": 1
  },
  "storageLayout": {
    "storage": [
      {
        "astId": 8,
        "contract": "src/ADCSCoordinator.sol:ADCSCoordinator",
        "label": "_owner",
        "offset": 0,
        "slot": "0",
        "type": "t_address"
      },
      {
        "astId": 2755,
        "contract": "src/ADCSCoordinator.sol:ADCSCoordinator",
        "label": "sOracles",
        "offset": 0,
        "slot": "1",
        "type": "t_array(t_address)dyn_storage"
      },
      {
        "astId": 2759,
        "contract": "src/ADCSCoordinator.sol:ADCSCoordinator",
        "label": "sRequestIdToCommitment",
        "offset": 0,
        "slot": "2",
        "type": "t_mapping(t_uint256,t_bytes32)"
      },
      {
        "astId": 2763,
        "contract": "src/ADCSCoordinator.sol:ADCSCoordinator",
        "label": "sRequestOwner",
        "offset": 0,
        "slot": "3",
        "type": "t_mapping(t_uint256,t_address)"
      },
      {
        "astId": 2773,
        "contract": "src/ADCSCoordinator.sol:ADCSCoordinator",
        "label": "sConfig",
        "offset": 0,
        "slot": "4",
        "type": "t_struct(Config)2770_storage"
      },
      {
        "astId": 1731,
        "contract": "src/ADCSCoordinator.sol:ADCSCoordinator",
        "label": "sSubmission",
        "offset": 0,
        "slot": "7",
        "type": "t_mapping(t_uint256,t_struct(Submission)1726_storage)"
      },
      {
        "astId": 1735,
        "contract": "src/ADCSCoordinator.sol:ADCSCoordinator",
        "label": "sIsOracleRegistered",
        "offset": 0,
        "slot": "8",
        "type": "t_mapping(t_address,t_bool)"
      },
      {
        "astId": 1739,
        "contract": "src/ADCSCoordinator.sol:ADCSCoordinator",
        "label": "sConsumerToNonce",
        "offset": 0,
        "slot": "9",
        "type": "t_mapping(t_address,t_uint64)"
      }
    ],
    "types": {
      "t_address": {
        "encoding": "inplace",
        "label": "address",
        "numberOfBytes": "20"
      },
      "t_array(t_address)dyn_storage": {
        "base": "t_address",
        "encoding": "dynamic_array",
        "label": "address[]",
        "numberOfBytes": "32"
      },
      "t_bool": {
        "encoding": "inplace",
        "label": "bool",
        "numberOfBytes": "1"
      },
      "t_bytes32": {
        "encoding": "inplace",
        "label": "bytes32",
        "numberOfBytes": "32"
      },
      "t_mapping(t_address,t_bool)": {
        "encoding": "mapping",
        "key": "t_address",
        "label": "mapping(address => bool)",
        "numberOfBytes": "32",
        "value": "t_bool"
      },
      "t_mapping(t_address,t_uint64)": {
        "encoding": "mapping",
        "key": "t_address",
        "label": "mapping(address => uint64)",
        "numberOfBytes": "32",
        "value": "t_uint64"
      },
      "t_mapping(t_uint256,t_address)": {
        "encoding": "mapping",
        "key": "t_uint256",
        "label": "mapping(uint256 => address)",
        "numberOfBytes": "32",
        "value": "t_address"
      },
      "t_mapping(t_uint256,t_bytes32)": {
        "encoding": "mapping",
        "key": "t_uint256",
        "label": "mapping(uint256 => bytes32)",
        "numberOfBytes": "32",
        "value": "t_bytes32"
      },
      "t_mapping(t_uint256,t_struct(Submission)1726_storage)": {
        "encoding": "mapping",
        "key": "t_uint256",
        "label": "mapping(uint256 => struct ADCSCoordinator.Submission)",
        "numberOfBytes": "32",
        "value": "t_struct(Submission)1726_storage"
      },
      "t_struct(Config)2770_storage": {
        "encoding": "inplace",
        "label": "struct CoordinatorBase.Config",
        "members": [
          {
            "astId": 2765,
            "contract": "src/ADCSCoordinator.sol:ADCSCoordinator",
            "label": "maxGasLimit",
            "offset": 0,
            "slot": "0",
            "type": "t_uint256"
          },
          {
            "astId": 2767,
            "contract": "src/ADCSCoordinator.sol:ADCSCoordinator",
            "label": "reentrancyLock",
            "offset": 0,
            "slot": "1",
            "type": "t_bool"
          },
          {
            "astId": 2769,
            "contract": "src/ADCSCoordinator.sol:ADCSCoordinator",
            "label": "gasAfterPaymentCalculation",
            "offset": 0,
            "slot": "2",
            "type": "t_uint256"
          }
        ],
        "numberOfBytes": "96"
      },
      "t_struct(Submission)1726_storage": {
        "encoding": "inplace",
        "label": "struct ADCSCoordinator.Submission",
        "members": [
          {
            "astId": 1721,
            "contract": "src/ADCSCoordinator.sol:ADCSCoordinator",
            "label": "oracles",
            "offset": 0,
            "slot": "0",
            "type": "t_array(t_address)dyn_storage"
          },
          {
            "astId": 1725,
            "contract": "src/ADCSCoordinator.sol:ADCSCoordinator",
            "label": "submitted",
            "offset": 0,
            "slot": "1",
            "type": "t_mapping(t_address,t_bool)"
          }
        ],
        "numberOfBytes": "64"
      },
      "t_uint256": {
        "encoding": "inplace",
        "label": "uint256",
        "numberOfBytes": "32"
      },
      "t_uint64": {
        "encoding": "inplace",
        "label": "uint64",
        "numberOfBytes": "8"
      }
    }
  }
}