{
  "address": "0xb781EACaAD26be913b4636A4a89cb5F7274EF4E2",
  "abi": [
    {
      "inputs": [
        {
          "internalType": "address",
          "name": "_coordinator",
          "type": "address"
        },
        {
          "internalType": "address",
          "name": "_weth",
          "type": "address"
        },
        {
          "internalType": "address",
          "name": "_swapRouter",
          "type": "address"
        }
      ],
      "stateMutability": "nonpayable",
      "type": "constructor"
    },
    {
      "inputs": [
        {
          "internalType": "address",
          "name": "have",
          "type": "address"
        },
        {
          "internalType": "address",
          "name": "want",
          "type": "address"
        }
      ],
      "name": "OnlyCoordinatorCanFulfill",
      "type": "error"
    },
    {
      "inputs": [
        {
          "internalType": "address",
          "name": "owner",
          "type": "address"
        }
      ],
      "name": "OwnableInvalidOwner",
      "type": "error"
    },
    {
      "inputs": [
        {
          "internalType": "address",
          "name": "account",
          "type": "address"
        }
      ],
      "name": "OwnableUnauthorizedAccount",
      "type": "error"
    },
    {
      "anonymous": false,
      "inputs": [
        {
          "indexed": true,
          "internalType": "uint256",
          "name": "requestId",
          "type": "uint256"
        },
        {
          "indexed": false,
          "internalType": "bytes",
          "name": "response",
          "type": "bytes"
        }
      ],
      "name": "DataFulfilled",
      "type": "event"
    },
    {
      "anonymous": false,
      "inputs": [
        {
          "indexed": true,
          "internalType": "uint256",
          "name": "requestId",
          "type": "uint256"
        }
      ],
      "name": "DataRequested",
      "type": "event"
    },
    {
      "anonymous": false,
      "inputs": [
        {
          "indexed": false,
          "internalType": "string",
          "name": "tokenName",
          "type": "string"
        }
      ],
      "name": "MemecoinNotFound",
      "type": "event"
    },
    {
      "anonymous": false,
      "inputs": [
        {
          "indexed": true,
          "internalType": "address",
          "name": "previousOwner",
          "type": "address"
        },
        {
          "indexed": true,
          "internalType": "address",
          "name": "newOwner",
          "type": "address"
        }
      ],
      "name": "OwnershipTransferred",
      "type": "event"
    },
    {
      "anonymous": false,
      "inputs": [
        {
          "indexed": true,
          "internalType": "uint256",
          "name": "requestId",
          "type": "uint256"
        },
        {
          "indexed": false,
          "internalType": "uint256",
          "name": "amountIn",
          "type": "uint256"
        },
        {
          "indexed": false,
          "internalType": "bool",
          "name": "isBuy",
          "type": "bool"
        }
      ],
      "name": "TradeSuccess",
      "type": "event"
    },
    {
      "inputs": [],
      "name": "COORDINATOR",
      "outputs": [
        {
          "internalType": "contract IADCSCoordinator",
          "name": "",
          "type": "address"
        }
      ],
      "stateMutability": "view",
      "type": "function"
    },
    {
      "inputs": [],
      "name": "WETH",
      "outputs": [
        {
          "internalType": "address",
          "name": "",
          "type": "address"
        }
      ],
      "stateMutability": "view",
      "type": "function"
    },
    {
      "inputs": [
        {
          "internalType": "string",
          "name": "name",
          "type": "string"
        },
        {
          "internalType": "address",
          "name": "addr",
          "type": "address"
        },
        {
          "internalType": "uint8",
          "name": "decimals",
          "type": "uint8"
        }
      ],
      "name": "addMemeCoin",
      "outputs": [],
      "stateMutability": "nonpayable",
      "type": "function"
    },
    {
      "inputs": [
        {
          "internalType": "uint256",
          "name": "index",
          "type": "uint256"
        }
      ],
      "name": "getMemeCoin",
      "outputs": [
        {
          "internalType": "string",
          "name": "name",
          "type": "string"
        },
        {
          "internalType": "address",
          "name": "addr",
          "type": "address"
        },
        {
          "internalType": "uint8",
          "name": "decimals",
          "type": "uint8"
        }
      ],
      "stateMutability": "view",
      "type": "function"
    },
    {
      "inputs": [],
      "name": "getMemeCoinCount",
      "outputs": [
        {
          "internalType": "uint256",
          "name": "",
          "type": "uint256"
        }
      ],
      "stateMutability": "view",
      "type": "function"
    },
    {
      "inputs": [],
      "name": "lastRequestId",
      "outputs": [
        {
          "internalType": "uint256",
          "name": "",
          "type": "uint256"
        }
      ],
      "stateMutability": "view",
      "type": "function"
    },
    {
      "inputs": [],
      "name": "lastResponse",
      "outputs": [
        {
          "internalType": "bytes",
          "name": "",
          "type": "bytes"
        }
      ],
      "stateMutability": "view",
      "type": "function"
    },
    {
      "inputs": [],
      "name": "memeCoinAmount",
      "outputs": [
        {
          "internalType": "uint256",
          "name": "",
          "type": "uint256"
        }
      ],
      "stateMutability": "view",
      "type": "function"
    },
    {
      "inputs": [
        {
          "internalType": "uint256",
          "name": "",
          "type": "uint256"
        }
      ],
      "name": "memeCoins",
      "outputs": [
        {
          "internalType": "string",
          "name": "name",
          "type": "string"
        },
        {
          "internalType": "address",
          "name": "addr",
          "type": "address"
        },
        {
          "internalType": "uint8",
          "name": "decimals",
          "type": "uint8"
        }
      ],
      "stateMutability": "view",
      "type": "function"
    },
    {
      "inputs": [],
      "name": "owner",
      "outputs": [
        {
          "internalType": "address",
          "name": "",
          "type": "address"
        }
      ],
      "stateMutability": "view",
      "type": "function"
    },
    {
      "inputs": [
        {
          "internalType": "uint256",
          "name": "requestId",
          "type": "uint256"
        },
        {
          "components": [
            {
              "internalType": "string",
              "name": "name",
              "type": "string"
            },
            {
              "internalType": "bool",
              "name": "response",
              "type": "bool"
            }
          ],
          "internalType": "struct ADCSConsumerBase.StringAndBool",
          "name": "response",
          "type": "tuple"
        }
      ],
      "name": "rawFulfillDataRequest",
      "outputs": [],
      "stateMutability": "nonpayable",
      "type": "function"
    },
    {
      "inputs": [],
      "name": "renounceOwnership",
      "outputs": [],
      "stateMutability": "nonpayable",
      "type": "function"
    },
    {
      "inputs": [
        {
          "internalType": "bytes32",
          "name": "jobId",
          "type": "bytes32"
        },
        {
          "internalType": "uint256",
          "name": "callbackGasLimit",
          "type": "uint256"
        }
      ],
      "name": "requestTradeMemeCoin",
      "outputs": [
        {
          "internalType": "uint256",
          "name": "requestId",
          "type": "uint256"
        }
      ],
      "stateMutability": "nonpayable",
      "type": "function"
    },
    {
      "inputs": [
        {
          "internalType": "address",
          "name": "_swapRouter",
          "type": "address"
        }
      ],
      "name": "setSwapRouter",
      "outputs": [],
      "stateMutability": "nonpayable",
      "type": "function"
    },
    {
      "inputs": [
        {
          "internalType": "uint256",
          "name": "_newAmount",
          "type": "uint256"
        }
      ],
      "name": "setTokenAmount",
      "outputs": [],
      "stateMutability": "nonpayable",
      "type": "function"
    },
    {
      "inputs": [
        {
          "internalType": "uint256",
          "name": "amount",
          "type": "uint256"
        }
      ],
      "name": "setWethAmountForTrade",
      "outputs": [],
      "stateMutability": "nonpayable",
      "type": "function"
    },
    {
      "inputs": [],
      "name": "swapRouter",
      "outputs": [
        {
          "internalType": "contract IV3SwapRouter",
          "name": "",
          "type": "address"
        }
      ],
      "stateMutability": "view",
      "type": "function"
    },
    {
      "inputs": [
        {
          "internalType": "address",
          "name": "newOwner",
          "type": "address"
        }
      ],
      "name": "transferOwnership",
      "outputs": [],
      "stateMutability": "nonpayable",
      "type": "function"
    },
    {
      "inputs": [],
      "name": "wethAmountForTrade",
      "outputs": [
        {
          "internalType": "uint256",
          "name": "",
          "type": "uint256"
        }
      ],
      "stateMutability": "view",
      "type": "function"
    },
    {
      "inputs": [],
      "name": "withdraw",
      "outputs": [],
      "stateMutability": "nonpayable",
      "type": "function"
    },
    {
      "inputs": [
        {
          "internalType": "address",
          "name": "token",
          "type": "address"
        }
      ],
      "name": "withdrawToken",
      "outputs": [],
      "stateMutability": "nonpayable",
      "type": "function"
    },
    {
      "stateMutability": "payable",
      "type": "receive"
    }
  ],
  "transactionHash": "0x76376f5876d927bcf526610f13a5b1ff66d6d34ba6862d845ff18e8def0dc2c5",
  "args": [
    "0x91c5d6e9F50ec656e7094df9fC035924AAA428bb",
    "0x4200000000000000000000000000000000000006",
    "0x2626664c2603336E57B271c5C0b26F421741e481"
  ],
  "numDeployments": 1,
  "solcInputHash": "e546d01715a007c42d3f483c74142015",
  "bytecode": "0x60c060405266038d7ea4c6800060045560646005553480156200002157600080fd5b50604051620030bd380380620030bd83398181016040528101906200004791906200047a565b33838073ffffffffffffffffffffffffffffffffffffffff1660808173ffffffffffffffffffffffffffffffffffffffff168152505063e9d3462860e01b600080604051602001620000999062000531565b60405160208183030381529060405280519060200120815260200190815260200160002060006101000a81548163ffffffff021916908360e01c0217905550634b9c308360e01b600080604051602001620000f49062000598565b60405160208183030381529060405280519060200120815260200190815260200160002060006101000a81548163ffffffff021916908360e01c0217905550631228cabf60e01b6000806040516020016200014f90620005ff565b60405160208183030381529060405280519060200120815260200190815260200160002060006101000a81548163ffffffff021916908360e01c02179055506329ba70c460e01b600080604051602001620001aa9062000666565b60405160208183030381529060405280519060200120815260200190815260200160002060006101000a81548163ffffffff021916908360e01c0217905550632f44d44960e01b6000806040516020016200020590620006cd565b60405160208183030381529060405280519060200120815260200190815260200160002060006101000a81548163ffffffff021916908360e01c021790555050600073ffffffffffffffffffffffffffffffffffffffff168173ffffffffffffffffffffffffffffffffffffffff1603620002ba5760006040517f1e4fbdf7000000000000000000000000000000000000000000000000000000008152600401620002b19190620006f5565b60405180910390fd5b620002cb816200034a60201b60201c565b508173ffffffffffffffffffffffffffffffffffffffff1660a08173ffffffffffffffffffffffffffffffffffffffff168152505080600760006101000a81548173ffffffffffffffffffffffffffffffffffffffff021916908373ffffffffffffffffffffffffffffffffffffffff16021790555050505062000712565b6000600160009054906101000a900473ffffffffffffffffffffffffffffffffffffffff16905081600160006101000a81548173ffffffffffffffffffffffffffffffffffffffff021916908373ffffffffffffffffffffffffffffffffffffffff1602179055508173ffffffffffffffffffffffffffffffffffffffff168173ffffffffffffffffffffffffffffffffffffffff167f8be0079c531659141344cd1fd0a4f28419497f9722a3daafe3b4186f6b6457e060405160405180910390a35050565b600080fd5b600073ffffffffffffffffffffffffffffffffffffffff82169050919050565b6000620004428262000415565b9050919050565b620004548162000435565b81146200046057600080fd5b50565b600081519050620004748162000449565b92915050565b60008060006060848603121562000496576200049562000410565b5b6000620004a68682870162000463565b9350506020620004b98682870162000463565b9250506040620004cc8682870162000463565b9150509250925092565b600081905092915050565b7f75696e7432353600000000000000000000000000000000000000000000000000600082015250565b600062000519600783620004d6565b91506200052682620004e1565b600782019050919050565b60006200053e826200050a565b9150819050919050565b7f626f6f6c00000000000000000000000000000000000000000000000000000000600082015250565b600062000580600483620004d6565b91506200058d8262000548565b600482019050919050565b6000620005a58262000571565b9150819050919050565b7f6279746573333200000000000000000000000000000000000000000000000000600082015250565b6000620005e7600783620004d6565b9150620005f482620005af565b600782019050919050565b60006200060c82620005d8565b9150819050919050565b7f6279746573000000000000000000000000000000000000000000000000000000600082015250565b60006200064e600583620004d6565b91506200065b8262000616565b600582019050919050565b600062000673826200063f565b9150819050919050565b7f737472696e67416e64626f6f6c00000000000000000000000000000000000000600082015250565b6000620006b5600d83620004d6565b9150620006c2826200067d565b600d82019050919050565b6000620006da82620006a6565b9150819050919050565b620006ef8162000435565b82525050565b60006020820190506200070c6000830184620006e4565b92915050565b60805160a05161295b62000762600039600081816109c2015281816110eb015281816111f701526114680152600081816104db0152818161071e01528181610c310152610f21015261295b6000f3fe60806040526004361061012e5760003560e01c80638da5cb5b116100ab578063c31c9c071161006f578063c31c9c07146103b3578063da6868f7146103de578063da7f08b81461041b578063e4f39ccb14610446578063f2fde38b14610471578063fc2a88c31461049a57610135565b80638da5cb5b146102cc578063ad5c4648146102f7578063af6c798a14610322578063b0ff40e714610361578063b859b7431461038a57610135565b806341273657116100f2578063412736571461020d57806362747e4214610236578063715018a614610261578063813f0e5a1461027857806389476069146102a357610135565b80630749469f1461013a5780630e2c871f1461016357806329c275b61461018c5780633b2bcbf1146101cb5780633ccfd60b146101f657610135565b3661013557005b600080fd5b34801561014657600080fd5b50610161600480360381019061015c9190611783565b6104c5565b005b34801561016f57600080fd5b5061018a600480360381019061018591906119a4565b6104d7565b005b34801561019857600080fd5b506101b360048036038101906101ae9190611783565b61057d565b6040516101c293929190611adc565b60405180910390f35b3480156101d757600080fd5b506101e061071c565b6040516101ed9190611b79565b60405180910390f35b34801561020257600080fd5b5061020b610740565b005b34801561021957600080fd5b50610234600480360381019061022f9190611bc0565b610798565b005b34801561024257600080fd5b5061024b6107e4565b6040516102589190611c42565b60405180910390f35b34801561026d57600080fd5b50610276610872565b005b34801561028457600080fd5b5061028d610886565b60405161029a9190611c73565b60405180910390f35b3480156102af57600080fd5b506102ca60048036038101906102c59190611bc0565b61088c565b005b3480156102d857600080fd5b506102e1610996565b6040516102ee9190611c8e565b60405180910390f35b34801561030357600080fd5b5061030c6109c0565b6040516103199190611c8e565b60405180910390f35b34801561032e57600080fd5b5061034960048036038101906103449190611783565b6109e4565b60405161035893929190611adc565b60405180910390f35b34801561036d57600080fd5b5061038860048036038101906103839190611783565b610ad3565b005b34801561039657600080fd5b506103b160048036038101906103ac9190611cd5565b610ae5565b005b3480156103bf57600080fd5b506103c8610bd1565b6040516103d59190611d65565b60405180910390f35b3480156103ea57600080fd5b5061040560048036038101906104009190611db6565b610bf7565b6040516104129190611c73565b60405180910390f35b34801561042757600080fd5b50610430610d04565b60405161043d9190611c73565b60405180910390f35b34801561045257600080fd5b5061045b610d11565b6040516104689190611c73565b60405180910390f35b34801561047d57600080fd5b5061049860048036038101906104939190611bc0565b610d17565b005b3480156104a657600080fd5b506104af610d9d565b6040516104bc9190611c73565b60405180910390f35b6104cd610da3565b8060058190555050565b60007f000000000000000000000000000000000000000000000000000000000000000090508073ffffffffffffffffffffffffffffffffffffffff163373ffffffffffffffffffffffffffffffffffffffff161461056e5733816040517f1cf993f4000000000000000000000000000000000000000000000000000000008152600401610565929190611df6565b60405180910390fd5b6105788383610e2a565b505050565b606060008060068054905084106105c9576040517f08c379a00000000000000000000000000000000000000000000000000000000081526004016105c090611e6b565b60405180910390fd5b6000600685815481106105df576105de611e8b565b5b906000526020600020906002020160405180606001604052908160008201805461060890611ee9565b80601f016020809104026020016040519081016040528092919081815260200182805461063490611ee9565b80156106815780601f1061065657610100808354040283529160200191610681565b820191906000526020600020905b81548152906001019060200180831161066457829003601f168201915b505050505081526020016001820160009054906101000a900473ffffffffffffffffffffffffffffffffffffffff1673ffffffffffffffffffffffffffffffffffffffff1673ffffffffffffffffffffffffffffffffffffffff1681526020016001820160149054906101000a900460ff1660ff1660ff16815250509050806000015181602001518260400151935093509350509193909250565b7f000000000000000000000000000000000000000000000000000000000000000081565b610748610da3565b610750610996565b73ffffffffffffffffffffffffffffffffffffffff166108fc479081150290604051600060405180830381858888f19350505050158015610795573d6000803e3d6000fd5b50565b6107a0610da3565b80600760006101000a81548173ffffffffffffffffffffffffffffffffffffffff021916908373ffffffffffffffffffffffffffffffffffffffff16021790555050565b600280546107f190611ee9565b80601f016020809104026020016040519081016040528092919081815260200182805461081d90611ee9565b801561086a5780601f1061083f5761010080835404028352916020019161086a565b820191906000526020600020905b81548152906001019060200180831161084d57829003601f168201915b505050505081565b61087a610da3565b6108846000610e4d565b565b60055481565b610894610da3565b8073ffffffffffffffffffffffffffffffffffffffff1663a9059cbb6108b8610996565b8373ffffffffffffffffffffffffffffffffffffffff166370a08231306040518263ffffffff1660e01b81526004016108f19190611c8e565b602060405180830381865afa15801561090e573d6000803e3d6000fd5b505050506040513d601f19601f820116820180604052508101906109329190611f2f565b6040518363ffffffff1660e01b815260040161094f929190611f5c565b6020604051808303816000875af115801561096e573d6000803e3d6000fd5b505050506040513d601f19601f820116820180604052508101906109929190611f9a565b5050565b6000600160009054906101000a900473ffffffffffffffffffffffffffffffffffffffff16905090565b7f000000000000000000000000000000000000000000000000000000000000000081565b600681815481106109f457600080fd5b9060005260206000209060020201600091509050806000018054610a1790611ee9565b80601f0160208091040260200160405190810160405280929190818152602001828054610a4390611ee9565b8015610a905780601f10610a6557610100808354040283529160200191610a90565b820191906000526020600020905b815481529060010190602001808311610a7357829003601f168201915b5050505050908060010160009054906101000a900473ffffffffffffffffffffffffffffffffffffffff16908060010160149054906101000a900460ff16905083565b610adb610da3565b8060048190555050565b610aed610da3565b600660405180606001604052808581526020018473ffffffffffffffffffffffffffffffffffffffff1681526020018360ff1681525090806001815401808255809150506001900390600052602060002090600202016000909190919091506000820151816000019081610b619190612169565b5060208201518160010160006101000a81548173ffffffffffffffffffffffffffffffffffffffff021916908373ffffffffffffffffffffffffffffffffffffffff16021790555060408201518160010160146101000a81548160ff021916908360ff1602179055505050505050565b600760009054906101000a900473ffffffffffffffffffffffffffffffffffffffff1681565b600080604051602001610c0990612292565b6040516020818303038152906040528051906020012090506000610c2d8583610f13565b90507f000000000000000000000000000000000000000000000000000000000000000073ffffffffffffffffffffffffffffffffffffffff1663db750a2d85836040518363ffffffff1660e01b8152600401610c8a92919061240c565b6020604051808303816000875af1158015610ca9573d6000803e3d6000fd5b505050506040513d601f19601f82011682018060405250810190610ccd9190611f2f565b9250827f35627151f04080049c4603628b94879b241dc64b255b7347a7632165d45ee51e60405160405180910390a2505092915050565b6000600680549050905090565b60045481565b610d1f610da3565b600073ffffffffffffffffffffffffffffffffffffffff168173ffffffffffffffffffffffffffffffffffffffff1603610d915760006040517f1e4fbdf7000000000000000000000000000000000000000000000000000000008152600401610d889190611c8e565b60405180910390fd5b610d9a81610e4d565b50565b60035481565b610dab610f79565b73ffffffffffffffffffffffffffffffffffffffff16610dc9610996565b73ffffffffffffffffffffffffffffffffffffffff1614610e2857610dec610f79565b6040517f118cdaa7000000000000000000000000000000000000000000000000000000008152600401610e1f9190611c8e565b60405180910390fd5b565b600081600001519050600082602001519050610e47848383610f81565b50505050565b6000600160009054906101000a900473ffffffffffffffffffffffffffffffffffffffff16905081600160006101000a81548173ffffffffffffffffffffffffffffffffffffffff021916908373ffffffffffffffffffffffffffffffffffffffff1602179055508173ffffffffffffffffffffffffffffffffffffffff168173ffffffffffffffffffffffffffffffffffffffff167f8be0079c531659141344cd1fd0a4f28419497f9722a3daafe3b4186f6b6457e060405160405180910390a35050565b610f1b6116b2565b610f71837f000000000000000000000000000000000000000000000000000000000000000060008086815260200190815260200160002060009054906101000a900460e01b84611598909392919063ffffffff16565b905092915050565b600033905090565b60008060005b60068054905081101561107057848051906020012060068281548110610fb057610faf611e8b565b5b9060005260206000209060020201600001604051610fce91906124df565b60405180910390200361105d5760068181548110610fef57610fee611e8b565b5b906000526020600020906002020160010160009054906101000a900473ffffffffffffffffffffffffffffffffffffffff1692506006818154811061103757611036611e8b565b5b906000526020600020906002020160010160149054906101000a900460ff169150611070565b808061106890612525565b915050610f87565b50600073ffffffffffffffffffffffffffffffffffffffff168273ffffffffffffffffffffffffffffffffffffffff16036110e3577f563ebd046dc43cc5667717e18c14710259a4632f4366792e5cd6cc73181b07e8846040516110d4919061256d565b60405180910390a15050611593565b8215611342577f000000000000000000000000000000000000000000000000000000000000000073ffffffffffffffffffffffffffffffffffffffff1663095ea7b3600760009054906101000a900473ffffffffffffffffffffffffffffffffffffffff166004546040518363ffffffff1660e01b8152600401611168929190611f5c565b6020604051808303816000875af1158015611187573d6000803e3d6000fd5b505050506040513d601f19601f820116820180604052508101906111ab9190611f9a565b50600760009054906101000a900473ffffffffffffffffffffffffffffffffffffffff1673ffffffffffffffffffffffffffffffffffffffff166304e45aaf6040518060e001604052807f000000000000000000000000000000000000000000000000000000000000000073ffffffffffffffffffffffffffffffffffffffff1681526020018573ffffffffffffffffffffffffffffffffffffffff168152602001610bb862ffffff1681526020013073ffffffffffffffffffffffffffffffffffffffff168152602001600454815260200160008152602001600073ffffffffffffffffffffffffffffffffffffffff168152506040518263ffffffff1660e01b81526004016112bc919061264a565b6020604051808303816000875af11580156112db573d6000803e3d6000fd5b505050506040513d601f19601f820116820180604052508101906112ff9190611f2f565b50847ffe937b9910f382875858f98d3eb21489abb83ab3a3c479a2f38f3e22e18a551c6004546001604051611335929190612674565b60405180910390a2611590565b600081600a61135191906127d0565b60055461135e919061281b565b90508273ffffffffffffffffffffffffffffffffffffffff1663095ea7b3600760009054906101000a900473ffffffffffffffffffffffffffffffffffffffff16836040518363ffffffff1660e01b81526004016113bd929190611f5c565b6020604051808303816000875af11580156113dc573d6000803e3d6000fd5b505050506040513d601f19601f820116820180604052508101906114009190611f9a565b50600760009054906101000a900473ffffffffffffffffffffffffffffffffffffffff1673ffffffffffffffffffffffffffffffffffffffff166304e45aaf6040518060e001604052808673ffffffffffffffffffffffffffffffffffffffff1681526020017f000000000000000000000000000000000000000000000000000000000000000073ffffffffffffffffffffffffffffffffffffffff168152602001610bb862ffffff1681526020013073ffffffffffffffffffffffffffffffffffffffff16815260200184815260200160008152602001600073ffffffffffffffffffffffffffffffffffffffff168152506040518263ffffffff1660e01b815260040161150f919061264a565b6020604051808303816000875af115801561152e573d6000803e3d6000fd5b505050506040513d601f19601f820116820180604052508101906115529190611f2f565b50857ffe937b9910f382875858f98d3eb21489abb83ab3a3c479a2f38f3e22e18a551c826000604051611586929190612674565b60405180910390a2505b50505b505050565b6115a06116b2565b6115b08560800151610100611648565b508385600001818152505082856020019073ffffffffffffffffffffffffffffffffffffffff16908173ffffffffffffffffffffffffffffffffffffffff16815250508185604001907bffffffffffffffffffffffffffffffffffffffffffffffffffffffff191690817bffffffffffffffffffffffffffffffffffffffffffffffffffffffff191681525050849050949350505050565b61165061171f565b600060208361165f919061288c565b1461168b57602082611671919061288c565b602061167d91906128bd565b8261168891906128f1565b91505b81836020018181525050604051808452600081528281016020016040525082905092915050565b6040518060a0016040528060008019168152602001600073ffffffffffffffffffffffffffffffffffffffff16815260200160007bffffffffffffffffffffffffffffffffffffffffffffffffffffffff191681526020016000815260200161171961171f565b81525090565b604051806040016040528060608152602001600081525090565b6000604051905090565b600080fd5b600080fd5b6000819050919050565b6117608161174d565b811461176b57600080fd5b50565b60008135905061177d81611757565b92915050565b60006020828403121561179957611798611743565b5b60006117a78482850161176e565b91505092915050565b600080fd5b6000601f19601f8301169050919050565b7f4e487b7100000000000000000000000000000000000000000000000000000000600052604160045260246000fd5b6117fe826117b5565b810181811067ffffffffffffffff8211171561181d5761181c6117c6565b5b80604052505050565b6000611830611739565b905061183c82826117f5565b919050565b600080fd5b600080fd5b600080fd5b600067ffffffffffffffff82111561186b5761186a6117c6565b5b611874826117b5565b9050602081019050919050565b82818337600083830152505050565b60006118a361189e84611850565b611826565b9050828152602081018484840111156118bf576118be61184b565b5b6118ca848285611881565b509392505050565b600082601f8301126118e7576118e6611846565b5b81356118f7848260208601611890565b91505092915050565b60008115159050919050565b61191581611900565b811461192057600080fd5b50565b6000813590506119328161190c565b92915050565b60006040828403121561194e5761194d6117b0565b5b6119586040611826565b9050600082013567ffffffffffffffff81111561197857611977611841565b5b611984848285016118d2565b600083015250602061199884828501611923565b60208301525092915050565b600080604083850312156119bb576119ba611743565b5b60006119c98582860161176e565b925050602083013567ffffffffffffffff8111156119ea576119e9611748565b5b6119f685828601611938565b9150509250929050565b600081519050919050565b600082825260208201905092915050565b60005b83811015611a3a578082015181840152602081019050611a1f565b60008484015250505050565b6000611a5182611a00565b611a5b8185611a0b565b9350611a6b818560208601611a1c565b611a74816117b5565b840191505092915050565b600073ffffffffffffffffffffffffffffffffffffffff82169050919050565b6000611aaa82611a7f565b9050919050565b611aba81611a9f565b82525050565b600060ff82169050919050565b611ad681611ac0565b82525050565b60006060820190508181036000830152611af68186611a46565b9050611b056020830185611ab1565b611b126040830184611acd565b949350505050565b6000819050919050565b6000611b3f611b3a611b3584611a7f565b611b1a565b611a7f565b9050919050565b6000611b5182611b24565b9050919050565b6000611b6382611b46565b9050919050565b611b7381611b58565b82525050565b6000602082019050611b8e6000830184611b6a565b92915050565b611b9d81611a9f565b8114611ba857600080fd5b50565b600081359050611bba81611b94565b92915050565b600060208284031215611bd657611bd5611743565b5b6000611be484828501611bab565b91505092915050565b600081519050919050565b600082825260208201905092915050565b6000611c1482611bed565b611c1e8185611bf8565b9350611c2e818560208601611a1c565b611c37816117b5565b840191505092915050565b60006020820190508181036000830152611c5c8184611c09565b905092915050565b611c6d8161174d565b82525050565b6000602082019050611c886000830184611c64565b92915050565b6000602082019050611ca36000830184611ab1565b92915050565b611cb281611ac0565b8114611cbd57600080fd5b50565b600081359050611ccf81611ca9565b92915050565b600080600060608486031215611cee57611ced611743565b5b600084013567ffffffffffffffff811115611d0c57611d0b611748565b5b611d18868287016118d2565b9350506020611d2986828701611bab565b9250506040611d3a86828701611cc0565b9150509250925092565b6000611d4f82611b46565b9050919050565b611d5f81611d44565b82525050565b6000602082019050611d7a6000830184611d56565b92915050565b6000819050919050565b611d9381611d80565b8114611d9e57600080fd5b50565b600081359050611db081611d8a565b92915050565b60008060408385031215611dcd57611dcc611743565b5b6000611ddb85828601611da1565b9250506020611dec8582860161176e565b9150509250929050565b6000604082019050611e0b6000830185611ab1565b611e186020830184611ab1565b9392505050565b7f496e646578206f7574206f6620626f756e647300000000000000000000000000600082015250565b6000611e55601383611a0b565b9150611e6082611e1f565b602082019050919050565b60006020820190508181036000830152611e8481611e48565b9050919050565b7f4e487b7100000000000000000000000000000000000000000000000000000000600052603260045260246000fd5b7f4e487b7100000000000000000000000000000000000000000000000000000000600052602260045260246000fd5b60006002820490506001821680611f0157607f821691505b602082108103611f1457611f13611eba565b5b50919050565b600081519050611f2981611757565b92915050565b600060208284031215611f4557611f44611743565b5b6000611f5384828501611f1a565b91505092915050565b6000604082019050611f716000830185611ab1565b611f7e6020830184611c64565b9392505050565b600081519050611f948161190c565b92915050565b600060208284031215611fb057611faf611743565b5b6000611fbe84828501611f85565b91505092915050565b60008190508160005260206000209050919050565b60006020601f8301049050919050565b600082821b905092915050565b6000600883026120297fffffffffffffffffffffffffffffffffffffffffffffffffffffffffffffffff82611fec565b6120338683611fec565b95508019841693508086168417925050509392505050565b600061206661206161205c8461174d565b611b1a565b61174d565b9050919050565b6000819050919050565b6120808361204b565b61209461208c8261206d565b848454611ff9565b825550505050565b600090565b6120a961209c565b6120b4818484612077565b505050565b5b818110156120d8576120cd6000826120a1565b6001810190506120ba565b5050565b601f82111561211d576120ee81611fc7565b6120f784611fdc565b81016020851015612106578190505b61211a61211285611fdc565b8301826120b9565b50505b505050565b600082821c905092915050565b600061214060001984600802612122565b1980831691505092915050565b6000612159838361212f565b9150826002028217905092915050565b61217282611a00565b67ffffffffffffffff81111561218b5761218a6117c6565b5b6121958254611ee9565b6121a08282856120dc565b600060209050601f8311600181146121d357600084156121c1578287015190505b6121cb858261214d565b865550612233565b601f1984166121e186611fc7565b60005b82811015612209578489015182556001820191506020850194506020810190506121e4565b868310156122265784890151612222601f89168261212f565b8355505b6001600288020188555050505b505050505050565b600081905092915050565b7f737472696e67416e64626f6f6c00000000000000000000000000000000000000600082015250565b600061227c600d8361223b565b915061228782612246565b600d82019050919050565b600061229d8261226f565b9150819050919050565b6122b081611d80565b82525050565b6122bf81611a9f565b82525050565b60007fffffffff0000000000000000000000000000000000000000000000000000000082169050919050565b6122fa816122c5565b82525050565b6123098161174d565b82525050565b600082825260208201905092915050565b600061232b82611bed565b612335818561230f565b9350612345818560208601611a1c565b61234e816117b5565b840191505092915050565b600060408301600083015184820360008601526123768282612320565b915050602083015161238b6020860182612300565b508091505092915050565b600060a0830160008301516123ae60008601826122a7565b5060208301516123c160208601826122b6565b5060408301516123d460408601826122f1565b5060608301516123e76060860182612300565b50608083015184820360808601526123ff8282612359565b9150508091505092915050565b60006040820190506124216000830185611c64565b81810360208301526124338184612396565b90509392505050565b600081905092915050565b60008190508160005260206000209050919050565b6000815461246981611ee9565b612473818661243c565b9450600182166000811461248e57600181146124a3576124d6565b60ff19831686528115158202860193506124d6565b6124ac85612447565b60005b838110156124ce578154818901526001820191506020810190506124af565b838801955050505b50505092915050565b60006124eb828461245c565b915081905092915050565b7f4e487b7100000000000000000000000000000000000000000000000000000000600052601160045260246000fd5b60006125308261174d565b91507fffffffffffffffffffffffffffffffffffffffffffffffffffffffffffffffff8203612562576125616124f6565b5b600182019050919050565b600060208201905081810360008301526125878184611a46565b905092915050565b600062ffffff82169050919050565b6125a78161258f565b82525050565b6125b681611a7f565b82525050565b60e0820160008201516125d260008501826122b6565b5060208201516125e560208501826122b6565b5060408201516125f8604085018261259e565b50606082015161260b60608501826122b6565b50608082015161261e6080850182612300565b5060a082015161263160a0850182612300565b5060c082015161264460c08501826125ad565b50505050565b600060e08201905061265f60008301846125bc565b92915050565b61266e81611900565b82525050565b60006040820190506126896000830185611c64565b6126966020830184612665565b9392505050565b60008160011c9050919050565b6000808291508390505b60018511156126f4578086048111156126d0576126cf6124f6565b5b60018516156126df5780820291505b80810290506126ed8561269d565b94506126b4565b94509492505050565b60008261270d57600190506127c9565b8161271b57600090506127c9565b8160018114612731576002811461273b5761276a565b60019150506127c9565b60ff84111561274d5761274c6124f6565b5b8360020a915084821115612764576127636124f6565b5b506127c9565b5060208310610133831016604e8410600b841016171561279f5782820a90508381111561279a576127996124f6565b5b6127c9565b6127ac84848460016126aa565b925090508184048111156127c3576127c26124f6565b5b81810290505b9392505050565b60006127db8261174d565b91506127e683611ac0565b92506128137fffffffffffffffffffffffffffffffffffffffffffffffffffffffffffffffff84846126fd565b905092915050565b60006128268261174d565b91506128318361174d565b925082820261283f8161174d565b91508282048414831517612856576128556124f6565b5b5092915050565b7f4e487b7100000000000000000000000000000000000000000000000000000000600052601260045260246000fd5b60006128978261174d565b91506128a28361174d565b9250826128b2576128b161285d565b5b828206905092915050565b60006128c88261174d565b91506128d38361174d565b92508282039050818111156128eb576128ea6124f6565b5b92915050565b60006128fc8261174d565b91506129078361174d565b925082820190508082111561291f5761291e6124f6565b5b9291505056fea2646970667358221220be244289b62d11722adca1c2fa5e28019369c70afdc6ef90163514b07f33aead64736f6c63430008140033",
  "devdoc": {
    "errors": {
      "OwnableInvalidOwner(address)": [
        {
          "details": "The owner is not a valid owner account. (eg. `address(0)`)"
        }
      ],
      "OwnableUnauthorizedAccount(address)": [
        {
          "details": "The caller account is not authorized to perform an operation."
        }
      ]
    },
    "kind": "dev",
    "methods": {
      "addMemeCoin(string,address,uint8)": {
        "params": {
          "addr": "The contract address of the memecoin",
          "decimals": "The decimals of the memecoin",
          "name": "The name of the memecoin"
        }
      },
      "getMemeCoin(uint256)": {
        "params": {
          "index": "The index in the memecoins array"
        },
        "returns": {
          "addr": "The memecoin contract address",
          "decimals": "The decimals of the memecoin",
          "name": "The memecoin name"
        }
      },
      "getMemeCoinCount()": {
        "returns": {
          "_0": "The length of the memecoins array"
        }
      },
      "owner()": {
        "details": "Returns the address of the current owner."
      },
      "renounceOwnership()": {
        "details": "Leaves the contract without owner. It will not be possible to call `onlyOwner` functions. Can only be called by the current owner. NOTE: Renouncing ownership will leave the contract without an owner, thereby disabling any functionality that is only available to the owner."
      },
      "transferOwnership(address)": {
        "details": "Transfers ownership of the contract to a new account (`newOwner`). Can only be called by the current owner."
      }
    },
    "version": 1
  },
  "userdoc": {
    "kind": "user",
    "methods": {
      "addMemeCoin(string,address,uint8)": {
        "notice": "Add a new memecoin to the list"
      },
      "getMemeCoin(uint256)": {
        "notice": "Get a memecoin by index"
      },
      "getMemeCoinCount()": {
        "notice": "Get the total number of memecoins in the list"
      }
    },
    "version": 1
  },
  "storageLayout": {
    "storage": [
      {
        "astId": 383,
        "contract": "src/mock/MockTradeMemeCoinV2.sol:MockTradeMemeCoinV2",
        "label": "sTypeIdToFunctionSelector",
        "offset": 0,
        "slot": "0",
        "type": "t_mapping(t_bytes32,t_bytes4)"
      },
      {
        "astId": 8,
        "contract": "src/mock/MockTradeMemeCoinV2.sol:MockTradeMemeCoinV2",
        "label": "_owner",
        "offset": 0,
        "slot": "1",
        "type": "t_address"
      },
      {
        "astId": 2017,
        "contract": "src/mock/MockTradeMemeCoinV2.sol:MockTradeMemeCoinV2",
        "label": "lastResponse",
        "offset": 0,
        "slot": "2",
        "type": "t_bytes_storage"
      },
      {
        "astId": 2019,
        "contract": "src/mock/MockTradeMemeCoinV2.sol:MockTradeMemeCoinV2",
        "label": "lastRequestId",
        "offset": 0,
        "slot": "3",
        "type": "t_uint256"
      },
      {
        "astId": 2022,
        "contract": "src/mock/MockTradeMemeCoinV2.sol:MockTradeMemeCoinV2",
        "label": "wethAmountForTrade",
        "offset": 0,
        "slot": "4",
        "type": "t_uint256"
      },
      {
        "astId": 2025,
        "contract": "src/mock/MockTradeMemeCoinV2.sol:MockTradeMemeCoinV2",
        "label": "memeCoinAmount",
        "offset": 0,
        "slot": "5",
        "type": "t_uint256"
      },
      {
        "astId": 2036,
        "contract": "src/mock/MockTradeMemeCoinV2.sol:MockTradeMemeCoinV2",
        "label": "memeCoins",
        "offset": 0,
        "slot": "6",
        "type": "t_array(t_struct(MemeCoin)2032_storage)dyn_storage"
      },
      {
        "astId": 2063,
        "contract": "src/mock/MockTradeMemeCoinV2.sol:MockTradeMemeCoinV2",
        "label": "swapRouter",
        "offset": 0,
        "slot": "7",
        "type": "t_contract(IV3SwapRouter)347"
      }
    ],
    "types": {
      "t_address": {
        "encoding": "inplace",
        "label": "address",
        "numberOfBytes": "20"
      },
      "t_array(t_struct(MemeCoin)2032_storage)dyn_storage": {
        "base": "t_struct(MemeCoin)2032_storage",
        "encoding": "dynamic_array",
        "label": "struct MockTradeMemeCoinV2.MemeCoin[]",
        "numberOfBytes": "32"
      },
      "t_bytes32": {
        "encoding": "inplace",
        "label": "bytes32",
        "numberOfBytes": "32"
      },
      "t_bytes4": {
        "encoding": "inplace",
        "label": "bytes4",
        "numberOfBytes": "4"
      },
      "t_bytes_storage": {
        "encoding": "bytes",
        "label": "bytes",
        "numberOfBytes": "32"
      },
      "t_contract(IV3SwapRouter)347": {
        "encoding": "inplace",
        "label": "contract IV3SwapRouter",
        "numberOfBytes": "20"
      },
      "t_mapping(t_bytes32,t_bytes4)": {
        "encoding": "mapping",
        "key": "t_bytes32",
        "label": "mapping(bytes32 => bytes4)",
        "numberOfBytes": "32",
        "value": "t_bytes4"
      },
      "t_string_storage": {
        "encoding": "bytes",
        "label": "string",
        "numberOfBytes": "32"
      },
      "t_struct(MemeCoin)2032_storage": {
        "encoding": "inplace",
        "label": "struct MockTradeMemeCoinV2.MemeCoin",
        "members": [
          {
            "astId": 2027,
            "contract": "src/mock/MockTradeMemeCoinV2.sol:MockTradeMemeCoinV2",
            "label": "name",
            "offset": 0,
            "slot": "0",
            "type": "t_string_storage"
          },
          {
            "astId": 2029,
            "contract": "src/mock/MockTradeMemeCoinV2.sol:MockTradeMemeCoinV2",
            "label": "addr",
            "offset": 0,
            "slot": "1",
            "type": "t_address"
          },
          {
            "astId": 2031,
            "contract": "src/mock/MockTradeMemeCoinV2.sol:MockTradeMemeCoinV2",
            "label": "decimals",
            "offset": 20,
            "slot": "1",
            "type": "t_uint8"
          }
        ],
        "numberOfBytes": "64"
      },
      "t_uint256": {
        "encoding": "inplace",
        "label": "uint256",
        "numberOfBytes": "32"
      },
      "t_uint8": {
        "encoding": "inplace",
        "label": "uint8",
        "numberOfBytes": "1"
      }
    }
  }
}